{
  "_format": "hh-sol-artifact-1",
  "contractName": "APIConsumer",
  "sourceName": "contracts/APIConsumer.sol",
  "abi": [
    {
      "inputs": [],
      "stateMutability": "nonpayable",
      "type": "constructor"
    },
    {
      "anonymous": false,
      "inputs": [
        {
          "indexed": true,
          "internalType": "bytes32",
          "name": "id",
          "type": "bytes32"
        }
      ],
      "name": "ChainlinkCancelled",
      "type": "event"
    },
    {
      "anonymous": false,
      "inputs": [
        {
          "indexed": true,
          "internalType": "bytes32",
          "name": "id",
          "type": "bytes32"
        }
      ],
      "name": "ChainlinkFulfilled",
      "type": "event"
    },
    {
      "anonymous": false,
      "inputs": [
        {
          "indexed": true,
          "internalType": "bytes32",
          "name": "id",
          "type": "bytes32"
        }
      ],
      "name": "ChainlinkRequested",
      "type": "event"
    },
    {
      "anonymous": false,
      "inputs": [
        {
          "indexed": true,
          "internalType": "address",
          "name": "from",
          "type": "address"
        },
        {
          "indexed": true,
          "internalType": "address",
          "name": "to",
          "type": "address"
        }
      ],
      "name": "OwnershipTransferRequested",
      "type": "event"
    },
    {
      "anonymous": false,
      "inputs": [
        {
          "indexed": true,
          "internalType": "address",
          "name": "from",
          "type": "address"
        },
        {
          "indexed": true,
          "internalType": "address",
          "name": "to",
          "type": "address"
        }
      ],
      "name": "OwnershipTransferred",
      "type": "event"
    },
    {
      "anonymous": false,
      "inputs": [
        {
          "indexed": true,
          "internalType": "bytes32",
          "name": "requestId",
          "type": "bytes32"
        },
        {
          "indexed": false,
          "internalType": "bool",
          "name": "volume",
          "type": "bool"
        }
      ],
      "name": "RequestVolume",
      "type": "event"
    },
    {
      "inputs": [],
      "name": "acceptOwnership",
      "outputs": [],
      "stateMutability": "nonpayable",
      "type": "function"
    },
    {
      "inputs": [
        {
          "internalType": "bytes32",
          "name": "_requestId",
          "type": "bytes32"
        },
        {
          "internalType": "bool",
          "name": "_isEartquake",
          "type": "bool"
        }
      ],
      "name": "fulfill",
      "outputs": [],
      "stateMutability": "nonpayable",
      "type": "function"
    },
    {
      "inputs": [],
      "name": "isEarthquake",
      "outputs": [
        {
          "internalType": "bool",
          "name": "",
          "type": "bool"
        }
      ],
      "stateMutability": "view",
      "type": "function"
    },
    {
      "inputs": [
        {
          "internalType": "bytes32",
          "name": "",
          "type": "bytes32"
        }
      ],
      "name": "oracleCalls",
      "outputs": [
        {
          "internalType": "uint256",
          "name": "",
          "type": "uint256"
        }
      ],
      "stateMutability": "view",
      "type": "function"
    },
    {
      "inputs": [],
      "name": "owner",
      "outputs": [
        {
          "internalType": "address",
          "name": "",
          "type": "address"
        }
      ],
      "stateMutability": "view",
      "type": "function"
    },
    {
      "inputs": [
        {
          "internalType": "string",
          "name": "lat",
          "type": "string"
        },
        {
          "internalType": "string",
          "name": "long",
          "type": "string"
        }
      ],
      "name": "requestEarthquakeData",
      "outputs": [
        {
          "internalType": "bytes32",
          "name": "",
          "type": "bytes32"
        }
      ],
      "stateMutability": "nonpayable",
      "type": "function"
    },
    {
      "inputs": [
        {
          "internalType": "bytes32",
          "name": "_requestId",
          "type": "bytes32"
        },
        {
          "internalType": "bool",
          "name": "_isEartquake",
          "type": "bool"
        }
      ],
      "name": "testFulfill",
      "outputs": [],
      "stateMutability": "nonpayable",
      "type": "function"
    },
    {
      "inputs": [
        {
          "internalType": "address",
          "name": "to",
          "type": "address"
        }
      ],
      "name": "transferOwnership",
      "outputs": [],
      "stateMutability": "nonpayable",
      "type": "function"
    },
    {
      "inputs": [],
      "name": "withdrawLink",
      "outputs": [],
      "stateMutability": "nonpayable",
      "type": "function"
    }
  ],
  "bytecode": "0x608060405260016004553480156200001657600080fd5b5033806000816200006e5760405162461bcd60e51b815260206004820152601860248201527f43616e6e6f7420736574206f776e657220746f207a65726f000000000000000060448201526064015b60405180910390fd5b600680546001600160a01b0319166001600160a01b0384811691909117909155811615620000a157620000a1816200013f565b505050620000c973a36085f69e2889c224210f603d836748e7dc0088620001eb60201b60201c565b600380546001600160a01b0319167374ecc8bdeb76f2c6760ed2dc8a46ca5e581fa6561790557f6331633565393238383038393465623662323764336361653139363730616133600855600a6200012a670de0b6b3a764000060016200020d565b6200013691906200023b565b6009556200025e565b336001600160a01b03821603620001995760405162461bcd60e51b815260206004820152601760248201527f43616e6e6f74207472616e7366657220746f2073656c66000000000000000000604482015260640162000065565b600780546001600160a01b0319166001600160a01b03838116918217909255600654604051919216907fed8889f560326eb138920d842192f0eb3dd22b4f139c87a2c57538e05bae127890600090a350565b600280546001600160a01b0319166001600160a01b0392909216919091179055565b60008160001904831182151516156200023657634e487b7160e01b600052601160045260246000fd5b500290565b6000826200025957634e487b7160e01b600052601260045260246000fd5b500490565b610f85806200026e6000396000f3fe608060405234801561001057600080fd5b50600436106100835760003560e01c806342ceee4f146100885780634c965361146100b157806377cf16e8146100d257806379ba5097146100e75780638da5cb5b146100ef5780638dc654a21461010a578063a48aee9214610112578063f2fde38b14610132578063fd68990a14610145575b600080fd5b60075461009c90600160a01b900460ff1681565b60405190151581526020015b60405180910390f35b6100c46100bf366004610bf9565b610158565b6040519081526020016100a8565b6100e56100e0366004610c6a565b610250565b005b6100e561029c565b6006546040516001600160a01b0390911681526020016100a8565b6100e561034f565b6100c4610120366004610c9a565b600a6020526000908152604090205481565b6100e5610140366004610cb3565b610493565b6100e5610153366004610c6a565b6104a4565b600080838360405160200161016e929190610d17565b604051602081830303815290604052905060006101956008543063fd68990a60e01b6105ec565b60408051808201909152600381526219d95d60ea1b60208201529091506101be90829084610611565b61020d604051806040016040528060048152602001630e0c2e8d60e31b8152506040518060400160405280600681526020016573746174757360d01b815250836106119092919063ffffffff16565b60008585604051602001610222929190610d8e565b604051602081830303815290604052805190602001209050610245816001610250565b925050505b92915050565b6007805482158015600160a01b0260ff60a01b199092169190911790915561028757506000908152600a6020526040902060019055565b506000908152600a6020526040902060029055565b6007546001600160a01b031633146102f45760405162461bcd60e51b815260206004820152601660248201527526bab9ba10313290383937b837b9b2b21037bbb732b960511b60448201526064015b60405180910390fd5b600680546001600160a01b0319808216339081179093556007805490911690556040516001600160a01b03909116919082907f8be0079c531659141344cd1fd0a4f28419497f9722a3daafe3b4186f6b6457e090600090a350565b61035761062f565b600061036b6002546001600160a01b031690565b6040516370a0823160e01b81523060048201529091506001600160a01b0382169063a9059cbb90339083906370a0823190602401602060405180830381865afa1580156103bc573d6000803e3d6000fd5b505050506040513d601f19601f820116820180604052508101906103e09190610da3565b6040516001600160e01b031960e085901b1681526001600160a01b03909216600483015260248201526044016020604051808303816000875af115801561042b573d6000803e3d6000fd5b505050506040513d601f19601f8201168201806040525081019061044f9190610dbc565b6104905760405162461bcd60e51b81526020600482015260126024820152712ab730b13632903a37903a3930b739b332b960711b60448201526064016102eb565b50565b61049b61062f565b61049081610684565b60008281526005602052604090205482906001600160a01b0316331461051d5760405162461bcd60e51b815260206004820152602860248201527f536f75726365206d75737420626520746865206f7261636c65206f6620746865604482015267081c995c5d595cdd60c21b60648201526084016102eb565b60008181526005602052604080822080546001600160a01b03191690555182917f7cc135e0cebb02c3480ae5d74d377283180a2601f8f644edf7987b009316c63a91a2827ff6b72b588e4eab35c81d99172a15b73bc78d2b9c9424a1490a442c131fe518d883604051610594911515815260200190565b60405180910390a26007805483158015600160a01b0260ff60a01b19909216919091179091556105d45750506000908152600a6020526040902060019055565b6000838152600a60205260409020600290555b505050565b6105f4610b08565b6105fc610b08565b61060881868686610728565b95945050505050565b60808301516106209083610765565b60808301516105e79082610765565b6006546001600160a01b031633146106825760405162461bcd60e51b815260206004820152601660248201527527b7363c9031b0b63630b1363290313c9037bbb732b960511b60448201526064016102eb565b565b336001600160a01b038216036106d65760405162461bcd60e51b815260206004820152601760248201527621b0b73737ba103a3930b739b332b9103a379039b2b63360491b60448201526064016102eb565b600780546001600160a01b0319166001600160a01b03838116918217909255600654604051919216907fed8889f560326eb138920d842192f0eb3dd22b4f139c87a2c57538e05bae127890600090a350565b610730610b08565b610740856080015161010061077c565b50509183526001600160a01b031660208301526001600160e01b031916604082015290565b61077282600383516107d4565b6105e782826108e1565b610784610b3d565b61078f602083610dd9565b156107b75761079f602083610dd9565b6107aa906020610e11565b6107b49083610e28565b91505b506020828101829052604080518085526000815290920101905290565b6017816001600160401b0316116107fe576107f88360e0600585901b168317610902565b50505050565b60ff816001600160401b03161161083a57610824836018611fe0600586901b1617610902565b506107f8836001600160401b038316600161091a565b61ffff816001600160401b03161161087757610861836019611fe0600586901b1617610902565b506107f8836001600160401b038316600261091a565b63ffffffff816001600160401b0316116108b6576108a083601a611fe0600586901b1617610902565b506107f8836001600160401b038316600461091a565b6108cb83601b611fe0600586901b1617610902565b506107f8836001600160401b038316600861091a565b6108e9610b3d565b6108fb8384600001515184855161093b565b9392505050565b61090a610b3d565b6108fb8384600001515184610a18565b610922610b3d565b610933848560000151518585610a66565b949350505050565b610943610b3d565b825182111561095157600080fd5b60208501516109608386610e28565b111561099357610993856109838760200151878661097e9190610e28565b610ada565b61098e906002610e40565b610af1565b6000808651805187602083010193508088870111156109b25787860182525b505050602084015b602084106109f257805182526109d1602083610e28565b91506109de602082610e28565b90506109eb602085610e11565b93506109ba565b51815160001960208690036101000a019081169019919091161790525083949350505050565b610a20610b3d565b83602001518310610a4057610a40848560200151600261098e9190610e40565b8351805160208583010184815350808503610a5c576001810182525b5093949350505050565b610a6e610b3d565b6020850151610a7d8584610e28565b1115610a9157610a91856109838685610e28565b60006001610aa184610100610f43565b610aab9190610e11565b9050855183868201018583198251161781525080518487011115610acf5783860181525b509495945050505050565b600081831115610aeb57508161024a565b50919050565b8151610afd838361077c565b506107f883826108e1565b6040805160a081018252600080825260208201819052918101829052606081019190915260808101610b38610b3d565b905290565b604051806040016040528060608152602001600081525090565b634e487b7160e01b600052604160045260246000fd5b600082601f830112610b7e57600080fd5b81356001600160401b0380821115610b9857610b98610b57565b604051601f8301601f19908116603f01168101908282118183101715610bc057610bc0610b57565b81604052838152866020858801011115610bd957600080fd5b836020870160208301376000602085830101528094505050505092915050565b60008060408385031215610c0c57600080fd5b82356001600160401b0380821115610c2357600080fd5b610c2f86838701610b6d565b93506020850135915080821115610c4557600080fd5b50610c5285828601610b6d565b9150509250929050565b801515811461049057600080fd5b60008060408385031215610c7d57600080fd5b823591506020830135610c8f81610c5c565b809150509250929050565b600060208284031215610cac57600080fd5b5035919050565b600060208284031215610cc557600080fd5b81356001600160a01b03811681146108fb57600080fd5b6000815160005b81811015610cfd5760208185018101518683015201610ce3565b81811115610d0c576000828601525b509290920192915050565b7f68747470733a2f2f6465696e737572616e63652e6865726f6b756170702e636f8152626d2f3f60e81b6020820152686c617469747564653d60b81b60238201526000610d67602c830185610cdc565b601360f91b8152696c6f6e6769747564653d60b01b6001820152610608600b820185610cdc565b6000610933610d9d8386610cdc565b84610cdc565b600060208284031215610db557600080fd5b5051919050565b600060208284031215610dce57600080fd5b81516108fb81610c5c565b600082610df657634e487b7160e01b600052601260045260246000fd5b500690565b634e487b7160e01b600052601160045260246000fd5b600082821015610e2357610e23610dfb565b500390565b60008219821115610e3b57610e3b610dfb565b500190565b6000816000190483118215151615610e5a57610e5a610dfb565b500290565b600181815b80851115610e9a578160001904821115610e8057610e80610dfb565b80851615610e8d57918102915b93841c9390800290610e64565b509250929050565b600082610eb15750600161024a565b81610ebe5750600061024a565b8160018114610ed45760028114610ede57610efa565b600191505061024a565b60ff841115610eef57610eef610dfb565b50506001821b61024a565b5060208310610133831016604e8410600b8410161715610f1d575081810a61024a565b610f278383610e5f565b8060001904821115610f3b57610f3b610dfb565b029392505050565b60006108fb8383610ea256fea2646970667358221220544768da22f3ca6d23732b71b2f22903c3ab572cee498e77bee0a8592ffdb11a64736f6c634300080e0033",
  "linkReferences": {},
  "deployedLinkReferences": {}
}