{
  "_format": "hh-sol-artifact-1",
  "contractName": "DeedNFT",
  "sourceName": "contracts/DeedNFT.sol",
  "abi": [
    {
      "inputs": [],
      "stateMutability": "nonpayable",
      "type": "constructor"
    },
    {
      "anonymous": false,
      "inputs": [
        {
          "indexed": true,
          "internalType": "address",
          "name": "owner",
          "type": "address"
        },
        {
          "indexed": true,
          "internalType": "address",
          "name": "approved",
          "type": "address"
        },
        {
          "indexed": true,
          "internalType": "uint256",
          "name": "tokenId",
          "type": "uint256"
        }
      ],
      "name": "Approval",
      "type": "event"
    },
    {
      "anonymous": false,
      "inputs": [
        {
          "indexed": true,
          "internalType": "address",
          "name": "owner",
          "type": "address"
        },
        {
          "indexed": true,
          "internalType": "address",
          "name": "operator",
          "type": "address"
        },
        {
          "indexed": false,
          "internalType": "bool",
          "name": "approved",
          "type": "bool"
        }
      ],
      "name": "ApprovalForAll",
      "type": "event"
    },
    {
      "anonymous": false,
      "inputs": [
        {
          "indexed": true,
          "internalType": "address",
          "name": "owner",
          "type": "address"
        },
        {
          "indexed": true,
          "internalType": "uint256",
          "name": "tokenId",
          "type": "uint256"
        },
        {
          "indexed": false,
          "internalType": "uint256",
          "name": "houseId",
          "type": "uint256"
        }
      ],
      "name": "MintDeed",
      "type": "event"
    },
    {
      "anonymous": false,
      "inputs": [
        {
          "indexed": true,
          "internalType": "bytes32",
          "name": "role",
          "type": "bytes32"
        },
        {
          "indexed": true,
          "internalType": "bytes32",
          "name": "previousAdminRole",
          "type": "bytes32"
        },
        {
          "indexed": true,
          "internalType": "bytes32",
          "name": "newAdminRole",
          "type": "bytes32"
        }
      ],
      "name": "RoleAdminChanged",
      "type": "event"
    },
    {
      "anonymous": false,
      "inputs": [
        {
          "indexed": true,
          "internalType": "bytes32",
          "name": "role",
          "type": "bytes32"
        },
        {
          "indexed": true,
          "internalType": "address",
          "name": "account",
          "type": "address"
        },
        {
          "indexed": true,
          "internalType": "address",
          "name": "sender",
          "type": "address"
        }
      ],
      "name": "RoleGranted",
      "type": "event"
    },
    {
      "anonymous": false,
      "inputs": [
        {
          "indexed": true,
          "internalType": "bytes32",
          "name": "role",
          "type": "bytes32"
        },
        {
          "indexed": true,
          "internalType": "address",
          "name": "account",
          "type": "address"
        },
        {
          "indexed": true,
          "internalType": "address",
          "name": "sender",
          "type": "address"
        }
      ],
      "name": "RoleRevoked",
      "type": "event"
    },
    {
      "anonymous": false,
      "inputs": [
        {
          "indexed": true,
          "internalType": "address",
          "name": "from",
          "type": "address"
        },
        {
          "indexed": true,
          "internalType": "address",
          "name": "to",
          "type": "address"
        },
        {
          "indexed": true,
          "internalType": "uint256",
          "name": "tokenId",
          "type": "uint256"
        }
      ],
      "name": "Transfer",
      "type": "event"
    },
    {
      "anonymous": false,
      "inputs": [
        {
          "indexed": true,
          "internalType": "address",
          "name": "from",
          "type": "address"
        },
        {
          "indexed": true,
          "internalType": "address",
          "name": "to",
          "type": "address"
        },
        {
          "indexed": true,
          "internalType": "uint256",
          "name": "tokenId",
          "type": "uint256"
        }
      ],
      "name": "TransferDeed",
      "type": "event"
    },
    {
      "inputs": [],
      "name": "ADMIN_ROLE",
      "outputs": [
        {
          "internalType": "bytes32",
          "name": "",
          "type": "bytes32"
        }
      ],
      "stateMutability": "view",
      "type": "function"
    },
    {
      "inputs": [],
      "name": "DEFAULT_ADMIN_ROLE",
      "outputs": [
        {
          "internalType": "bytes32",
          "name": "",
          "type": "bytes32"
        }
      ],
      "stateMutability": "view",
      "type": "function"
    },
    {
      "inputs": [],
      "name": "MINTER_ROLE",
      "outputs": [
        {
          "internalType": "bytes32",
          "name": "",
          "type": "bytes32"
        }
      ],
      "stateMutability": "view",
      "type": "function"
    },
    {
      "inputs": [],
      "name": "TRANSFER_ROLE",
      "outputs": [
        {
          "internalType": "bytes32",
          "name": "",
          "type": "bytes32"
        }
      ],
      "stateMutability": "view",
      "type": "function"
    },
    {
      "inputs": [
        {
          "internalType": "address",
          "name": "to",
          "type": "address"
        },
        {
          "internalType": "uint256",
          "name": "tokenId",
          "type": "uint256"
        }
      ],
      "name": "approve",
      "outputs": [],
      "stateMutability": "nonpayable",
      "type": "function"
    },
    {
      "inputs": [
        {
          "internalType": "address",
          "name": "owner",
          "type": "address"
        }
      ],
      "name": "balanceOf",
      "outputs": [
        {
          "internalType": "uint256",
          "name": "",
          "type": "uint256"
        }
      ],
      "stateMutability": "view",
      "type": "function"
    },
    {
      "inputs": [
        {
          "internalType": "uint256",
          "name": "tokenId",
          "type": "uint256"
        }
      ],
      "name": "getApproved",
      "outputs": [
        {
          "internalType": "address",
          "name": "",
          "type": "address"
        }
      ],
      "stateMutability": "view",
      "type": "function"
    },
    {
      "inputs": [
        {
          "internalType": "uint256",
          "name": "houseId",
          "type": "uint256"
        }
      ],
      "name": "getLatitude",
      "outputs": [
        {
          "internalType": "int256",
          "name": "",
          "type": "int256"
        }
      ],
      "stateMutability": "view",
      "type": "function"
    },
    {
      "inputs": [
        {
          "internalType": "uint256",
          "name": "houseId",
          "type": "uint256"
        }
      ],
      "name": "getLongitude",
      "outputs": [
        {
          "internalType": "int256",
          "name": "",
          "type": "int256"
        }
      ],
      "stateMutability": "view",
      "type": "function"
    },
    {
      "inputs": [
        {
          "internalType": "uint256",
          "name": "tokenId_",
          "type": "uint256"
        }
      ],
      "name": "getMetadata",
      "outputs": [
        {
          "components": [
            {
              "internalType": "uint256",
              "name": "houseId",
              "type": "uint256"
            },
            {
              "internalType": "uint256",
              "name": "marketValue",
              "type": "uint256"
            },
            {
              "internalType": "uint8",
              "name": "riskScore",
              "type": "uint8"
            },
            {
              "internalType": "uint256",
              "name": "zipCode",
              "type": "uint256"
            },
            {
              "internalType": "int256",
              "name": "latitude",
              "type": "int256"
            },
            {
              "internalType": "int256",
              "name": "longitude",
              "type": "int256"
            }
          ],
          "internalType": "struct DeedNFT.Metadata",
          "name": "",
          "type": "tuple"
        }
      ],
      "stateMutability": "view",
      "type": "function"
    },
    {
      "inputs": [
        {
          "internalType": "uint256",
          "name": "tokenId",
          "type": "uint256"
        }
      ],
      "name": "getPrice",
      "outputs": [
        {
          "internalType": "uint256",
          "name": "",
          "type": "uint256"
        }
      ],
      "stateMutability": "view",
      "type": "function"
    },
    {
      "inputs": [
        {
          "internalType": "uint256",
          "name": "tokenId",
          "type": "uint256"
        }
      ],
      "name": "getRisk",
      "outputs": [
        {
          "internalType": "uint8",
          "name": "",
          "type": "uint8"
        }
      ],
      "stateMutability": "view",
      "type": "function"
    },
    {
      "inputs": [
        {
          "internalType": "bytes32",
          "name": "role",
          "type": "bytes32"
        }
      ],
      "name": "getRoleAdmin",
      "outputs": [
        {
          "internalType": "bytes32",
          "name": "",
          "type": "bytes32"
        }
      ],
      "stateMutability": "view",
      "type": "function"
    },
    {
      "inputs": [
        {
          "internalType": "uint256",
          "name": "tokenId",
          "type": "uint256"
        }
      ],
      "name": "getZipcode",
      "outputs": [
        {
          "internalType": "uint256",
          "name": "",
          "type": "uint256"
        }
      ],
      "stateMutability": "view",
      "type": "function"
    },
    {
      "inputs": [
        {
          "internalType": "bytes32",
          "name": "role",
          "type": "bytes32"
        },
        {
          "internalType": "address",
          "name": "account",
          "type": "address"
        }
      ],
      "name": "grantRole",
      "outputs": [],
      "stateMutability": "nonpayable",
      "type": "function"
    },
    {
      "inputs": [
        {
          "internalType": "bytes32",
          "name": "role",
          "type": "bytes32"
        },
        {
          "internalType": "address",
          "name": "account",
          "type": "address"
        }
      ],
      "name": "hasRole",
      "outputs": [
        {
          "internalType": "bool",
          "name": "",
          "type": "bool"
        }
      ],
      "stateMutability": "view",
      "type": "function"
    },
    {
      "inputs": [
        {
          "internalType": "uint256",
          "name": "",
          "type": "uint256"
        }
      ],
      "name": "houseIdToTokenId",
      "outputs": [
        {
          "internalType": "uint256",
          "name": "",
          "type": "uint256"
        }
      ],
      "stateMutability": "view",
      "type": "function"
    },
    {
      "inputs": [
        {
          "internalType": "address",
          "name": "owner",
          "type": "address"
        },
        {
          "internalType": "address",
          "name": "operator",
          "type": "address"
        }
      ],
      "name": "isApprovedForAll",
      "outputs": [
        {
          "internalType": "bool",
          "name": "",
          "type": "bool"
        }
      ],
      "stateMutability": "view",
      "type": "function"
    },
    {
      "inputs": [
        {
          "internalType": "uint256",
          "name": "",
          "type": "uint256"
        }
      ],
      "name": "metadata",
      "outputs": [
        {
          "internalType": "uint256",
          "name": "houseId",
          "type": "uint256"
        },
        {
          "internalType": "uint256",
          "name": "marketValue",
          "type": "uint256"
        },
        {
          "internalType": "uint8",
          "name": "riskScore",
          "type": "uint8"
        },
        {
          "internalType": "uint256",
          "name": "zipCode",
          "type": "uint256"
        },
        {
          "internalType": "int256",
          "name": "latitude",
          "type": "int256"
        },
        {
          "internalType": "int256",
          "name": "longitude",
          "type": "int256"
        }
      ],
      "stateMutability": "view",
      "type": "function"
    },
    {
      "inputs": [],
      "name": "name",
      "outputs": [
        {
          "internalType": "string",
          "name": "",
          "type": "string"
        }
      ],
      "stateMutability": "view",
      "type": "function"
    },
    {
      "inputs": [
        {
          "internalType": "uint256",
          "name": "tokenId",
          "type": "uint256"
        }
      ],
      "name": "ownerOf",
      "outputs": [
        {
          "internalType": "address",
          "name": "",
          "type": "address"
        }
      ],
      "stateMutability": "view",
      "type": "function"
    },
    {
      "inputs": [
        {
          "internalType": "uint256",
          "name": "tokenId",
          "type": "uint256"
        }
      ],
      "name": "ownerOfHouse",
      "outputs": [
        {
          "internalType": "address",
          "name": "",
          "type": "address"
        }
      ],
      "stateMutability": "view",
      "type": "function"
    },
    {
      "inputs": [
        {
          "internalType": "bytes32",
          "name": "hash",
          "type": "bytes32"
        },
        {
          "internalType": "bytes",
          "name": "sig",
          "type": "bytes"
        }
      ],
      "name": "recover",
      "outputs": [
        {
          "internalType": "address",
          "name": "",
          "type": "address"
        }
      ],
      "stateMutability": "pure",
      "type": "function"
    },
    {
      "inputs": [
        {
          "internalType": "bytes32",
          "name": "role",
          "type": "bytes32"
        },
        {
          "internalType": "address",
          "name": "account",
          "type": "address"
        }
      ],
      "name": "renounceRole",
      "outputs": [],
      "stateMutability": "nonpayable",
      "type": "function"
    },
    {
      "inputs": [
        {
          "internalType": "bytes32",
          "name": "role",
          "type": "bytes32"
        },
        {
          "internalType": "address",
          "name": "account",
          "type": "address"
        }
      ],
      "name": "revokeRole",
      "outputs": [],
      "stateMutability": "nonpayable",
      "type": "function"
    },
    {
      "inputs": [
        {
          "internalType": "address",
          "name": "to",
          "type": "address"
        },
        {
          "internalType": "uint256",
          "name": "houseId",
          "type": "uint256"
        },
        {
          "internalType": "uint256",
          "name": "marketValue",
          "type": "uint256"
        },
        {
          "internalType": "uint8",
          "name": "riskScore",
          "type": "uint8"
        },
        {
          "internalType": "uint256",
          "name": "zipCode",
          "type": "uint256"
        },
        {
          "internalType": "int256",
          "name": "latitude",
          "type": "int256"
        },
        {
          "internalType": "int256",
          "name": "longitude",
          "type": "int256"
        }
      ],
      "name": "safeMint",
      "outputs": [],
      "stateMutability": "nonpayable",
      "type": "function"
    },
    {
      "inputs": [
        {
          "internalType": "address",
          "name": "from",
          "type": "address"
        },
        {
          "internalType": "address",
          "name": "to",
          "type": "address"
        },
        {
          "internalType": "uint256",
          "name": "tokenId",
          "type": "uint256"
        }
      ],
      "name": "safeTransferFrom",
      "outputs": [],
      "stateMutability": "nonpayable",
      "type": "function"
    },
    {
      "inputs": [
        {
          "internalType": "address",
          "name": "from",
          "type": "address"
        },
        {
          "internalType": "address",
          "name": "to",
          "type": "address"
        },
        {
          "internalType": "uint256",
          "name": "tokenId",
          "type": "uint256"
        },
        {
          "internalType": "bytes",
          "name": "_data",
          "type": "bytes"
        }
      ],
      "name": "safeTransferFrom",
      "outputs": [],
      "stateMutability": "nonpayable",
      "type": "function"
    },
    {
      "inputs": [
        {
          "internalType": "address",
          "name": "operator",
          "type": "address"
        },
        {
          "internalType": "bool",
          "name": "approved",
          "type": "bool"
        }
      ],
      "name": "setApprovalForAll",
      "outputs": [],
      "stateMutability": "nonpayable",
      "type": "function"
    },
    {
      "inputs": [
        {
          "internalType": "uint256",
          "name": "tokenId_",
          "type": "uint256"
        },
        {
          "internalType": "uint256",
          "name": "marketValue",
          "type": "uint256"
        },
        {
          "internalType": "uint8",
          "name": "riskScore",
          "type": "uint8"
        }
      ],
      "name": "setMetadata",
      "outputs": [],
      "stateMutability": "nonpayable",
      "type": "function"
    },
    {
      "inputs": [
        {
          "internalType": "bytes4",
          "name": "interfaceId",
          "type": "bytes4"
        }
      ],
      "name": "supportsInterface",
      "outputs": [
        {
          "internalType": "bool",
          "name": "",
          "type": "bool"
        }
      ],
      "stateMutability": "view",
      "type": "function"
    },
    {
      "inputs": [],
      "name": "symbol",
      "outputs": [
        {
          "internalType": "string",
          "name": "",
          "type": "string"
        }
      ],
      "stateMutability": "view",
      "type": "function"
    },
    {
      "inputs": [
        {
          "internalType": "uint256",
          "name": "index",
          "type": "uint256"
        }
      ],
      "name": "tokenByIndex",
      "outputs": [
        {
          "internalType": "uint256",
          "name": "",
          "type": "uint256"
        }
      ],
      "stateMutability": "view",
      "type": "function"
    },
    {
      "inputs": [
        {
          "internalType": "uint256",
          "name": "tokenId",
          "type": "uint256"
        }
      ],
      "name": "tokenIdByHouseId",
      "outputs": [
        {
          "internalType": "uint256",
          "name": "",
          "type": "uint256"
        }
      ],
      "stateMutability": "view",
      "type": "function"
    },
    {
      "inputs": [
        {
          "internalType": "address",
          "name": "addressToQuery",
          "type": "address"
        }
      ],
      "name": "tokenIdsByAddress",
      "outputs": [
        {
          "internalType": "uint256[]",
          "name": "",
          "type": "uint256[]"
        }
      ],
      "stateMutability": "view",
      "type": "function"
    },
    {
      "inputs": [
        {
          "internalType": "address",
          "name": "owner",
          "type": "address"
        },
        {
          "internalType": "uint256",
          "name": "index",
          "type": "uint256"
        }
      ],
      "name": "tokenOfOwnerByIndex",
      "outputs": [
        {
          "internalType": "uint256",
          "name": "",
          "type": "uint256"
        }
      ],
      "stateMutability": "view",
      "type": "function"
    },
    {
      "inputs": [
        {
          "internalType": "uint256",
          "name": "tokenId",
          "type": "uint256"
        }
      ],
      "name": "tokenURI",
      "outputs": [
        {
          "internalType": "string",
          "name": "",
          "type": "string"
        }
      ],
      "stateMutability": "view",
      "type": "function"
    },
    {
      "inputs": [],
      "name": "totalSupply",
      "outputs": [
        {
          "internalType": "uint256",
          "name": "",
          "type": "uint256"
        }
      ],
      "stateMutability": "view",
      "type": "function"
    },
    {
      "inputs": [
        {
          "internalType": "uint256",
          "name": "tokenId",
          "type": "uint256"
        },
        {
          "internalType": "address",
          "name": "from_",
          "type": "address"
        },
        {
          "internalType": "address",
          "name": "to_",
          "type": "address"
        },
        {
          "internalType": "bytes",
          "name": "sigOfSender",
          "type": "bytes"
        },
        {
          "internalType": "bytes",
          "name": "sigOfReceiver",
          "type": "bytes"
        }
      ],
      "name": "transferDeed",
      "outputs": [],
      "stateMutability": "nonpayable",
      "type": "function"
    },
    {
      "inputs": [
        {
          "internalType": "address",
          "name": "from",
          "type": "address"
        },
        {
          "internalType": "address",
          "name": "to",
          "type": "address"
        },
        {
          "internalType": "uint256",
          "name": "tokenId",
          "type": "uint256"
        }
      ],
      "name": "transferFrom",
      "outputs": [],
      "stateMutability": "nonpayable",
      "type": "function"
    }
  ],
  "bytecode": "0x60806040523480156200001157600080fd5b5060408051808201825260078152661119595913919560ca1b6020808301918252835180850190945260048452631113919560e21b9084015281519192916200005d91600091620001a8565b50805162000073906001906020840190620001a8565b506200008591506000905033620000fa565b620000b17f8502233096d909befbda0999bb8ea2f3a6be3c138b9fbf003752a4c8bce86f6c33620000fa565b620000dd7f9f2df0fed2c77648de5860a4cc508cd0818c85b8b8a1ab4ceeef8d981c8956a633620000fa565b620000f4600b6200019f60201b620012a91760201c565b6200028a565b6000828152600a602090815260408083206001600160a01b038516845290915290205460ff166200019b576000828152600a602090815260408083206001600160a01b03851684529091529020805460ff191660011790556200015a3390565b6001600160a01b0316816001600160a01b0316837f2f8788117e7eff1d82e926ec794901d17c78024a50270940304540a733656f0d60405160405180910390a45b5050565b80546001019055565b828054620001b6906200024e565b90600052602060002090601f016020900481019282620001da576000855562000225565b82601f10620001f557805160ff191683800117855562000225565b8280016001018555821562000225579182015b828111156200022557825182559160200191906001019062000208565b506200023392915062000237565b5090565b5b8082111562000233576000815560010162000238565b600181811c908216806200026357607f821691505b6020821081036200028457634e487b7160e01b600052602260045260246000fd5b50919050565b6127ef806200029a6000396000f3fe608060405234801561001057600080fd5b50600436106102485760003560e01c806375b238fc1161013b578063c87b56dd116100b8578063e3684e391161007c578063e3684e3914610614578063e56ca8df14610690578063e7572230146106b0578063e985e9c5146106d3578063f5720037146106e657600080fd5b8063c87b56dd1461057c578063d20ccb2c1461058f578063d5391393146105a2578063d547741f146105c9578063e2fb4e77146105dc57600080fd5b8063a22cb465116100ff578063a22cb465146104b1578063a574cea4146104c4578063b182941214610526578063b88d4fde14610556578063b94ffff41461056957600080fd5b806375b238fc1461043757806391d148541461045e57806395c14c651461047157806395d89b41146104a1578063a217fddf146104a957600080fd5b80632f2ff15d116101c957806352e716671161018d57806352e71667146103be57806359d81400146103de5780635e72fd76146103fe5780636352211e1461041157806370a082311461042457600080fd5b80632f2ff15d1461035f5780632f745c591461037257806336568abe1461038557806342842e0e146103985780634f6ccce7146103ab57600080fd5b806318160ddd1161021057806318160ddd146102dd57806319045a25146102ef578063206b60f91461030257806323b872dd14610329578063248a9ca31461033c57600080fd5b806301ffc9a71461024d57806306fdde0314610275578063081812fc1461028a578063095ea7b3146102b55780630fd4457c146102ca575b600080fd5b61026061025b366004612029565b610709565b60405190151581526020015b60405180910390f35b61027d61071a565b60405161026c919061209e565b61029d6102983660046120b1565b6107ac565b6040516001600160a01b03909116815260200161026c565b6102c86102c33660046120e6565b610839565b005b6102c86102d8366004612121565b610949565b6008545b60405190815260200161026c565b61029d6102fd366004612224565b610a5f565b6102e17f8502233096d909befbda0999bb8ea2f3a6be3c138b9fbf003752a4c8bce86f6c81565b6102c861033736600461226a565b610b37565b6102e161034a3660046120b1565b6000908152600a602052604090206001015490565b6102c861036d3660046122a6565b610b68565b6102e16103803660046120e6565b610b8d565b6102c86103933660046122a6565b610c23565b6102c86103a636600461226a565b610ca1565b6102e16103b93660046120b1565b610cbc565b6103d16103cc3660046122d2565b610d4f565b60405161026c91906122ed565b6102e16103ec3660046120b1565b600d6020526000908152604090205481565b61029d61040c3660046120b1565b610df0565b61029d61041f3660046120b1565b610df7565b6102e16104323660046122d2565b610e6e565b6102e17fa49807205ce4d355092ef5a8a18f56e8913cf4a201fbe287825b095693c2177581565b61026061046c3660046122a6565b610ef5565b6102e161047f3660046120b1565b6000908152600d60209081526040808320548352600c90915290206004015490565b61027d610f20565b6102e1600081565b6102c86104bf366004612331565b610f2f565b6104d76104d23660046120b1565b610f3a565b60405161026c9190600060c082019050825182526020830151602083015260ff6040840151166040830152606083015160608301526080830151608083015260a083015160a083015292915050565b6102e16105343660046120b1565b6000908152600d60209081526040808320548352600c90915290206005015490565b6102c861056436600461236d565b610fd2565b6102c86105773660046123d4565b61100a565b61027d61058a3660046120b1565b611062565b6102c861059d366004612409565b61113a565b6102e17f9f2df0fed2c77648de5860a4cc508cd0818c85b8b8a1ab4ceeef8d981c8956a681565b6102c86105d73660046122a6565b611256565b6106026105ea3660046120b1565b6000908152600c602052604090206002015460ff1690565b60405160ff909116815260200161026c565b61065b6106223660046120b1565b600c602052600090815260409020805460018201546002830154600384015460048501546005909501549394929360ff90921692909186565b60408051968752602087019590955260ff909316938501939093526060840152608083019190915260a082015260c00161026c565b6102e161069e3660046120b1565b6000908152600d602052604090205490565b6102e16106be3660046120b1565b6000908152600c602052604090206001015490565b6102606106e1366004612497565b61127b565b6102e16106f43660046120b1565b6000908152600c602052604090206003015490565b6000610714826112b2565b92915050565b606060008054610729906124c1565b80601f0160208091040260200160405190810160405280929190818152602001828054610755906124c1565b80156107a25780601f10610777576101008083540402835291602001916107a2565b820191906000526020600020905b81548152906001019060200180831161078557829003601f168201915b5050505050905090565b60006107b7826112d7565b61081d5760405162461bcd60e51b815260206004820152602c60248201527f4552433732313a20617070726f76656420717565727920666f72206e6f6e657860448201526b34b9ba32b73a103a37b5b2b760a11b60648201526084015b60405180910390fd5b506000908152600460205260409020546001600160a01b031690565b600061084482610df7565b9050806001600160a01b0316836001600160a01b0316036108b15760405162461bcd60e51b815260206004820152602160248201527f4552433732313a20617070726f76616c20746f2063757272656e74206f776e656044820152603960f91b6064820152608401610814565b336001600160a01b03821614806108cd57506108cd813361127b565b61093a5760405162461bcd60e51b815260206004820152603860248201527f4552433732313a20617070726f76652063616c6c6572206973206e6f74206f776044820152771b995c881b9bdc88185c1c1c9bdd995908199bdc88185b1b60421b6064820152608401610814565b61094483836112f4565b505050565b7f9f2df0fed2c77648de5860a4cc508cd0818c85b8b8a1ab4ceeef8d981c8956a661097381611362565b600061097e600b5490565b905061098a898261136f565b6000888152600d60209081526040808320849055805160c0810182528b81528083018b815260ff808c16838501908152606084018c8152608085018c815260a086018c81528a8a52600c90985295909720935184559151600184015590516002830180549190921660ff199091161790559251600384015551600483015551600590910155610a1d600b80546001019055565b604051888152819033907f11762bd5307094b5ff69df55f5a80a349c53a63d33ae46d46ba5bb6d43a6e1189060200160405180910390a3505050505050505050565b6000806000808451604114610a7a5760009350505050610714565b50505060208201516040830151606084015160001a601b811015610aa657610aa3601b82612511565b90505b8060ff16601b14158015610abe57508060ff16601c14155b15610acf5760009350505050610714565b60408051600081526020810180835288905260ff831691810191909152606081018490526080810183905260019060a0016020604051602081039080840390855afa158015610b22573d6000803e3d6000fd5b5050604051601f190151979650505050505050565b610b413382611389565b610b5d5760405162461bcd60e51b815260040161081490612536565b610944838383611453565b6000828152600a6020526040902060010154610b8381611362565b61094483836115fa565b6000610b9883610e6e565b8210610bfa5760405162461bcd60e51b815260206004820152602b60248201527f455243373231456e756d657261626c653a206f776e657220696e646578206f7560448201526a74206f6620626f756e647360a81b6064820152608401610814565b506001600160a01b03919091166000908152600660209081526040808320938352929052205490565b6001600160a01b0381163314610c935760405162461bcd60e51b815260206004820152602f60248201527f416363657373436f6e74726f6c3a2063616e206f6e6c792072656e6f756e636560448201526e103937b632b9903337b91039b2b63360891b6064820152608401610814565b610c9d8282611680565b5050565b61094483838360405180602001604052806000815250610fd2565b6000610cc760085490565b8210610d2a5760405162461bcd60e51b815260206004820152602c60248201527f455243373231456e756d657261626c653a20676c6f62616c20696e646578206f60448201526b7574206f6620626f756e647360a01b6064820152608401610814565b60088281548110610d3d57610d3d612587565b90600052602060002001549050919050565b60606000610d5c83610e6e565b90506000816001600160401b03811115610d7857610d78612182565b604051908082528060200260200182016040528015610da1578160200160208202803683370190505b50905060005b82811015610de857610db98582610b8d565b828281518110610dcb57610dcb612587565b602090810291909101015280610de08161259d565b915050610da7565b509392505050565b6000610714825b6000818152600260205260408120546001600160a01b0316806107145760405162461bcd60e51b815260206004820152602960248201527f4552433732313a206f776e657220717565727920666f72206e6f6e657869737460448201526832b73a103a37b5b2b760b91b6064820152608401610814565b60006001600160a01b038216610ed95760405162461bcd60e51b815260206004820152602a60248201527f4552433732313a2062616c616e636520717565727920666f7220746865207a65604482015269726f206164647265737360b01b6064820152608401610814565b506001600160a01b031660009081526003602052604090205490565b6000918252600a602090815260408084206001600160a01b0393909316845291905290205460ff1690565b606060018054610729906124c1565b610c9d3383836116e7565b610f766040518060c001604052806000815260200160008152602001600060ff1681526020016000815260200160008152602001600081525090565b506000908152600c6020908152604091829020825160c08101845281548152600182015492810192909252600281015460ff1692820192909252600382015460608201526004820154608082015260059091015460a082015290565b610fdc3383611389565b610ff85760405162461bcd60e51b815260040161081490612536565b611004848484846117b1565b50505050565b7fa49807205ce4d355092ef5a8a18f56e8913cf4a201fbe287825b095693c2177561103481611362565b506000928352600c60205260409092206001810191909155600201805460ff191660ff909216919091179055565b606061106d826112d7565b6110d15760405162461bcd60e51b815260206004820152602f60248201527f4552433732314d657461646174613a2055524920717565727920666f72206e6f60448201526e3732bc34b9ba32b73a103a37b5b2b760891b6064820152608401610814565b60006110e860408051602081019091526000815290565b905060008151116111085760405180602001604052806000815250611133565b80611112846117e4565b6040516020016111239291906125b6565b6040516020818303038152906040525b9392505050565b7f8502233096d909befbda0999bb8ea2f3a6be3c138b9fbf003752a4c8bce86f6c61116481611362565b6111968660405160200161117a91815260200190565b6040516020818303038152906040528051906020012084610a5f565b6001600160a01b0316856001600160a01b0316146111b357600080fd5b6111e5866040516020016111c991815260200190565b6040516020818303038152906040528051906020012083610a5f565b6001600160a01b0316846001600160a01b03161461120257600080fd5b61120d858588611453565b85846001600160a01b0316866001600160a01b03167f45ed27947b0ab4978c0a2ebe50152fa3dd6a5ccc619a17a1dd2649512db0399360405160405180910390a4505050505050565b6000828152600a602052604090206001015461127181611362565b6109448383611680565b6001600160a01b03918216600090815260056020908152604080832093909416825291909152205460ff1690565b80546001019055565b60006001600160e01b03198216637965db0b60e01b14806107145750610714826118e4565b6000908152600260205260409020546001600160a01b0316151590565b600081815260046020526040902080546001600160a01b0319166001600160a01b038416908117909155819061132982610df7565b6001600160a01b03167f8c5be1e5ebec7d5bd14f71427d1e84f3dd0314c0f7b2291e5b200ac8c7c3b92560405160405180910390a45050565b61136c8133611909565b50565b610c9d82826040518060200160405280600081525061196d565b6000611394826112d7565b6113f55760405162461bcd60e51b815260206004820152602c60248201527f4552433732313a206f70657261746f7220717565727920666f72206e6f6e657860448201526b34b9ba32b73a103a37b5b2b760a11b6064820152608401610814565b600061140083610df7565b9050806001600160a01b0316846001600160a01b031614806114275750611427818561127b565b8061144b5750836001600160a01b0316611440846107ac565b6001600160a01b0316145b949350505050565b826001600160a01b031661146682610df7565b6001600160a01b0316146114ca5760405162461bcd60e51b815260206004820152602560248201527f4552433732313a207472616e736665722066726f6d20696e636f72726563742060448201526437bbb732b960d91b6064820152608401610814565b6001600160a01b03821661152c5760405162461bcd60e51b8152602060048201526024808201527f4552433732313a207472616e7366657220746f20746865207a65726f206164646044820152637265737360e01b6064820152608401610814565b6115378383836119a0565b6115426000826112f4565b6001600160a01b038316600090815260036020526040812080546001929061156b9084906125e5565b90915550506001600160a01b03821660009081526003602052604081208054600192906115999084906125fc565b909155505060008181526002602052604080822080546001600160a01b0319166001600160a01b0386811691821790925591518493918716917fddf252ad1be2c89b69c2b068fc378daa952ba7f163c4a11628f55a4df523b3ef91a4505050565b6116048282610ef5565b610c9d576000828152600a602090815260408083206001600160a01b03851684529091529020805460ff1916600117905561163c3390565b6001600160a01b0316816001600160a01b0316837f2f8788117e7eff1d82e926ec794901d17c78024a50270940304540a733656f0d60405160405180910390a45050565b61168a8282610ef5565b15610c9d576000828152600a602090815260408083206001600160a01b0385168085529252808320805460ff1916905551339285917ff6391f5c32d9c69d2a47ea670b442974b53935d1edc7fd64eb21e047a839171b9190a45050565b816001600160a01b0316836001600160a01b0316036117445760405162461bcd60e51b815260206004820152601960248201527822a9219b99189d1030b8383937bb32903a379031b0b63632b960391b6044820152606401610814565b6001600160a01b03838116600081815260056020908152604080832094871680845294825291829020805460ff191686151590811790915591519182527f17307eab39ab6107e8899845ad3d59bd9653f200f220920489ca2b5937696c31910160405180910390a3505050565b6117bc848484611453565b6117c884848484611a58565b6110045760405162461bcd60e51b815260040161081490612614565b60608160000361180b5750506040805180820190915260018152600360fc1b602082015290565b8160005b8115611835578061181f8161259d565b915061182e9050600a8361267c565b915061180f565b6000816001600160401b0381111561184f5761184f612182565b6040519080825280601f01601f191660200182016040528015611879576020820181803683370190505b5090505b841561144b5761188e6001836125e5565b915061189b600a86612690565b6118a69060306125fc565b60f81b8183815181106118bb576118bb612587565b60200101906001600160f81b031916908160001a9053506118dd600a8661267c565b945061187d565b60006001600160e01b0319821663780e9d6360e01b1480610714575061071482611b59565b6119138282610ef5565b610c9d5761192b816001600160a01b03166014611ba9565b611936836020611ba9565b6040516020016119479291906126a4565b60408051601f198184030181529082905262461bcd60e51b82526108149160040161209e565b6119778383611d44565b6119846000848484611a58565b6109445760405162461bcd60e51b815260040161081490612614565b6001600160a01b0383166119fb576119f681600880546000838152600960205260408120829055600182018355919091527ff3f7a9fe364faab93b216da50a3214154f22a0a2b415b23a84c8169e8b636ee30155565b611a1e565b816001600160a01b0316836001600160a01b031614611a1e57611a1e8382611e83565b6001600160a01b038216611a355761094481611f20565b826001600160a01b0316826001600160a01b031614610944576109448282611fcf565b60006001600160a01b0384163b15611b4e57604051630a85bd0160e11b81526001600160a01b0385169063150b7a0290611a9c903390899088908890600401612713565b6020604051808303816000875af1925050508015611ad7575060408051601f3d908101601f19168201909252611ad491810190612750565b60015b611b34573d808015611b05576040519150601f19603f3d011682016040523d82523d6000602084013e611b0a565b606091505b508051600003611b2c5760405162461bcd60e51b815260040161081490612614565b805181602001fd5b6001600160e01b031916630a85bd0160e11b14905061144b565b506001949350505050565b60006001600160e01b031982166380ac58cd60e01b1480611b8a57506001600160e01b03198216635b5e139f60e01b145b8061071457506301ffc9a760e01b6001600160e01b0319831614610714565b60606000611bb883600261276d565b611bc39060026125fc565b6001600160401b03811115611bda57611bda612182565b6040519080825280601f01601f191660200182016040528015611c04576020820181803683370190505b509050600360fc1b81600081518110611c1f57611c1f612587565b60200101906001600160f81b031916908160001a905350600f60fb1b81600181518110611c4e57611c4e612587565b60200101906001600160f81b031916908160001a9053506000611c7284600261276d565b611c7d9060016125fc565b90505b6001811115611cf5576f181899199a1a9b1b9c1cb0b131b232b360811b85600f1660108110611cb157611cb1612587565b1a60f81b828281518110611cc757611cc7612587565b60200101906001600160f81b031916908160001a90535060049490941c93611cee8161278c565b9050611c80565b5083156111335760405162461bcd60e51b815260206004820181905260248201527f537472696e67733a20686578206c656e67746820696e73756666696369656e746044820152606401610814565b6001600160a01b038216611d9a5760405162461bcd60e51b815260206004820181905260248201527f4552433732313a206d696e7420746f20746865207a65726f20616464726573736044820152606401610814565b611da3816112d7565b15611df05760405162461bcd60e51b815260206004820152601c60248201527f4552433732313a20746f6b656e20616c7265616479206d696e746564000000006044820152606401610814565b611dfc600083836119a0565b6001600160a01b0382166000908152600360205260408120805460019290611e259084906125fc565b909155505060008181526002602052604080822080546001600160a01b0319166001600160a01b03861690811790915590518392907fddf252ad1be2c89b69c2b068fc378daa952ba7f163c4a11628f55a4df523b3ef908290a45050565b60006001611e9084610e6e565b611e9a91906125e5565b600083815260076020526040902054909150808214611eed576001600160a01b03841660009081526006602090815260408083208584528252808320548484528184208190558352600790915290208190555b5060009182526007602090815260408084208490556001600160a01b039094168352600681528383209183525290812055565b600854600090611f32906001906125e5565b60008381526009602052604081205460088054939450909284908110611f5a57611f5a612587565b906000526020600020015490508060088381548110611f7b57611f7b612587565b6000918252602080832090910192909255828152600990915260408082208490558582528120556008805480611fb357611fb36127a3565b6001900381819060005260206000200160009055905550505050565b6000611fda83610e6e565b6001600160a01b039093166000908152600660209081526040808320868452825280832085905593825260079052919091209190915550565b6001600160e01b03198116811461136c57600080fd5b60006020828403121561203b57600080fd5b813561113381612013565b60005b83811015612061578181015183820152602001612049565b838111156110045750506000910152565b6000815180845261208a816020860160208601612046565b601f01601f19169290920160200192915050565b6020815260006111336020830184612072565b6000602082840312156120c357600080fd5b5035919050565b80356001600160a01b03811681146120e157600080fd5b919050565b600080604083850312156120f957600080fd5b612102836120ca565b946020939093013593505050565b803560ff811681146120e157600080fd5b600080600080600080600060e0888a03121561213c57600080fd5b612145886120ca565b9650602088013595506040880135945061216160608901612110565b9699959850939660808101359560a0820135955060c0909101359350915050565b634e487b7160e01b600052604160045260246000fd5b600082601f8301126121a957600080fd5b81356001600160401b03808211156121c3576121c3612182565b604051601f8301601f19908116603f011681019082821181831017156121eb576121eb612182565b8160405283815286602085880101111561220457600080fd5b836020870160208301376000602085830101528094505050505092915050565b6000806040838503121561223757600080fd5b8235915060208301356001600160401b0381111561225457600080fd5b61226085828601612198565b9150509250929050565b60008060006060848603121561227f57600080fd5b612288846120ca565b9250612296602085016120ca565b9150604084013590509250925092565b600080604083850312156122b957600080fd5b823591506122c9602084016120ca565b90509250929050565b6000602082840312156122e457600080fd5b611133826120ca565b6020808252825182820181905260009190848201906040850190845b8181101561232557835183529284019291840191600101612309565b50909695505050505050565b6000806040838503121561234457600080fd5b61234d836120ca565b91506020830135801515811461236257600080fd5b809150509250929050565b6000806000806080858703121561238357600080fd5b61238c856120ca565b935061239a602086016120ca565b92506040850135915060608501356001600160401b038111156123bc57600080fd5b6123c887828801612198565b91505092959194509250565b6000806000606084860312156123e957600080fd5b833592506020840135915061240060408501612110565b90509250925092565b600080600080600060a0868803121561242157600080fd5b85359450612431602087016120ca565b935061243f604087016120ca565b925060608601356001600160401b038082111561245b57600080fd5b61246789838a01612198565b9350608088013591508082111561247d57600080fd5b5061248a88828901612198565b9150509295509295909350565b600080604083850312156124aa57600080fd5b6124b3836120ca565b91506122c9602084016120ca565b600181811c908216806124d557607f821691505b6020821081036124f557634e487b7160e01b600052602260045260246000fd5b50919050565b634e487b7160e01b600052601160045260246000fd5b600060ff821660ff84168060ff0382111561252e5761252e6124fb565b019392505050565b60208082526031908201527f4552433732313a207472616e736665722063616c6c6572206973206e6f74206f6040820152701ddb995c881b9bdc88185c1c1c9bdd9959607a1b606082015260800190565b634e487b7160e01b600052603260045260246000fd5b6000600182016125af576125af6124fb565b5060010190565b600083516125c8818460208801612046565b8351908301906125dc818360208801612046565b01949350505050565b6000828210156125f7576125f76124fb565b500390565b6000821982111561260f5761260f6124fb565b500190565b60208082526032908201527f4552433732313a207472616e7366657220746f206e6f6e20455243373231526560408201527131b2b4bb32b91034b6b83632b6b2b73a32b960711b606082015260800190565b634e487b7160e01b600052601260045260246000fd5b60008261268b5761268b612666565b500490565b60008261269f5761269f612666565b500690565b76020b1b1b2b9b9a1b7b73a3937b61d1030b1b1b7bab73a1604d1b8152600083516126d6816017850160208801612046565b7001034b99036b4b9b9b4b733903937b6329607d1b6017918401918201528351612707816028840160208801612046565b01602801949350505050565b6001600160a01b038581168252841660208201526040810183905260806060820181905260009061274690830184612072565b9695505050505050565b60006020828403121561276257600080fd5b815161113381612013565b6000816000190483118215151615612787576127876124fb565b500290565b60008161279b5761279b6124fb565b506000190190565b634e487b7160e01b600052603160045260246000fdfea2646970667358221220418cefb6ab9112aaa44c78eda740177352487cd1322d8a71576c9244e8d62c6164736f6c634300080e0033",
  "linkReferences": {},
  "deployedLinkReferences": {}
}