{
  "_format": "hh-sol-artifact-1",
  "contractName": "Mock",
  "sourceName": "contracts/ChainlinkMock.sol",
  "abi": [
    {
      "inputs": [
        {
          "internalType": "contract APIConsumer",
          "name": "_consumer",
          "type": "address"
        }
      ],
      "stateMutability": "nonpayable",
      "type": "constructor"
    },
    {
      "inputs": [
        {
          "internalType": "string",
          "name": "lat",
          "type": "string"
        },
        {
          "internalType": "string",
          "name": "long",
          "type": "string"
        }
      ],
      "name": "getIsEarthquake",
      "outputs": [
        {
          "internalType": "bool",
          "name": "",
          "type": "bool"
        }
      ],
      "stateMutability": "nonpayable",
      "type": "function"
    }
  ],
  "bytecode": "0x608060405234801561001057600080fd5b506040516103d03803806103d083398101604081905261002f91610054565b600080546001600160a01b0319166001600160a01b0392909216919091179055610084565b60006020828403121561006657600080fd5b81516001600160a01b038116811461007d57600080fd5b9392505050565b61033d806100936000396000f3fe608060405234801561001057600080fd5b506004361061002b5760003560e01c8063d4373ed414610030575b600080fd5b61004361003e3660046101ed565b610057565b604051901515815260200160405180910390f35b60008054604051634c96536160e01b81526001600160a01b0390911690634c9653619061008a908690869060040161029e565b6020604051808303816000875af11580156100a9573d6000803e3d6000fd5b505050506040513d601f19601f820116820180604052508101906100cd91906102cc565b5060008054906101000a90046001600160a01b03166001600160a01b03166342ceee4f6040518163ffffffff1660e01b8152600401602060405180830381865afa15801561011f573d6000803e3d6000fd5b505050506040513d601f19601f8201168201806040525081019061014391906102e5565b9392505050565b634e487b7160e01b600052604160045260246000fd5b600082601f83011261017157600080fd5b813567ffffffffffffffff8082111561018c5761018c61014a565b604051601f8301601f19908116603f011681019082821181831017156101b4576101b461014a565b816040528381528660208588010111156101cd57600080fd5b836020870160208301376000602085830101528094505050505092915050565b6000806040838503121561020057600080fd5b823567ffffffffffffffff8082111561021857600080fd5b61022486838701610160565b9350602085013591508082111561023a57600080fd5b5061024785828601610160565b9150509250929050565b6000815180845260005b818110156102775760208185018101518683018201520161025b565b81811115610289576000602083870101525b50601f01601f19169290920160200192915050565b6040815260006102b16040830185610251565b82810360208401526102c38185610251565b95945050505050565b6000602082840312156102de57600080fd5b5051919050565b6000602082840312156102f757600080fd5b8151801515811461014357600080fdfea2646970667358221220afecd22075d639eac9474f128ca6b79bc7f7f33565cf55c82b015d4b08f685db64736f6c634300080e0033",
  "linkReferences": {},
  "deployedLinkReferences": {}
}