{
  "_format": "hh-sol-artifact-1",
  "contractName": "DeedNFT",
  "sourceName": "contracts/DeedNFT.sol",
  "abi": [
    {
      "inputs": [
        {
          "internalType": "address",
          "name": "houseOwner",
          "type": "address"
        }
      ],
      "stateMutability": "nonpayable",
      "type": "constructor"
    },
    {
      "anonymous": false,
      "inputs": [
        {
          "indexed": true,
          "internalType": "address",
          "name": "owner",
          "type": "address"
        },
        {
          "indexed": true,
          "internalType": "address",
          "name": "approved",
          "type": "address"
        },
        {
          "indexed": true,
          "internalType": "uint256",
          "name": "tokenId",
          "type": "uint256"
        }
      ],
      "name": "Approval",
      "type": "event"
    },
    {
      "anonymous": false,
      "inputs": [
        {
          "indexed": true,
          "internalType": "address",
          "name": "owner",
          "type": "address"
        },
        {
          "indexed": true,
          "internalType": "address",
          "name": "operator",
          "type": "address"
        },
        {
          "indexed": false,
          "internalType": "bool",
          "name": "approved",
          "type": "bool"
        }
      ],
      "name": "ApprovalForAll",
      "type": "event"
    },
    {
      "anonymous": false,
      "inputs": [
        {
          "indexed": true,
          "internalType": "bytes32",
          "name": "role",
          "type": "bytes32"
        },
        {
          "indexed": true,
          "internalType": "bytes32",
          "name": "previousAdminRole",
          "type": "bytes32"
        },
        {
          "indexed": true,
          "internalType": "bytes32",
          "name": "newAdminRole",
          "type": "bytes32"
        }
      ],
      "name": "RoleAdminChanged",
      "type": "event"
    },
    {
      "anonymous": false,
      "inputs": [
        {
          "indexed": true,
          "internalType": "bytes32",
          "name": "role",
          "type": "bytes32"
        },
        {
          "indexed": true,
          "internalType": "address",
          "name": "account",
          "type": "address"
        },
        {
          "indexed": true,
          "internalType": "address",
          "name": "sender",
          "type": "address"
        }
      ],
      "name": "RoleGranted",
      "type": "event"
    },
    {
      "anonymous": false,
      "inputs": [
        {
          "indexed": true,
          "internalType": "bytes32",
          "name": "role",
          "type": "bytes32"
        },
        {
          "indexed": true,
          "internalType": "address",
          "name": "account",
          "type": "address"
        },
        {
          "indexed": true,
          "internalType": "address",
          "name": "sender",
          "type": "address"
        }
      ],
      "name": "RoleRevoked",
      "type": "event"
    },
    {
      "anonymous": false,
      "inputs": [
        {
          "indexed": true,
          "internalType": "address",
          "name": "from",
          "type": "address"
        },
        {
          "indexed": true,
          "internalType": "address",
          "name": "to",
          "type": "address"
        },
        {
          "indexed": true,
          "internalType": "uint256",
          "name": "tokenId",
          "type": "uint256"
        }
      ],
      "name": "Transfer",
      "type": "event"
    },
    {
      "inputs": [],
      "name": "DEFAULT_ADMIN_ROLE",
      "outputs": [
        {
          "internalType": "bytes32",
          "name": "",
          "type": "bytes32"
        }
      ],
      "stateMutability": "view",
      "type": "function"
    },
    {
      "inputs": [],
      "name": "OWNER_ROLE",
      "outputs": [
        {
          "internalType": "bytes32",
          "name": "",
          "type": "bytes32"
        }
      ],
      "stateMutability": "view",
      "type": "function"
    },
    {
      "inputs": [],
      "name": "STATE_ROLE",
      "outputs": [
        {
          "internalType": "bytes32",
          "name": "",
          "type": "bytes32"
        }
      ],
      "stateMutability": "view",
      "type": "function"
    },
    {
      "inputs": [
        {
          "internalType": "address",
          "name": "to",
          "type": "address"
        },
        {
          "internalType": "uint256",
          "name": "tokenId",
          "type": "uint256"
        }
      ],
      "name": "approve",
      "outputs": [],
      "stateMutability": "nonpayable",
      "type": "function"
    },
    {
      "inputs": [
        {
          "internalType": "address",
          "name": "owner",
          "type": "address"
        }
      ],
      "name": "balanceOf",
      "outputs": [
        {
          "internalType": "uint256",
          "name": "",
          "type": "uint256"
        }
      ],
      "stateMutability": "view",
      "type": "function"
    },
    {
      "inputs": [
        {
          "internalType": "uint256",
          "name": "tokenId",
          "type": "uint256"
        }
      ],
      "name": "getApproved",
      "outputs": [
        {
          "internalType": "address",
          "name": "",
          "type": "address"
        }
      ],
      "stateMutability": "view",
      "type": "function"
    },
    {
      "inputs": [
        {
          "internalType": "uint256",
          "name": "tokenId_",
          "type": "uint256"
        }
      ],
      "name": "getMetadata",
      "outputs": [
        {
          "components": [
            {
              "internalType": "uint256",
              "name": "houseId",
              "type": "uint256"
            },
            {
              "internalType": "uint256",
              "name": "marketValue",
              "type": "uint256"
            },
            {
              "internalType": "uint8",
              "name": "riskScore",
              "type": "uint8"
            },
            {
              "internalType": "uint256",
              "name": "zipCode",
              "type": "uint256"
            },
            {
              "internalType": "int256",
              "name": "latitude",
              "type": "int256"
            },
            {
              "internalType": "int256",
              "name": "longitude",
              "type": "int256"
            }
          ],
          "internalType": "struct DeedNFT.Metadata",
          "name": "",
          "type": "tuple"
        }
      ],
      "stateMutability": "view",
      "type": "function"
    },
    {
      "inputs": [
        {
          "internalType": "uint256",
          "name": "houseId",
          "type": "uint256"
        }
      ],
      "name": "getPrice",
      "outputs": [
        {
          "internalType": "uint256",
          "name": "",
          "type": "uint256"
        }
      ],
      "stateMutability": "view",
      "type": "function"
    },
    {
      "inputs": [
        {
          "internalType": "uint256",
          "name": "houseId",
          "type": "uint256"
        }
      ],
      "name": "getRisk",
      "outputs": [
        {
          "internalType": "uint8",
          "name": "",
          "type": "uint8"
        }
      ],
      "stateMutability": "view",
      "type": "function"
    },
    {
      "inputs": [
        {
          "internalType": "bytes32",
          "name": "role",
          "type": "bytes32"
        }
      ],
      "name": "getRoleAdmin",
      "outputs": [
        {
          "internalType": "bytes32",
          "name": "",
          "type": "bytes32"
        }
      ],
      "stateMutability": "view",
      "type": "function"
    },
    {
      "inputs": [
        {
          "internalType": "uint256",
          "name": "houseId",
          "type": "uint256"
        }
      ],
      "name": "getZipcode",
      "outputs": [
        {
          "internalType": "uint256",
          "name": "",
          "type": "uint256"
        }
      ],
      "stateMutability": "view",
      "type": "function"
    },
    {
      "inputs": [
        {
          "internalType": "bytes32",
          "name": "role",
          "type": "bytes32"
        },
        {
          "internalType": "address",
          "name": "account",
          "type": "address"
        }
      ],
      "name": "grantRole",
      "outputs": [],
      "stateMutability": "nonpayable",
      "type": "function"
    },
    {
      "inputs": [
        {
          "internalType": "bytes32",
          "name": "role",
          "type": "bytes32"
        },
        {
          "internalType": "address",
          "name": "account",
          "type": "address"
        }
      ],
      "name": "hasRole",
      "outputs": [
        {
          "internalType": "bool",
          "name": "",
          "type": "bool"
        }
      ],
      "stateMutability": "view",
      "type": "function"
    },
    {
      "inputs": [
        {
          "internalType": "uint256",
          "name": "",
          "type": "uint256"
        }
      ],
      "name": "houseIdToTokenId",
      "outputs": [
        {
          "internalType": "uint256",
          "name": "",
          "type": "uint256"
        }
      ],
      "stateMutability": "view",
      "type": "function"
    },
    {
      "inputs": [
        {
          "internalType": "address",
          "name": "owner",
          "type": "address"
        },
        {
          "internalType": "address",
          "name": "operator",
          "type": "address"
        }
      ],
      "name": "isApprovedForAll",
      "outputs": [
        {
          "internalType": "bool",
          "name": "",
          "type": "bool"
        }
      ],
      "stateMutability": "view",
      "type": "function"
    },
    {
      "inputs": [],
      "name": "name",
      "outputs": [
        {
          "internalType": "string",
          "name": "",
          "type": "string"
        }
      ],
      "stateMutability": "view",
      "type": "function"
    },
    {
      "inputs": [
        {
          "internalType": "uint256",
          "name": "tokenId",
          "type": "uint256"
        }
      ],
      "name": "ownerOf",
      "outputs": [
        {
          "internalType": "address",
          "name": "",
          "type": "address"
        }
      ],
      "stateMutability": "view",
      "type": "function"
    },
    {
      "inputs": [
        {
          "internalType": "uint256",
          "name": "houseId",
          "type": "uint256"
        }
      ],
      "name": "ownerOfHouse",
      "outputs": [
        {
          "internalType": "address",
          "name": "",
          "type": "address"
        }
      ],
      "stateMutability": "view",
      "type": "function"
    },
    {
      "inputs": [
        {
          "internalType": "bytes32",
          "name": "hash",
          "type": "bytes32"
        },
        {
          "internalType": "bytes",
          "name": "sig",
          "type": "bytes"
        }
      ],
      "name": "recover",
      "outputs": [
        {
          "internalType": "address",
          "name": "",
          "type": "address"
        }
      ],
      "stateMutability": "pure",
      "type": "function"
    },
    {
      "inputs": [
        {
          "internalType": "bytes32",
          "name": "role",
          "type": "bytes32"
        },
        {
          "internalType": "address",
          "name": "account",
          "type": "address"
        }
      ],
      "name": "renounceRole",
      "outputs": [],
      "stateMutability": "nonpayable",
      "type": "function"
    },
    {
      "inputs": [
        {
          "internalType": "bytes32",
          "name": "role",
          "type": "bytes32"
        },
        {
          "internalType": "address",
          "name": "account",
          "type": "address"
        }
      ],
      "name": "revokeRole",
      "outputs": [],
      "stateMutability": "nonpayable",
      "type": "function"
    },
    {
      "inputs": [
        {
          "internalType": "address",
          "name": "to",
          "type": "address"
        },
        {
          "internalType": "uint256",
          "name": "houseId",
          "type": "uint256"
        },
        {
          "internalType": "uint256",
          "name": "marketValue",
          "type": "uint256"
        },
        {
          "internalType": "uint8",
          "name": "riskScore",
          "type": "uint8"
        },
        {
          "internalType": "uint256",
          "name": "zipCode",
          "type": "uint256"
        },
        {
          "internalType": "int256",
          "name": "latitude",
          "type": "int256"
        },
        {
          "internalType": "int256",
          "name": "longitude",
          "type": "int256"
        }
      ],
      "name": "safeMint",
      "outputs": [],
      "stateMutability": "nonpayable",
      "type": "function"
    },
    {
      "inputs": [
        {
          "internalType": "address",
          "name": "from",
          "type": "address"
        },
        {
          "internalType": "address",
          "name": "to",
          "type": "address"
        },
        {
          "internalType": "uint256",
          "name": "tokenId",
          "type": "uint256"
        }
      ],
      "name": "safeTransferFrom",
      "outputs": [],
      "stateMutability": "nonpayable",
      "type": "function"
    },
    {
      "inputs": [
        {
          "internalType": "address",
          "name": "from",
          "type": "address"
        },
        {
          "internalType": "address",
          "name": "to",
          "type": "address"
        },
        {
          "internalType": "uint256",
          "name": "tokenId",
          "type": "uint256"
        },
        {
          "internalType": "bytes",
          "name": "_data",
          "type": "bytes"
        }
      ],
      "name": "safeTransferFrom",
      "outputs": [],
      "stateMutability": "nonpayable",
      "type": "function"
    },
    {
      "inputs": [
        {
          "internalType": "address",
          "name": "operator",
          "type": "address"
        },
        {
          "internalType": "bool",
          "name": "approved",
          "type": "bool"
        }
      ],
      "name": "setApprovalForAll",
      "outputs": [],
      "stateMutability": "nonpayable",
      "type": "function"
    },
    {
      "inputs": [
        {
          "internalType": "uint256",
          "name": "tokenId_",
          "type": "uint256"
        },
        {
          "internalType": "uint256",
          "name": "houseId",
          "type": "uint256"
        },
        {
          "internalType": "uint256",
          "name": "marketValue",
          "type": "uint256"
        },
        {
          "internalType": "uint8",
          "name": "riskScore",
          "type": "uint8"
        },
        {
          "internalType": "uint256",
          "name": "zipCode",
          "type": "uint256"
        },
        {
          "internalType": "int256",
          "name": "latitude",
          "type": "int256"
        },
        {
          "internalType": "int256",
          "name": "longitude",
          "type": "int256"
        }
      ],
      "name": "setMetadata",
      "outputs": [],
      "stateMutability": "nonpayable",
      "type": "function"
    },
    {
      "inputs": [
        {
          "internalType": "bytes4",
          "name": "interfaceId",
          "type": "bytes4"
        }
      ],
      "name": "supportsInterface",
      "outputs": [
        {
          "internalType": "bool",
          "name": "",
          "type": "bool"
        }
      ],
      "stateMutability": "view",
      "type": "function"
    },
    {
      "inputs": [],
      "name": "symbol",
      "outputs": [
        {
          "internalType": "string",
          "name": "",
          "type": "string"
        }
      ],
      "stateMutability": "view",
      "type": "function"
    },
    {
      "inputs": [
        {
          "internalType": "uint256",
          "name": "index",
          "type": "uint256"
        }
      ],
      "name": "tokenByIndex",
      "outputs": [
        {
          "internalType": "uint256",
          "name": "",
          "type": "uint256"
        }
      ],
      "stateMutability": "view",
      "type": "function"
    },
    {
      "inputs": [
        {
          "internalType": "uint256",
          "name": "tokenId",
          "type": "uint256"
        }
      ],
      "name": "tokenIdByHouseId",
      "outputs": [
        {
          "internalType": "uint256",
          "name": "",
          "type": "uint256"
        }
      ],
      "stateMutability": "view",
      "type": "function"
    },
    {
      "inputs": [
        {
          "internalType": "uint256",
          "name": "",
          "type": "uint256"
        }
      ],
      "name": "tokenIdToRealEstate",
      "outputs": [
        {
          "internalType": "uint256",
          "name": "houseId",
          "type": "uint256"
        },
        {
          "internalType": "uint256",
          "name": "marketValue",
          "type": "uint256"
        },
        {
          "internalType": "uint8",
          "name": "riskScore",
          "type": "uint8"
        },
        {
          "internalType": "uint256",
          "name": "zipCode",
          "type": "uint256"
        },
        {
          "internalType": "int256",
          "name": "latitude",
          "type": "int256"
        },
        {
          "internalType": "int256",
          "name": "longitude",
          "type": "int256"
        }
      ],
      "stateMutability": "view",
      "type": "function"
    },
    {
      "inputs": [
        {
          "internalType": "address",
          "name": "addressToQuery",
          "type": "address"
        }
      ],
      "name": "tokenIdsByAddress",
      "outputs": [
        {
          "internalType": "uint256[]",
          "name": "",
          "type": "uint256[]"
        }
      ],
      "stateMutability": "view",
      "type": "function"
    },
    {
      "inputs": [
        {
          "internalType": "address",
          "name": "owner",
          "type": "address"
        },
        {
          "internalType": "uint256",
          "name": "index",
          "type": "uint256"
        }
      ],
      "name": "tokenOfOwnerByIndex",
      "outputs": [
        {
          "internalType": "uint256",
          "name": "",
          "type": "uint256"
        }
      ],
      "stateMutability": "view",
      "type": "function"
    },
    {
      "inputs": [
        {
          "internalType": "uint256",
          "name": "tokenId",
          "type": "uint256"
        }
      ],
      "name": "tokenURI",
      "outputs": [
        {
          "internalType": "string",
          "name": "",
          "type": "string"
        }
      ],
      "stateMutability": "view",
      "type": "function"
    },
    {
      "inputs": [],
      "name": "totalSupply",
      "outputs": [
        {
          "internalType": "uint256",
          "name": "",
          "type": "uint256"
        }
      ],
      "stateMutability": "view",
      "type": "function"
    },
    {
      "inputs": [
        {
          "internalType": "uint256",
          "name": "tokenId",
          "type": "uint256"
        },
        {
          "internalType": "address",
          "name": "from_",
          "type": "address"
        },
        {
          "internalType": "address",
          "name": "to_",
          "type": "address"
        },
        {
          "internalType": "bytes",
          "name": "sigOfSender",
          "type": "bytes"
        },
        {
          "internalType": "bytes",
          "name": "sigOfReceiver",
          "type": "bytes"
        }
      ],
      "name": "transferDeed",
      "outputs": [],
      "stateMutability": "nonpayable",
      "type": "function"
    },
    {
      "inputs": [
        {
          "internalType": "address",
          "name": "from",
          "type": "address"
        },
        {
          "internalType": "address",
          "name": "to",
          "type": "address"
        },
        {
          "internalType": "uint256",
          "name": "tokenId",
          "type": "uint256"
        }
      ],
      "name": "transferFrom",
      "outputs": [],
      "stateMutability": "nonpayable",
      "type": "function"
    }
  ],
  "bytecode": "0x60806040523480156200001157600080fd5b50604051620029e6380380620029e6833981016040819052620000349162000270565b604080518082018252600781526626bcaa37b5b2b760c91b6020808301918252835180850190945260038452624d544b60e81b9084015281519192916200007e91600091620001ca565b50805162000094906001906020840190620001ca565b50620000a6915060009050336200011c565b620000d27f547057f531c86e2cc3b200920e1e934e343df977d10562f2e3a14e8372755cc7336200011c565b620000fe7fb19546dff01e856fb3f010c267a7b1c60363cf8a4664e21cc89c26224620214e826200011c565b62000115600b620001c160201b6200118e1760201c565b50620002de565b6000828152600a602090815260408083206001600160a01b038516845290915290205460ff16620001bd576000828152600a602090815260408083206001600160a01b03851684529091529020805460ff191660011790556200017c3390565b6001600160a01b0316816001600160a01b0316837f2f8788117e7eff1d82e926ec794901d17c78024a50270940304540a733656f0d60405160405180910390a45b5050565b80546001019055565b828054620001d890620002a2565b90600052602060002090601f016020900481019282620001fc576000855562000247565b82601f106200021757805160ff191683800117855562000247565b8280016001018555821562000247579182015b82811115620002475782518255916020019190600101906200022a565b506200025592915062000259565b5090565b5b808211156200025557600081556001016200025a565b6000602082840312156200028357600080fd5b81516001600160a01b03811681146200029b57600080fd5b9392505050565b600181811c90821680620002b757607f821691505b602082108103620002d857634e487b7160e01b600052602260045260246000fd5b50919050565b6126f880620002ee6000396000f3fe608060405234801561001057600080fd5b50600436106101f75760003560e01c80636352211e11610120578063b88d4fde116100b8578063e56ca8df1161007c578063e56ca8df1461058c578063e58378bb146105ac578063e7572230146105d3578063e985e9c514610603578063f57200371461061657600080fd5b8063b88d4fde146104fb578063c87b56dd1461050e578063d20ccb2c14610521578063d547741f14610534578063e2fb4e771461054757600080fd5b80636352211e146103ae57806370a08231146103c157806373543416146103d45780638b263a5a1461045057806391d148541461046357806395d89b4114610476578063a217fddf1461047e578063a22cb46514610486578063a574cea41461049957600080fd5b80632f2ff15d116101935780632f2ff15d146102e75780632f745c59146102fa57806336568abe1461030d57806342842e0e146103205780634f6ccce71461033357806352e716671461034657806359d81400146103665780635e72fd76146103865780636211723c1461039957600080fd5b806301ffc9a7146101fc57806306fdde0314610224578063081812fc14610239578063095ea7b3146102645780630fd4457c1461027957806318160ddd1461028c57806319045a251461029e57806323b872dd146102b1578063248a9ca3146102c4575b600080fd5b61020f61020a366004611f0e565b610646565b60405190151581526020015b60405180910390f35b61022c610657565b60405161021b9190611f83565b61024c610247366004611f96565b6106e9565b6040516001600160a01b03909116815260200161021b565b610277610272366004611fcb565b610776565b005b610277610287366004612006565b610886565b6008545b60405190815260200161021b565b61024c6102ac366004612109565b610948565b6102776102bf36600461214f565b610a20565b6102906102d2366004611f96565b6000908152600a602052604090206001015490565b6102776102f536600461218b565b610a51565b610290610308366004611fcb565b610a76565b61027761031b36600461218b565b610b0c565b61027761032e36600461214f565b610b8a565b610290610341366004611f96565b610ba5565b6103596103543660046121b7565b610c38565b60405161021b91906121d2565b610290610374366004611f96565b600d6020526000908152604090205481565b61024c610394366004611f96565b610cd9565b6102906000805160206126a383398151915281565b61024c6103bc366004611f96565b610cf8565b6102906103cf3660046121b7565b610d6f565b61041b6103e2366004611f96565b600c602052600090815260409020805460018201546002830154600384015460048501546005909501549394929360ff90921692909186565b60408051968752602087019590955260ff909316938501939093526060840152608083019190915260a082015260c00161021b565b61027761045e366004612216565b610df6565b61020f61047136600461218b565b610e86565b61022c610eb1565b610290600081565b61027761049436600461224f565b610ec0565b6104ac6104a7366004611f96565b610ecb565b60405161021b9190600060c082019050825182526020830151602083015260ff6040840151166040830152606083015160608301526080830151608083015260a083015160a083015292915050565b61027761050936600461228b565b610f63565b61022c61051c366004611f96565b610f9b565b61027761052f3660046122f2565b611072565b61027761054236600461218b565b61113b565b61057a610555366004611f96565b6000908152600d60209081526040808320548352600c90915290206002015460ff1690565b60405160ff909116815260200161021b565b61029061059a366004611f96565b6000908152600d602052604090205490565b6102907fb19546dff01e856fb3f010c267a7b1c60363cf8a4664e21cc89c26224620214e81565b6102906105e1366004611f96565b6000908152600d60209081526040808320548352600c90915290206001015490565b61020f610611366004612380565b611160565b610290610624366004611f96565b6000908152600d60209081526040808320548352600c90915290206003015490565b600061065182611197565b92915050565b606060008054610666906123aa565b80601f0160208091040260200160405190810160405280929190818152602001828054610692906123aa565b80156106df5780601f106106b4576101008083540402835291602001916106df565b820191906000526020600020905b8154815290600101906020018083116106c257829003601f168201915b5050505050905090565b60006106f4826111bc565b61075a5760405162461bcd60e51b815260206004820152602c60248201527f4552433732313a20617070726f76656420717565727920666f72206e6f6e657860448201526b34b9ba32b73a103a37b5b2b760a11b60648201526084015b60405180910390fd5b506000908152600460205260409020546001600160a01b031690565b600061078182610cf8565b9050806001600160a01b0316836001600160a01b0316036107ee5760405162461bcd60e51b815260206004820152602160248201527f4552433732313a20617070726f76616c20746f2063757272656e74206f776e656044820152603960f91b6064820152608401610751565b336001600160a01b038216148061080a575061080a8133611160565b6108775760405162461bcd60e51b815260206004820152603860248201527f4552433732313a20617070726f76652063616c6c6572206973206e6f74206f776044820152771b995c881b9bdc88185c1c1c9bdd995908199bdc88185b1b60421b6064820152608401610751565b61088183836111d9565b505050565b6000805160206126a383398151915261089e81611247565b60006108a9600b5490565b90506108b9600b80546001019055565b6108c38982611254565b6000888152600d60209081526040808320849055805160c0810182529a8b528a8201998a5260ff9889168b820190815260608c0198895260808c0197885260a08c01968752938352600c9091529020975188559551600188015550935160028601805460ff191691909416179092555160038401555160048301555160059091015550565b60008060008084516041146109635760009350505050610651565b50505060208201516040830151606084015160001a601b81101561098f5761098c601b826123fa565b90505b8060ff16601b141580156109a757508060ff16601c14155b156109b85760009350505050610651565b60408051600081526020810180835288905260ff831691810191909152606081018490526080810183905260019060a0016020604051602081039080840390855afa158015610a0b573d6000803e3d6000fd5b5050604051601f190151979650505050505050565b610a2a338261126e565b610a465760405162461bcd60e51b81526004016107519061241f565b610881838383611338565b6000828152600a6020526040902060010154610a6c81611247565b61088183836114df565b6000610a8183610d6f565b8210610ae35760405162461bcd60e51b815260206004820152602b60248201527f455243373231456e756d657261626c653a206f776e657220696e646578206f7560448201526a74206f6620626f756e647360a81b6064820152608401610751565b506001600160a01b03919091166000908152600660209081526040808320938352929052205490565b6001600160a01b0381163314610b7c5760405162461bcd60e51b815260206004820152602f60248201527f416363657373436f6e74726f6c3a2063616e206f6e6c792072656e6f756e636560448201526e103937b632b9903337b91039b2b63360891b6064820152608401610751565b610b868282611565565b5050565b61088183838360405180602001604052806000815250610f63565b6000610bb060085490565b8210610c135760405162461bcd60e51b815260206004820152602c60248201527f455243373231456e756d657261626c653a20676c6f62616c20696e646578206f60448201526b7574206f6620626f756e647360a01b6064820152608401610751565b60088281548110610c2657610c26612470565b90600052602060002001549050919050565b60606000610c4583610d6f565b90506000816001600160401b03811115610c6157610c61612067565b604051908082528060200260200182016040528015610c8a578160200160208202803683370190505b50905060005b82811015610cd157610ca28582610a76565b828281518110610cb457610cb4612470565b602090810291909101015280610cc981612486565b915050610c90565b509392505050565b6000818152600d6020526040812054610cf181610cf8565b9392505050565b6000818152600260205260408120546001600160a01b0316806106515760405162461bcd60e51b815260206004820152602960248201527f4552433732313a206f776e657220717565727920666f72206e6f6e657869737460448201526832b73a103a37b5b2b760b91b6064820152608401610751565b60006001600160a01b038216610dda5760405162461bcd60e51b815260206004820152602a60248201527f4552433732313a2062616c616e636520717565727920666f7220746865207a65604482015269726f206164647265737360b01b6064820152608401610751565b506001600160a01b031660009081526003602052604090205490565b6000805160206126a3833981519152610e0e81611247565b506040805160c081018252968752602080880196875260ff958616888301908152606089019586526080890194855260a089019384526000998a52600c90915297209551865593516001860155945160028501805460ff19169190931617909155516003830155915160048201559051600590910155565b6000918252600a602090815260408084206001600160a01b0393909316845291905290205460ff1690565b606060018054610666906123aa565b610b863383836115cc565b610f076040518060c001604052806000815260200160008152602001600060ff1681526020016000815260200160008152602001600081525090565b506000908152600c6020908152604091829020825160c08101845281548152600182015492810192909252600281015460ff1692820192909252600382015460608201526004820154608082015260059091015460a082015290565b610f6d338361126e565b610f895760405162461bcd60e51b81526004016107519061241f565b610f9584848484611696565b50505050565b6060610fa6826111bc565b61100a5760405162461bcd60e51b815260206004820152602f60248201527f4552433732314d657461646174613a2055524920717565727920666f72206e6f60448201526e3732bc34b9ba32b73a103a37b5b2b760891b6064820152608401610751565b600061102160408051602081019091526000815290565b905060008151116110415760405180602001604052806000815250610cf1565b8061104b846116c9565b60405160200161105c92919061249f565b6040516020818303038152906040529392505050565b6000805160206126a383398151915261108a81611247565b6110bc866040516020016110a091815260200190565b6040516020818303038152906040528051906020012084610948565b6001600160a01b0316856001600160a01b0316146110d957600080fd5b61110b866040516020016110ef91815260200190565b6040516020818303038152906040528051906020012083610948565b6001600160a01b0316846001600160a01b03161461112857600080fd5b611133858588611338565b505050505050565b6000828152600a602052604090206001015461115681611247565b6108818383611565565b6001600160a01b03918216600090815260056020908152604080832093909416825291909152205460ff1690565b80546001019055565b60006001600160e01b03198216637965db0b60e01b14806106515750610651826117c9565b6000908152600260205260409020546001600160a01b0316151590565b600081815260046020526040902080546001600160a01b0319166001600160a01b038416908117909155819061120e82610cf8565b6001600160a01b03167f8c5be1e5ebec7d5bd14f71427d1e84f3dd0314c0f7b2291e5b200ac8c7c3b92560405160405180910390a45050565b61125181336117ee565b50565b610b86828260405180602001604052806000815250611852565b6000611279826111bc565b6112da5760405162461bcd60e51b815260206004820152602c60248201527f4552433732313a206f70657261746f7220717565727920666f72206e6f6e657860448201526b34b9ba32b73a103a37b5b2b760a11b6064820152608401610751565b60006112e583610cf8565b9050806001600160a01b0316846001600160a01b0316148061130c575061130c8185611160565b806113305750836001600160a01b0316611325846106e9565b6001600160a01b0316145b949350505050565b826001600160a01b031661134b82610cf8565b6001600160a01b0316146113af5760405162461bcd60e51b815260206004820152602560248201527f4552433732313a207472616e736665722066726f6d20696e636f72726563742060448201526437bbb732b960d91b6064820152608401610751565b6001600160a01b0382166114115760405162461bcd60e51b8152602060048201526024808201527f4552433732313a207472616e7366657220746f20746865207a65726f206164646044820152637265737360e01b6064820152608401610751565b61141c838383611885565b6114276000826111d9565b6001600160a01b03831660009081526003602052604081208054600192906114509084906124ce565b90915550506001600160a01b038216600090815260036020526040812080546001929061147e9084906124e5565b909155505060008181526002602052604080822080546001600160a01b0319166001600160a01b0386811691821790925591518493918716917fddf252ad1be2c89b69c2b068fc378daa952ba7f163c4a11628f55a4df523b3ef91a4505050565b6114e98282610e86565b610b86576000828152600a602090815260408083206001600160a01b03851684529091529020805460ff191660011790556115213390565b6001600160a01b0316816001600160a01b0316837f2f8788117e7eff1d82e926ec794901d17c78024a50270940304540a733656f0d60405160405180910390a45050565b61156f8282610e86565b15610b86576000828152600a602090815260408083206001600160a01b0385168085529252808320805460ff1916905551339285917ff6391f5c32d9c69d2a47ea670b442974b53935d1edc7fd64eb21e047a839171b9190a45050565b816001600160a01b0316836001600160a01b0316036116295760405162461bcd60e51b815260206004820152601960248201527822a9219b99189d1030b8383937bb32903a379031b0b63632b960391b6044820152606401610751565b6001600160a01b03838116600081815260056020908152604080832094871680845294825291829020805460ff191686151590811790915591519182527f17307eab39ab6107e8899845ad3d59bd9653f200f220920489ca2b5937696c31910160405180910390a3505050565b6116a1848484611338565b6116ad8484848461193d565b610f955760405162461bcd60e51b8152600401610751906124fd565b6060816000036116f05750506040805180820190915260018152600360fc1b602082015290565b8160005b811561171a578061170481612486565b91506117139050600a83612565565b91506116f4565b6000816001600160401b0381111561173457611734612067565b6040519080825280601f01601f19166020018201604052801561175e576020820181803683370190505b5090505b8415611330576117736001836124ce565b9150611780600a86612579565b61178b9060306124e5565b60f81b8183815181106117a0576117a0612470565b60200101906001600160f81b031916908160001a9053506117c2600a86612565565b9450611762565b60006001600160e01b0319821663780e9d6360e01b1480610651575061065182611a3e565b6117f88282610e86565b610b8657611810816001600160a01b03166014611a8e565b61181b836020611a8e565b60405160200161182c92919061258d565b60408051601f198184030181529082905262461bcd60e51b825261075191600401611f83565b61185c8383611c29565b611869600084848461193d565b6108815760405162461bcd60e51b8152600401610751906124fd565b6001600160a01b0383166118e0576118db81600880546000838152600960205260408120829055600182018355919091527ff3f7a9fe364faab93b216da50a3214154f22a0a2b415b23a84c8169e8b636ee30155565b611903565b816001600160a01b0316836001600160a01b031614611903576119038382611d68565b6001600160a01b03821661191a5761088181611e05565b826001600160a01b0316826001600160a01b031614610881576108818282611eb4565b60006001600160a01b0384163b15611a3357604051630a85bd0160e11b81526001600160a01b0385169063150b7a02906119819033908990889088906004016125fc565b6020604051808303816000875af19250505080156119bc575060408051601f3d908101601f191682019092526119b991810190612639565b60015b611a19573d8080156119ea576040519150601f19603f3d011682016040523d82523d6000602084013e6119ef565b606091505b508051600003611a115760405162461bcd60e51b8152600401610751906124fd565b805181602001fd5b6001600160e01b031916630a85bd0160e11b149050611330565b506001949350505050565b60006001600160e01b031982166380ac58cd60e01b1480611a6f57506001600160e01b03198216635b5e139f60e01b145b8061065157506301ffc9a760e01b6001600160e01b0319831614610651565b60606000611a9d836002612656565b611aa89060026124e5565b6001600160401b03811115611abf57611abf612067565b6040519080825280601f01601f191660200182016040528015611ae9576020820181803683370190505b509050600360fc1b81600081518110611b0457611b04612470565b60200101906001600160f81b031916908160001a905350600f60fb1b81600181518110611b3357611b33612470565b60200101906001600160f81b031916908160001a9053506000611b57846002612656565b611b629060016124e5565b90505b6001811115611bda576f181899199a1a9b1b9c1cb0b131b232b360811b85600f1660108110611b9657611b96612470565b1a60f81b828281518110611bac57611bac612470565b60200101906001600160f81b031916908160001a90535060049490941c93611bd381612675565b9050611b65565b508315610cf15760405162461bcd60e51b815260206004820181905260248201527f537472696e67733a20686578206c656e67746820696e73756666696369656e746044820152606401610751565b6001600160a01b038216611c7f5760405162461bcd60e51b815260206004820181905260248201527f4552433732313a206d696e7420746f20746865207a65726f20616464726573736044820152606401610751565b611c88816111bc565b15611cd55760405162461bcd60e51b815260206004820152601c60248201527f4552433732313a20746f6b656e20616c7265616479206d696e746564000000006044820152606401610751565b611ce160008383611885565b6001600160a01b0382166000908152600360205260408120805460019290611d0a9084906124e5565b909155505060008181526002602052604080822080546001600160a01b0319166001600160a01b03861690811790915590518392907fddf252ad1be2c89b69c2b068fc378daa952ba7f163c4a11628f55a4df523b3ef908290a45050565b60006001611d7584610d6f565b611d7f91906124ce565b600083815260076020526040902054909150808214611dd2576001600160a01b03841660009081526006602090815260408083208584528252808320548484528184208190558352600790915290208190555b5060009182526007602090815260408084208490556001600160a01b039094168352600681528383209183525290812055565b600854600090611e17906001906124ce565b60008381526009602052604081205460088054939450909284908110611e3f57611e3f612470565b906000526020600020015490508060088381548110611e6057611e60612470565b6000918252602080832090910192909255828152600990915260408082208490558582528120556008805480611e9857611e9861268c565b6001900381819060005260206000200160009055905550505050565b6000611ebf83610d6f565b6001600160a01b039093166000908152600660209081526040808320868452825280832085905593825260079052919091209190915550565b6001600160e01b03198116811461125157600080fd5b600060208284031215611f2057600080fd5b8135610cf181611ef8565b60005b83811015611f46578181015183820152602001611f2e565b83811115610f955750506000910152565b60008151808452611f6f816020860160208601611f2b565b601f01601f19169290920160200192915050565b602081526000610cf16020830184611f57565b600060208284031215611fa857600080fd5b5035919050565b80356001600160a01b0381168114611fc657600080fd5b919050565b60008060408385031215611fde57600080fd5b611fe783611faf565b946020939093013593505050565b803560ff81168114611fc657600080fd5b600080600080600080600060e0888a03121561202157600080fd5b61202a88611faf565b9650602088013595506040880135945061204660608901611ff5565b9699959850939660808101359560a0820135955060c0909101359350915050565b634e487b7160e01b600052604160045260246000fd5b600082601f83011261208e57600080fd5b81356001600160401b03808211156120a8576120a8612067565b604051601f8301601f19908116603f011681019082821181831017156120d0576120d0612067565b816040528381528660208588010111156120e957600080fd5b836020870160208301376000602085830101528094505050505092915050565b6000806040838503121561211c57600080fd5b8235915060208301356001600160401b0381111561213957600080fd5b6121458582860161207d565b9150509250929050565b60008060006060848603121561216457600080fd5b61216d84611faf565b925061217b60208501611faf565b9150604084013590509250925092565b6000806040838503121561219e57600080fd5b823591506121ae60208401611faf565b90509250929050565b6000602082840312156121c957600080fd5b610cf182611faf565b6020808252825182820181905260009190848201906040850190845b8181101561220a578351835292840192918401916001016121ee565b50909695505050505050565b600080600080600080600060e0888a03121561223157600080fd5b87359650602088013595506040880135945061204660608901611ff5565b6000806040838503121561226257600080fd5b61226b83611faf565b91506020830135801515811461228057600080fd5b809150509250929050565b600080600080608085870312156122a157600080fd5b6122aa85611faf565b93506122b860208601611faf565b92506040850135915060608501356001600160401b038111156122da57600080fd5b6122e68782880161207d565b91505092959194509250565b600080600080600060a0868803121561230a57600080fd5b8535945061231a60208701611faf565b935061232860408701611faf565b925060608601356001600160401b038082111561234457600080fd5b61235089838a0161207d565b9350608088013591508082111561236657600080fd5b506123738882890161207d565b9150509295509295909350565b6000806040838503121561239357600080fd5b61239c83611faf565b91506121ae60208401611faf565b600181811c908216806123be57607f821691505b6020821081036123de57634e487b7160e01b600052602260045260246000fd5b50919050565b634e487b7160e01b600052601160045260246000fd5b600060ff821660ff84168060ff03821115612417576124176123e4565b019392505050565b60208082526031908201527f4552433732313a207472616e736665722063616c6c6572206973206e6f74206f6040820152701ddb995c881b9bdc88185c1c1c9bdd9959607a1b606082015260800190565b634e487b7160e01b600052603260045260246000fd5b600060018201612498576124986123e4565b5060010190565b600083516124b1818460208801611f2b565b8351908301906124c5818360208801611f2b565b01949350505050565b6000828210156124e0576124e06123e4565b500390565b600082198211156124f8576124f86123e4565b500190565b60208082526032908201527f4552433732313a207472616e7366657220746f206e6f6e20455243373231526560408201527131b2b4bb32b91034b6b83632b6b2b73a32b960711b606082015260800190565b634e487b7160e01b600052601260045260246000fd5b6000826125745761257461254f565b500490565b6000826125885761258861254f565b500690565b76020b1b1b2b9b9a1b7b73a3937b61d1030b1b1b7bab73a1604d1b8152600083516125bf816017850160208801611f2b565b7001034b99036b4b9b9b4b733903937b6329607d1b60179184019182015283516125f0816028840160208801611f2b565b01602801949350505050565b6001600160a01b038581168252841660208201526040810183905260806060820181905260009061262f90830184611f57565b9695505050505050565b60006020828403121561264b57600080fd5b8151610cf181611ef8565b6000816000190483118215151615612670576126706123e4565b500290565b600081612684576126846123e4565b506000190190565b634e487b7160e01b600052603160045260246000fdfe547057f531c86e2cc3b200920e1e934e343df977d10562f2e3a14e8372755cc7a2646970667358221220a853ccb38f5f7c8b1f4b37e6ab419e34e31ae529bc57b86f4f5c997f09c276b964736f6c634300080e0033",
  "linkReferences": {},
  "deployedLinkReferences": {}
}