{
    "_format": "hh-sol-artifact-1",
    "contractName": "EIP2981",
    "sourceName": "contracts/Generative.sol",
    "abi": [
        {
            "inputs": [
                {
                    "internalType": "address",
                    "name": "addr",
                    "type": "address"
                },
                {
                    "internalType": "uint256",
                    "name": "perc",
                    "type": "uint256"
                }
            ],
            "stateMutability": "nonpayable",
            "type": "constructor"
        },
        {
            "inputs": [
                {
                    "internalType": "uint256",
                    "name": "_tokenId",
                    "type": "uint256"
                },
                {
                    "internalType": "uint256",
                    "name": "_salePrice",
                    "type": "uint256"
                }
            ],
            "name": "royaltyInfo",
            "outputs": [
                {
                    "internalType": "address",
                    "name": "receiver",
                    "type": "address"
                },
                {
                    "internalType": "uint256",
                    "name": "royaltyAmount",
                    "type": "uint256"
                }
            ],
            "stateMutability": "view",
            "type": "function"
        },
        {
            "inputs": [
                {
                    "internalType": "bytes4",
                    "name": "interfaceId",
                    "type": "bytes4"
                }
            ],
            "name": "supportsInterface",
            "outputs": [
                {
                    "internalType": "bool",
                    "name": "",
                    "type": "bool"
                }
            ],
            "stateMutability": "view",
            "type": "function"
        }
    ],
    "bytecode": "0x608060405234801561001057600080fd5b5060405161065a38038061065a83398181016040528101906100329190610119565b816000806101000a81548173ffffffffffffffffffffffffffffffffffffffff021916908373ffffffffffffffffffffffffffffffffffffffff160217905550806001819055505050610159565b600080fd5b600073ffffffffffffffffffffffffffffffffffffffff82169050919050565b60006100b082610085565b9050919050565b6100c0816100a5565b81146100cb57600080fd5b50565b6000815190506100dd816100b7565b92915050565b6000819050919050565b6100f6816100e3565b811461010157600080fd5b50565b600081519050610113816100ed565b92915050565b600080604083850312156101305761012f610080565b5b600061013e858286016100ce565b925050602061014f85828601610104565b9150509250929050565b6104f2806101686000396000f3fe608060405234801561001057600080fd5b50600436106100365760003560e01c806301ffc9a71461003b5780632a55205a1461006b575b600080fd5b61005560048036038101906100509190610281565b61009c565b60405161006291906102c9565b60405180910390f35b6100856004803603810190610080919061031a565b610116565b6040516100939291906103aa565b60405180910390f35b60007f2a55205a000000000000000000000000000000000000000000000000000000007bffffffffffffffffffffffffffffffffffffffffffffffffffffffff1916827bffffffffffffffffffffffffffffffffffffffffffffffffffffffff1916148061010f575061010e826101ba565b5b9050919050565b600080600073ffffffffffffffffffffffffffffffffffffffff1660008054906101000a900473ffffffffffffffffffffffffffffffffffffffff1673ffffffffffffffffffffffffffffffffffffffff16141561017357600080fd5b60008054906101000a900473ffffffffffffffffffffffffffffffffffffffff16612710846001546101a59190610402565b6101af919061048b565b915091509250929050565b60007f01ffc9a7000000000000000000000000000000000000000000000000000000007bffffffffffffffffffffffffffffffffffffffffffffffffffffffff1916827bffffffffffffffffffffffffffffffffffffffffffffffffffffffff1916149050919050565b600080fd5b60007fffffffff0000000000000000000000000000000000000000000000000000000082169050919050565b61025e81610229565b811461026957600080fd5b50565b60008135905061027b81610255565b92915050565b60006020828403121561029757610296610224565b5b60006102a58482850161026c565b91505092915050565b60008115159050919050565b6102c3816102ae565b82525050565b60006020820190506102de60008301846102ba565b92915050565b6000819050919050565b6102f7816102e4565b811461030257600080fd5b50565b600081359050610314816102ee565b92915050565b6000806040838503121561033157610330610224565b5b600061033f85828601610305565b925050602061035085828601610305565b9150509250929050565b600073ffffffffffffffffffffffffffffffffffffffff82169050919050565b60006103858261035a565b9050919050565b6103958161037a565b82525050565b6103a4816102e4565b82525050565b60006040820190506103bf600083018561038c565b6103cc602083018461039b565b9392505050565b7f4e487b7100000000000000000000000000000000000000000000000000000000600052601160045260246000fd5b600061040d826102e4565b9150610418836102e4565b9250817fffffffffffffffffffffffffffffffffffffffffffffffffffffffffffffffff0483118215151615610451576104506103d3565b5b828202905092915050565b7f4e487b7100000000000000000000000000000000000000000000000000000000600052601260045260246000fd5b6000610496826102e4565b91506104a1836102e4565b9250826104b1576104b061045c565b5b82820490509291505056fea2646970667358221220eb04dde1409a64581a32064b74b9d7cb9610855f195afab1475323a11350ed3064736f6c63430008090033",
    "linkReferences": {},
    "deployedLinkReferences": {}
}