{
  "_format": "hh-sol-artifact-1",
  "contractName": "Pool",
  "sourceName": "contracts/Pool.sol",
  "abi": [
    {
      "inputs": [
        {
          "internalType": "contract DeedNFT",
          "name": "_nftCtc",
          "type": "address"
        },
        {
          "internalType": "contract IERC20",
          "name": "_stableToken",
          "type": "address"
        },
        {
          "internalType": "uint8",
          "name": "_minPoolRisk",
          "type": "uint8"
        },
        {
          "internalType": "uint8",
          "name": "_maxPoolRisk",
          "type": "uint8"
        },
        {
          "internalType": "uint8",
          "name": "_entranceFeePerc",
          "type": "uint8"
        },
        {
          "internalType": "uint8",
          "name": "_inspectorPerCity",
          "type": "uint8"
        },
        {
          "internalType": "contract Staking",
          "name": "_stakeCtc",
          "type": "address"
        }
      ],
      "stateMutability": "nonpayable",
      "type": "constructor"
    },
    {
      "anonymous": false,
      "inputs": [
        {
          "indexed": true,
          "internalType": "address",
          "name": "previousOwner",
          "type": "address"
        },
        {
          "indexed": true,
          "internalType": "address",
          "name": "newOwner",
          "type": "address"
        }
      ],
      "name": "OwnershipTransferred",
      "type": "event"
    },
    {
      "anonymous": false,
      "inputs": [
        {
          "indexed": false,
          "internalType": "uint8",
          "name": "grants",
          "type": "uint8"
        },
        {
          "indexed": false,
          "internalType": "uint8",
          "name": "denies",
          "type": "uint8"
        }
      ],
      "name": "RequestVotingEnded",
      "type": "event"
    },
    {
      "inputs": [
        {
          "internalType": "uint256",
          "name": "zipCode",
          "type": "uint256"
        },
        {
          "internalType": "address",
          "name": "inspector",
          "type": "address"
        }
      ],
      "name": "addInspector",
      "outputs": [],
      "stateMutability": "nonpayable",
      "type": "function"
    },
    {
      "inputs": [],
      "name": "amountAtTheEnd",
      "outputs": [
        {
          "internalType": "uint256",
          "name": "",
          "type": "uint256"
        }
      ],
      "stateMutability": "view",
      "type": "function"
    },
    {
      "inputs": [],
      "name": "amountLeftToInsurers",
      "outputs": [
        {
          "internalType": "uint256",
          "name": "",
          "type": "uint256"
        }
      ],
      "stateMutability": "view",
      "type": "function"
    },
    {
      "inputs": [
        {
          "internalType": "uint8",
          "name": "percentage",
          "type": "uint8"
        }
      ],
      "name": "buyPoolPartially",
      "outputs": [],
      "stateMutability": "nonpayable",
      "type": "function"
    },
    {
      "inputs": [
        {
          "internalType": "uint256",
          "name": "tokenId",
          "type": "uint256"
        }
      ],
      "name": "calcEntranceFee",
      "outputs": [
        {
          "internalType": "uint256",
          "name": "",
          "type": "uint256"
        }
      ],
      "stateMutability": "view",
      "type": "function"
    },
    {
      "inputs": [],
      "name": "canBuyTokens",
      "outputs": [
        {
          "internalType": "bool",
          "name": "",
          "type": "bool"
        }
      ],
      "stateMutability": "view",
      "type": "function"
    },
    {
      "inputs": [],
      "name": "canClaim",
      "outputs": [
        {
          "internalType": "bool",
          "name": "",
          "type": "bool"
        }
      ],
      "stateMutability": "view",
      "type": "function"
    },
    {
      "inputs": [],
      "name": "canInsurerClaim",
      "outputs": [
        {
          "internalType": "bool",
          "name": "",
          "type": "bool"
        }
      ],
      "stateMutability": "view",
      "type": "function"
    },
    {
      "inputs": [
        {
          "internalType": "uint256",
          "name": "tokenId",
          "type": "uint256"
        }
      ],
      "name": "claimAsHouseOwner",
      "outputs": [],
      "stateMutability": "nonpayable",
      "type": "function"
    },
    {
      "inputs": [],
      "name": "claimAsInsurer",
      "outputs": [],
      "stateMutability": "nonpayable",
      "type": "function"
    },
    {
      "inputs": [
        {
          "internalType": "uint256",
          "name": "",
          "type": "uint256"
        }
      ],
      "name": "claimRequests",
      "outputs": [
        {
          "internalType": "uint256",
          "name": "tokenId",
          "type": "uint256"
        },
        {
          "internalType": "enum Pool.RequestStatus",
          "name": "status",
          "type": "uint8"
        },
        {
          "internalType": "uint8",
          "name": "grantVotes",
          "type": "uint8"
        },
        {
          "internalType": "uint8",
          "name": "denyVotes",
          "type": "uint8"
        }
      ],
      "stateMutability": "view",
      "type": "function"
    },
    {
      "inputs": [],
      "name": "demoEndInsurancePeriod",
      "outputs": [],
      "stateMutability": "nonpayable",
      "type": "function"
    },
    {
      "inputs": [],
      "name": "demoEndPoolEntrance",
      "outputs": [],
      "stateMutability": "nonpayable",
      "type": "function"
    },
    {
      "inputs": [],
      "name": "endClaimPeriod",
      "outputs": [],
      "stateMutability": "nonpayable",
      "type": "function"
    },
    {
      "inputs": [],
      "name": "endInsurancePeriod",
      "outputs": [],
      "stateMutability": "nonpayable",
      "type": "function"
    },
    {
      "inputs": [
        {
          "internalType": "uint256",
          "name": "tokenId",
          "type": "uint256"
        }
      ],
      "name": "enterPool",
      "outputs": [],
      "stateMutability": "nonpayable",
      "type": "function"
    },
    {
      "inputs": [],
      "name": "entranceFeePerc",
      "outputs": [
        {
          "internalType": "uint8",
          "name": "",
          "type": "uint8"
        }
      ],
      "stateMutability": "view",
      "type": "function"
    },
    {
      "inputs": [],
      "name": "getPoolTokenAddress",
      "outputs": [
        {
          "internalType": "address",
          "name": "",
          "type": "address"
        }
      ],
      "stateMutability": "view",
      "type": "function"
    },
    {
      "inputs": [
        {
          "internalType": "uint256",
          "name": "",
          "type": "uint256"
        }
      ],
      "name": "housesInPool",
      "outputs": [
        {
          "internalType": "bool",
          "name": "",
          "type": "bool"
        }
      ],
      "stateMutability": "view",
      "type": "function"
    },
    {
      "inputs": [],
      "name": "inspectorPerCity",
      "outputs": [
        {
          "internalType": "uint8",
          "name": "",
          "type": "uint8"
        }
      ],
      "stateMutability": "view",
      "type": "function"
    },
    {
      "inputs": [
        {
          "internalType": "uint256",
          "name": "tokenId",
          "type": "uint256"
        }
      ],
      "name": "makeClaimRequest",
      "outputs": [],
      "stateMutability": "nonpayable",
      "type": "function"
    },
    {
      "inputs": [],
      "name": "maxPoolRisk",
      "outputs": [
        {
          "internalType": "uint8",
          "name": "",
          "type": "uint8"
        }
      ],
      "stateMutability": "view",
      "type": "function"
    },
    {
      "inputs": [
        {
          "internalType": "uint256",
          "name": "a",
          "type": "uint256"
        },
        {
          "internalType": "uint256",
          "name": "b",
          "type": "uint256"
        }
      ],
      "name": "min",
      "outputs": [
        {
          "internalType": "uint256",
          "name": "",
          "type": "uint256"
        }
      ],
      "stateMutability": "pure",
      "type": "function"
    },
    {
      "inputs": [],
      "name": "minPoolRisk",
      "outputs": [
        {
          "internalType": "uint8",
          "name": "",
          "type": "uint8"
        }
      ],
      "stateMutability": "view",
      "type": "function"
    },
    {
      "inputs": [],
      "name": "owner",
      "outputs": [
        {
          "internalType": "address",
          "name": "",
          "type": "address"
        }
      ],
      "stateMutability": "view",
      "type": "function"
    },
    {
      "inputs": [],
      "name": "remainingHousesGranted",
      "outputs": [
        {
          "internalType": "uint256",
          "name": "",
          "type": "uint256"
        }
      ],
      "stateMutability": "view",
      "type": "function"
    },
    {
      "inputs": [],
      "name": "renounceOwnership",
      "outputs": [],
      "stateMutability": "nonpayable",
      "type": "function"
    },
    {
      "inputs": [],
      "name": "soldPercentage",
      "outputs": [
        {
          "internalType": "uint8",
          "name": "",
          "type": "uint8"
        }
      ],
      "stateMutability": "view",
      "type": "function"
    },
    {
      "inputs": [],
      "name": "startTime",
      "outputs": [
        {
          "internalType": "uint256",
          "name": "",
          "type": "uint256"
        }
      ],
      "stateMutability": "view",
      "type": "function"
    },
    {
      "inputs": [],
      "name": "startTokenSale",
      "outputs": [],
      "stateMutability": "nonpayable",
      "type": "function"
    },
    {
      "inputs": [],
      "name": "tokenSaleStart",
      "outputs": [
        {
          "internalType": "uint256",
          "name": "",
          "type": "uint256"
        }
      ],
      "stateMutability": "view",
      "type": "function"
    },
    {
      "inputs": [],
      "name": "totalAmountRegistered",
      "outputs": [
        {
          "internalType": "uint256",
          "name": "",
          "type": "uint256"
        }
      ],
      "stateMutability": "view",
      "type": "function"
    },
    {
      "inputs": [],
      "name": "totalPoolBalance",
      "outputs": [
        {
          "internalType": "uint256",
          "name": "",
          "type": "uint256"
        }
      ],
      "stateMutability": "view",
      "type": "function"
    },
    {
      "inputs": [],
      "name": "totalPriceHouseGranted",
      "outputs": [
        {
          "internalType": "uint256",
          "name": "",
          "type": "uint256"
        }
      ],
      "stateMutability": "view",
      "type": "function"
    },
    {
      "inputs": [],
      "name": "totalSoldPoolBalance",
      "outputs": [
        {
          "internalType": "uint256",
          "name": "",
          "type": "uint256"
        }
      ],
      "stateMutability": "view",
      "type": "function"
    },
    {
      "inputs": [
        {
          "internalType": "address",
          "name": "newOwner",
          "type": "address"
        }
      ],
      "name": "transferOwnership",
      "outputs": [],
      "stateMutability": "nonpayable",
      "type": "function"
    },
    {
      "inputs": [
        {
          "internalType": "uint256",
          "name": "tokenId",
          "type": "uint256"
        },
        {
          "internalType": "bool",
          "name": "vote",
          "type": "bool"
        }
      ],
      "name": "voteClaimRequest",
      "outputs": [],
      "stateMutability": "nonpayable",
      "type": "function"
    }
  ],
  "bytecode": "0x60806040523480156200001157600080fd5b5060405162003af738038062003af783398101604081905262000034916200015f565b6200003f33620000df565b600180546001600160a01b03199081166001600160a01b03998a161790915560038054821697891697909717909655600480544260055561ffff60a01b1916600160a01b60ff9788160260ff60a81b191617600160a81b958716959095029490941761ffff60b01b1916600160b01b9386169390930260ff60b81b191692909217600160b81b9190941602929092179092169216919091179055620001fd565b600080546001600160a01b038381166001600160a01b0319831681178455604051919092169283917f8be0079c531659141344cd1fd0a4f28419497f9722a3daafe3b4186f6b6457e09190a35050565b6001600160a01b03811681146200014557600080fd5b50565b805160ff811681146200015a57600080fd5b919050565b600080600080600080600060e0888a0312156200017b57600080fd5b875162000188816200012f565b60208901519097506200019b816200012f565b9550620001ab6040890162000148565b9450620001bb6060890162000148565b9350620001cb6080890162000148565b9250620001db60a0890162000148565b915060c0880151620001ed816200012f565b8091505092959891949750929550565b6138ea806200020d6000396000f3fe60806040523480156200001157600080fd5b5060043610620002225760003560e01c806379798ccb1162000138578063b123252511620000c7578063d07c5c1b1162000086578063d07c5c1b146200045f578063d385014d1462000476578063e557aee714620004c8578063f2fde38b14620004df578063f36f2cc814620004f657600080fd5b8063b12325251462000417578063b4b28eeb1462000421578063b83313cc1462000436578063bc400728146200044b578063c4118ec4146200045557600080fd5b806379798ccb14620003515780637aca3f57146200035b5780637ae2b5c714620003655780637fe2fbc0146200037c5780638197300514620003a25780638a0c655e14620003b95780638beff37014620003e15780638da5cb5b14620003f6578063a1ddcfc3146200040057600080fd5b80634e0eb44711620001b55780634e0eb44714620002dd5780635026d63e14620002e757806357c9ea4314620002f15780635e630c4614620002fb5780635f951eab14620003055780636dc7a627146200031c578063715018a6146200032f57806378710f72146200033957806378e97925146200034757600080fd5b8063098a37f714620002275780630bcb8de614620002445780630e62b9c1146200026957806315bb4b4e146200027557806315f2417d146200028c578063165aaf5e1462000296578063194d28a614620002a057806326b94c6e14620002bc578063403911a614620002d3575b600080fd5b62000231600e5481565b6040519081526020015b60405180910390f35b600754620002589062010000900460ff1681565b60405190151581526020016200023b565b6200027362000504565b005b6200027362000286366004620026e8565b62000560565b6200027362000641565b6200023160085481565b6002546001600160a01b03165b6040516200023b91906200271b565b62000273620002cd3660046200272f565b6200068c565b6200023160065481565b6200027362000862565b62000231600c5481565b62000231600d5481565b6200027362000a67565b62000273620003163660046200272f565b62000b9f565b6007546200025890610100900460ff1681565b6200027362000fc8565b600754620002589060ff1681565b6200023160055481565b620002736200100a565b62000231600f5481565b620002316200037636600462002749565b62001111565b620002586200038d3660046200272f565b60126020526000908152604090205460ff1681565b62000231620003b33660046200272f565b6200112c565b600454620003ce90600160b01b900460ff1681565b60405160ff90911681526020016200023b565b600454620003ce90600160b81b900460ff1681565b620002ad6200123e565b62000273620004113660046200272f565b6200124d565b6200023160095481565b600454620003ce90600160a01b900460ff1681565b600454620003ce90600160a81b900460ff1681565b62000231600a5481565b6200027362001635565b62000273620004703660046200277b565b62001840565b620004b6620004873660046200272f565b6010602052600090815260409020805460019091015460ff808216916101008104821691620100009091041684565b6040516200023b9493929190620027b9565b62000273620004d93660046200280e565b62002176565b62000273620004f03660046200282e565b62002397565b600b54620003ce9060ff1681565b336200050f6200123e565b6001600160a01b031614620005415760405162461bcd60e51b815260040162000538906200284e565b60405180910390fd5b63020f58006006600082825462000559919062002899565b9091555050565b336200056b6200123e565b6001600160a01b031614620005945760405162461bcd60e51b815260040162000538906200284e565b60008281526011602052604090206004548154600160b81b90910460ff16116200060d5760405162461bcd60e51b8152602060048201526024808201527f496e73706563746f72206c696d6974207265616368656420666f7220746865206044820152636369747960e01b606482015260840162000538565b8054600181018255600091825260209091200180546001600160a01b0319166001600160a01b039290921691909117905550565b336200064c6200123e565b6001600160a01b031614620006755760405162461bcd60e51b815260040162000538906200284e565b6228de806005600082825462000559919062002899565b60008181526012602052604090205460ff16620006e35760405162461bcd60e51b8152602060048201526014602482015273121bdd5cd9481a5cc81b9bdd081a5b881c1bdbdb60621b604482015260640162000538565b60008181526010602052604090205415620007415760405162461bcd60e51b815260206004820152601a60248201527f416c72656164792068617320636c61696d207265717565737421000000000000604482015260640162000538565b600154604051632f397ebb60e11b8152600481018390526000916001600160a01b031690635e72fd7690602401602060405180830381865afa1580156200078c573d6000803e3d6000fd5b505050506040513d601f19601f82011682018060405250810190620007b29190620028b3565b90506001600160a01b0381163314620007df5760405162461bcd60e51b81526004016200053890620028d3565b62278d0060055442620007f3919062002899565b1015620008435760405162461bcd60e51b815260206004820181905260248201527f496e737572616e636520706572696f6420686173206e6f742073746172746564604482015260640162000538565b506000818152601060205260409020908155600101805460ff19169055565b336200086d6200123e565b6001600160a01b031614620008965760405162461bcd60e51b815260040162000538906200284e565b630208c08060065442620008ab919062002899565b1015620008cc5760405162461bcd60e51b8152600401620005389062002916565b6007805462ffff001916620100001790556003546040516370a0823160e01b81526001600160a01b039091169063a9059cbb90339060649084906370a08231906200091c9030906004016200271b565b602060405180830381865afa1580156200093a573d6000803e3d6000fd5b505050506040513d601f19601f820116820180604052508101906200096091906200294b565b6200096d90600162002965565b6200097991906200299d565b6040516001600160e01b031960e085901b1681526001600160a01b03909216600483015260248201526044016020604051808303816000875af1158015620009c5573d6000803e3d6000fd5b505050506040513d601f19601f82011682018060405250810190620009eb9190620029b4565b506003546040516370a0823160e01b81526001600160a01b03909116906370a082319062000a1e9030906004016200271b565b602060405180830381865afa15801562000a3c573d6000803e3d6000fd5b505050506040513d601f19601f8201168201806040525081019062000a6291906200294b565b600f55565b3362000a726200123e565b6001600160a01b03161462000a9b5760405162461bcd60e51b815260040162000538906200284e565b62000ac2604051806040016040528060048152602001636865726560e01b81525062002440565b6301e133806006544262000ad7919062002899565b101562000af85760405162461bcd60e51b8152600401620005389062002916565b6007805461ff0019166101009081179182905562000b1a910460ff1662002487565b6007805460ff191690556003546040516370a0823160e01b81526001600160a01b03909116906370a082319062000b569030906004016200271b565b602060405180830381865afa15801562000b74573d6000803e3d6000fd5b505050506040513d601f19601f8201168201806040525081019062000b9a91906200294b565b600e55565b62278d006005544262000bb3919062002899565b111562000c035760405162461bcd60e51b815260206004820152601a60248201527f496e737572616e636520706572696f642068617320656e646564000000000000604482015260640162000538565b600154604051632f397ebb60e11b8152600481018390526001600160a01b0390911690635e72fd7690602401602060405180830381865afa15801562000c4d573d6000803e3d6000fd5b505050506040513d601f19601f8201168201806040525081019062000c739190620028b3565b6001600160a01b0316336001600160a01b03161462000ca65760405162461bcd60e51b81526004016200053890620028d3565b60015460405163e2fb4e7760e01b8152600481018390526000916001600160a01b03169063e2fb4e7790602401602060405180830381865afa15801562000cf1573d6000803e3d6000fd5b505050506040513d601f19601f8201168201806040525081019062000d179190620029e6565b60015460405163f572003760e01b81526004810185905291925060009160119183916001600160a01b039091169063f572003790602401602060405180830381865afa15801562000d6c573d6000803e3d6000fd5b505050506040513d601f19601f8201168201806040525081019062000d9291906200294b565b81526020810191909152604001600020549050600360ff8216101562000df35760405162461bcd60e51b81526020600482015260156024820152744e6f7420656e6f75676820696e73706563746f727360581b604482015260640162000538565b60045460ff600160a01b90910481169083161080159062000e24575060045460ff600160a81b909104811690831611155b62000e7e5760405162461bcd60e51b815260206004820152602360248201527f486f757365207269736b206f7574206f6620706f6f6c277320626f756e64617260448201526269657360e81b606482015260840162000538565b600062000e8b846200112c565b6003546040516323b872dd60e01b81529192506001600160a01b0316906323b872dd9062000ec29033903090869060040162002a06565b6020604051808303816000875af115801562000ee2573d6000803e3d6000fd5b505050506040513d601f19601f8201168201806040525081019062000f089190620029b4565b5080600c600082825462000f1d919062002a2a565b9091555050600154604051630e75722360e41b8152600481018690526001600160a01b039091169063e757223090602401602060405180830381865afa15801562000f6c573d6000803e3d6000fd5b505050506040513d601f19601f8201168201806040525081019062000f9291906200294b565b6008600082825462000fa5919062002a2a565b90915550505060009283525050601260205260409020805460ff19166001179055565b3362000fd36200123e565b6001600160a01b03161462000ffc5760405162461bcd60e51b815260040162000538906200284e565b620010086000620024ca565b565b62278d00600554426200101e919062002899565b10156200106e5760405162461bcd60e51b815260206004820152601d60248201527f506f6f6c207265676973747279206861736e7420656e64656420796574000000604482015260640162000538565b6007805460ff191660011790554260065560055460009062001090906200251a565b604051602001620010a2919062002a78565b60405160208183030381529060405290508081604051620010c390620026c4565b620010d092919062002ad5565b604051809103906000f080158015620010ed573d6000803e3d6000fd5b50600280546001600160a01b0319166001600160a01b039290921691909117905550565b60008183111562001123578162001125565b825b9392505050565b60015460405163e2fb4e7760e01b81526004810183905260009182916001600160a01b039091169063e2fb4e7790602401602060405180830381865afa1580156200117b573d6000803e3d6000fd5b505050506040513d601f19601f82011682018060405250810190620011a19190620029e6565b600154604051630e75722360e41b8152600481018690529192506000916001600160a01b039091169063e757223090602401602060405180830381865afa158015620011f1573d6000803e3d6000fd5b505050506040513d601f19601f820116820180604052508101906200121791906200294b565b905060646200122a8260ff851662002965565b6200123691906200299d565b949350505050565b6000546001600160a01b031690565b600754610100900460ff16620012b75760405162461bcd60e51b815260206004820152602860248201527f43616e277420636c61696d207965742e20496e737572616e6365206861736e276044820152673a1032b73232b21760c11b606482015260840162000538565b600154604051632f397ebb60e11b8152600481018390526001600160a01b0390911690635e72fd7690602401602060405180830381865afa15801562001301573d6000803e3d6000fd5b505050506040513d601f19601f82011682018060405250810190620013279190620028b3565b6001600160a01b0316336001600160a01b031614620013945760405162461bcd60e51b815260206004820152602260248201527f596f7520617265206e6f7420746865206f776e6572206f662074686520686f75604482015261736560f01b606482015260840162000538565b600360008281526010602052604090206001015460ff166003811115620013bf57620013bf620027a3565b036200140a5760405162461bcd60e51b81526020600482015260196024820152782cb7bab91030b9329030b63932b0b23c9031b630b4b6b2b21760391b604482015260640162000538565b600160008281526010602052604090206001015460ff166003811115620014355762001435620027a3565b146200148e5760405162461bcd60e51b815260206004820152602160248201527f596f75722072657175657374206861736e2774206265656e206772616e7465646044820152601760f91b606482015260840162000538565b600954600e54600154604051630e75722360e41b8152600481018590526000936200159893909290916001600160a01b039091169063e757223090602401602060405180830381865afa158015620014ea573d6000803e3d6000fd5b505050506040513d601f19601f820116820180604052508101906200151091906200294b565b6200151c919062002965565b6200152891906200299d565b600154604051630e75722360e41b8152600481018690526001600160a01b039091169063e757223090602401602060405180830381865afa15801562001572573d6000803e3d6000fd5b505050506040513d601f19601f820116820180604052508101906200037691906200294b565b60008381526010602052604090819020600101805460ff1916600390811790915554905163a9059cbb60e01b8152336004820152602481018390529192506001600160a01b03169063a9059cbb906044015b6020604051808303816000875af11580156200160a573d6000803e3d6000fd5b505050506040513d601f19601f82011682018060405250810190620016309190620029b4565b505050565b60075462010000900460ff166200168b5760405162461bcd60e51b815260206004820152601960248201527824b739bab932b9399031b0b713ba1031b630b4b6903cb2ba1760391b604482015260640162000538565b6002546040516370a0823160e01b81526000916001600160a01b0316906370a0823190620016be9033906004016200271b565b602060405180830381865afa158015620016dc573d6000803e3d6000fd5b505050506040513d601f19601f820116820180604052508101906200170291906200294b565b905060008160ff1611620017655760405162461bcd60e51b815260206004820152602360248201527f596f7520646f6e2774206f776e20616e79207368617265206f662074686520706044820152621bdbdb60ea1b606482015260840162000538565b600060648260ff16600f546200177c919062002965565b6200178891906200299d565b6002546040516323b872dd60e01b815233600482015230602482015260ff851660448201529192506001600160a01b0316906323b872dd906064016020604051808303816000875af1158015620017e3573d6000803e3d6000fd5b505050506040513d601f19601f82011682018060405250810190620018099190620029b4565b506003546040516323b872dd60e01b81526001600160a01b03909116906323b872dd90620015ea9030903390869060040162002a06565b60015460405163295d33a960e21b8152600481018490526000916001600160a01b03169063a574cea49060240160c060405180830381865afa1580156200188b573d6000803e3d6000fd5b505050506040513d601f19601f82011682018060405250810190620018b1919062002b14565b606001516000818152601160209081526040808320805482518185028101850190935280835294955092939092918301828280156200191a57602002820191906000526020600020905b81546001600160a01b03168152600190910190602001808311620018fb575b50505050509050600080600090505b82518160ff1610156200198e57336001600160a01b0316838260ff168151811062001958576200195862002ba7565b60200260200101516001600160a01b0316036200197957600191506200198e565b80620019858162002bbd565b91505062001929565b5080620019f45760405162461bcd60e51b815260206004820152602d60248201527f596f7520617265206e6f7420616e20696e73706563746f72206f66207468652060448201526c73656c6563746564206369747960981b606482015260840162000538565b6000858152601060205260408120805490910362001a6a5760405162461bcd60e51b815260206004820152602c60248201527f43686f73656e20686f75736520646f65736e2774206861766520616e7920636c60448201526b61696d20726571756573747360a01b606482015260840162000538565b841562001af157600181015433906002830190610100900460ff166003811062001a985762001a9862002ba7565b0180546001600160a01b0319166001600160a01b039290921691909117905560018181018054610100900460ff169162001ad28362002bbd565b91906101000a81548160ff021916908360ff1602179055505062001b6f565b60018101543390600583019062010000900460ff166003811062001b195762001b1962002ba7565b0180546001600160a01b0319166001600160a01b039290921691909117905560018101805462010000900460ff1690600262001b558362002bbd565b91906101000a81548160ff021916908360ff160217905550505b600454600182015460ff600160b81b90920482169162001b9f916201000081048216916101009091041662002bdf565b60ff16036200216e57600181015460ff620100008204811661010090920416111562001ec2576001818101805460ff191682179055548154604051630e75722360e41b815260048101919091526001600160a01b039091169063e757223090602401602060405180830381865afa15801562001c1f573d6000803e3d6000fd5b505050506040513d601f19601f8201168201806040525081019062001c4591906200294b565b6009600082825462001c58919062002a2a565b909155505060018181015462010000900460ff16900362001dcc576004805460058301546040516338a84ded60e01b81526001600160a01b03928316936338a84ded9362001ca9931691016200271b565b600060405180830381600087803b15801562001cc457600080fd5b505af115801562001cd9573d6000803e3d6000fd5b505060048054600285015460405163079bff8760e31b81526001600160a01b039283169550633cdffc38945062001d16939190921691016200271b565b600060405180830381600087803b15801562001d3157600080fd5b505af115801562001d46573d6000803e3d6000fd5b50506004546001600160a01b03169150633cdffc3890506002830160015b01546040516001600160e01b031960e084901b16815262001d92916001600160a01b0316906004016200271b565b600060405180830381600087803b15801562001dad57600080fd5b505af115801562001dc2573d6000803e3d6000fd5b505050506200211f565b60048054600283015460405163079bff8760e31b81526001600160a01b0392831693633cdffc389362001e02931691016200271b565b600060405180830381600087803b15801562001e1d57600080fd5b505af115801562001e32573d6000803e3d6000fd5b505060048054600385015460405163079bff8760e31b81526001600160a01b039283169550633cdffc38945062001e6f939190921691016200271b565b600060405180830381600087803b15801562001e8a57600080fd5b505af115801562001e9f573d6000803e3d6000fd5b50506004546001600160a01b03169150633cdffc38905060028084019062001d64565b6001818101805460ff19166002179081905560ff61010090910416900362001fda576004805460028301546040516338a84ded60e01b81526001600160a01b03928316936338a84ded9362001f1a931691016200271b565b600060405180830381600087803b15801562001f3557600080fd5b505af115801562001f4a573d6000803e3d6000fd5b505060048054600585015460405163079bff8760e31b81526001600160a01b039283169550633cdffc38945062001f87939190921691016200271b565b600060405180830381600087803b15801562001fa257600080fd5b505af115801562001fb7573d6000803e3d6000fd5b50506004546001600160a01b03169150633cdffc38905060058301600162001d64565b60048054600583015460405163079bff8760e31b81526001600160a01b0392831693633cdffc389362002010931691016200271b565b600060405180830381600087803b1580156200202b57600080fd5b505af115801562002040573d6000803e3d6000fd5b505060048054600685015460405163079bff8760e31b81526001600160a01b039283169550633cdffc3894506200207d939190921691016200271b565b600060405180830381600087803b1580156200209857600080fd5b505af1158015620020ad573d6000803e3d6000fd5b505060048054600785015460405163079bff8760e31b81526001600160a01b039283169550633cdffc389450620020ea939190921691016200271b565b600060405180830381600087803b1580156200210557600080fd5b505af11580156200211a573d6000803e3d6000fd5b505050505b60018101546040805160ff6101008404811682526201000090930490921660208301527fd6dd7075a9e2bcb4ba3f3406849af2d60b6a3a877eb2dd6af6dbc5f1363cf827910160405180910390a15b505050505050565b60075460ff16620021ca5760405162461bcd60e51b815260206004820152601b60248201527f43616e6e6f742062757920706f6f6c20746f6b656e7320796574210000000000604482015260640162000538565b600b54606490620021df9060ff168362002bdf565b60ff161115620022285760405162461bcd60e51b8152602060048201526013602482015272546f6f206d7563682070657263656e7461676560681b604482015260640162000538565b60006200223462002633565b905060006127108360ff1683600c546200224f919062002965565b6200225b919062002965565b6200226791906200299d565b6003546040516323b872dd60e01b81529192506001600160a01b0316906323b872dd906200229e9033903090869060040162002a06565b6020604051808303816000875af1158015620022be573d6000803e3d6000fd5b505050506040513d601f19601f82011682018060405250810190620022e49190620029b4565b5060025460405163a9059cbb60e01b815233600482015260ff851660248201526001600160a01b039091169063a9059cbb906044016020604051808303816000875af115801562002339573d6000803e3d6000fd5b505050506040513d601f19601f820116820180604052508101906200235f9190620029b4565b50600b80548491906000906200237a90849060ff1662002bdf565b92506101000a81548160ff021916908360ff160217905550505050565b33620023a26200123e565b6001600160a01b031614620023cb5760405162461bcd60e51b815260040162000538906200284e565b6001600160a01b038116620024325760405162461bcd60e51b815260206004820152602660248201527f4f776e61626c653a206e6577206f776e657220697320746865207a65726f206160448201526564647265737360d01b606482015260840162000538565b6200243d81620024ca565b50565b6200243d8160405160240162002457919062002c07565b60408051601f198184030181529190526020810180516001600160e01b031663104c13eb60e21b179052620026a3565b60405181151560248201526200243d9060440160408051601f198184030181529190526020810180516001600160e01b03166332458eed60e01b179052620026a3565b600080546001600160a01b038381166001600160a01b0319831681178455604051919092169283917f8be0079c531659141344cd1fd0a4f28419497f9722a3daafe3b4186f6b6457e09190a35050565b606081600003620025425750506040805180820190915260018152600360fc1b602082015290565b8160005b8115620025725780620025598162002c1c565b91506200256a9050600a836200299d565b915062002546565b60008167ffffffffffffffff81111562002590576200259062002afe565b6040519080825280601f01601f191660200182016040528015620025bb576020820181803683370190505b5090505b84156200123657620025d360018362002899565b9150620025e2600a8662002c38565b620025ef90603062002a2a565b60f81b81838151811062002607576200260762002ba7565b60200101906001600160f81b031916908160001a9053506200262b600a866200299d565b9450620025bf565b60045460009081906200265290600160a81b900460ff16606462002c4f565b60ff169050600062278d00600554426200266d919062002899565b6200267991906200299d565b905060006200268a82600562002965565b905060006200269a828562002a2a565b95945050505050565b80516a636f6e736f6c652e6c6f67602083016000808483855afa5050505050565b610c3f8062002c7683390190565b6001600160a01b03811681146200243d57600080fd5b60008060408385031215620026fc57600080fd5b8235915060208301356200271081620026d2565b809150509250929050565b6001600160a01b0391909116815260200190565b6000602082840312156200274257600080fd5b5035919050565b600080604083850312156200275d57600080fd5b50508035926020909101359150565b80151581146200243d57600080fd5b600080604083850312156200278f57600080fd5b82359150602083013562002710816200276c565b634e487b7160e01b600052602160045260246000fd5b8481526080810160048510620027df57634e487b7160e01b600052602160045260246000fd5b602082019490945260ff92831660408201529116606090910152919050565b60ff811681146200243d57600080fd5b6000602082840312156200282157600080fd5b81356200112581620027fe565b6000602082840312156200284157600080fd5b81356200112581620026d2565b6020808252818101527f4f776e61626c653a2063616c6c6572206973206e6f7420746865206f776e6572604082015260600190565b634e487b7160e01b600052601160045260246000fd5b600082821015620028ae57620028ae62002883565b500390565b600060208284031215620028c657600080fd5b81516200112581620026d2565b60208082526023908201527f596f7520617265206e6f7420746865206f776e6572206f66207468697320686f60408201526275736560e81b606082015260800190565b6020808252818101527f496e737572616e636520706572696f64206861736e7420656e64656420796574604082015260600190565b6000602082840312156200295e57600080fd5b5051919050565b600081600019048311821515161562002982576200298262002883565b500290565b634e487b7160e01b600052601260045260246000fd5b600082620029af57620029af62002987565b500490565b600060208284031215620029c757600080fd5b815162001125816200276c565b8051620029e181620027fe565b919050565b600060208284031215620029f957600080fd5b81516200112581620027fe565b6001600160a01b039384168152919092166020820152604081019190915260600190565b6000821982111562002a405762002a4062002883565b500190565b60005b8381101562002a6257818101518382015260200162002a48565b8381111562002a72576000848401525b50505050565b64506f6f6c2d60d81b81526000825162002a9a81600585016020870162002a45565b9190910160050192915050565b6000815180845262002ac181602086016020860162002a45565b601f01601f19169290920160200192915050565b60408152600062002aea604083018562002aa7565b82810360208401526200269a818562002aa7565b634e487b7160e01b600052604160045260246000fd5b600060c0828403121562002b2757600080fd5b60405160c0810181811067ffffffffffffffff8211171562002b5957634e487b7160e01b600052604160045260246000fd5b8060405250825181526020830151602082015262002b7a60408401620029d4565b6040820152606083015160608201526080830151608082015260a083015160a08201528091505092915050565b634e487b7160e01b600052603260045260246000fd5b600060ff821660ff810362002bd65762002bd662002883565b60010192915050565b600060ff821660ff84168060ff0382111562002bff5762002bff62002883565b019392505050565b60208152600062001125602083018462002aa7565b60006001820162002c315762002c3162002883565b5060010190565b60008262002c4a5762002c4a62002987565b500690565b600060ff821660ff84168082101562002c6c5762002c6c62002883565b9003939250505056fe60806040523480156200001157600080fd5b5060405162000c3f38038062000c3f8339810160408190526200003491620002dc565b8151829082906200004d90600390602085019062000169565b5080516200006390600490602084019062000169565b505050620000793360646200008160201b60201c565b5050620003a9565b6001600160a01b038216620000dc5760405162461bcd60e51b815260206004820152601f60248201527f45524332303a206d696e7420746f20746865207a65726f206164647265737300604482015260640160405180910390fd5b8060026000828254620000f0919062000346565b90915550506001600160a01b038216600090815260208190526040812080548392906200011f90849062000346565b90915550506040518181526001600160a01b038316906000907fddf252ad1be2c89b69c2b068fc378daa952ba7f163c4a11628f55a4df523b3ef9060200160405180910390a35050565b82805462000177906200036d565b90600052602060002090601f0160209004810192826200019b5760008555620001e6565b82601f10620001b657805160ff1916838001178555620001e6565b82800160010185558215620001e6579182015b82811115620001e6578251825591602001919060010190620001c9565b50620001f4929150620001f8565b5090565b5b80821115620001f45760008155600101620001f9565b634e487b7160e01b600052604160045260246000fd5b600082601f8301126200023757600080fd5b81516001600160401b03808211156200025457620002546200020f565b604051601f8301601f19908116603f011681019082821181831017156200027f576200027f6200020f565b816040528381526020925086838588010111156200029c57600080fd5b600091505b83821015620002c05785820183015181830184015290820190620002a1565b83821115620002d25760008385830101525b9695505050505050565b60008060408385031215620002f057600080fd5b82516001600160401b03808211156200030857600080fd5b620003168683870162000225565b935060208501519150808211156200032d57600080fd5b506200033c8582860162000225565b9150509250929050565b600082198211156200036857634e487b7160e01b600052601160045260246000fd5b500190565b600181811c908216806200038257607f821691505b602082108103620003a357634e487b7160e01b600052602260045260246000fd5b50919050565b61088680620003b96000396000f3fe608060405234801561001057600080fd5b50600436106100a95760003560e01c80633950935111610071578063395093511461012357806370a082311461013657806395d89b411461015f578063a457c2d714610167578063a9059cbb1461017a578063dd62ed3e1461018d57600080fd5b806306fdde03146100ae578063095ea7b3146100cc57806318160ddd146100ef57806323b872dd14610101578063313ce56714610114575b600080fd5b6100b66101a0565b6040516100c391906106c4565b60405180910390f35b6100df6100da366004610735565b610232565b60405190151581526020016100c3565b6002545b6040519081526020016100c3565b6100df61010f36600461075f565b61024a565b604051601281526020016100c3565b6100df610131366004610735565b61026e565b6100f361014436600461079b565b6001600160a01b031660009081526020819052604090205490565b6100b6610290565b6100df610175366004610735565b61029f565b6100df610188366004610735565b61031f565b6100f361019b3660046107bd565b61032d565b6060600380546101af906107f0565b80601f01602080910402602001604051908101604052809291908181526020018280546101db906107f0565b80156102285780601f106101fd57610100808354040283529160200191610228565b820191906000526020600020905b81548152906001019060200180831161020b57829003601f168201915b5050505050905090565b600033610240818585610358565b5060019392505050565b60003361025885828561047c565b6102638585856104f6565b506001949350505050565b600033610240818585610281838361032d565b61028b919061082a565b610358565b6060600480546101af906107f0565b600033816102ad828661032d565b9050838110156103125760405162461bcd60e51b815260206004820152602560248201527f45524332303a2064656372656173656420616c6c6f77616e63652062656c6f77604482015264207a65726f60d81b60648201526084015b60405180910390fd5b6102638286868403610358565b6000336102408185856104f6565b6001600160a01b03918216600090815260016020908152604080832093909416825291909152205490565b6001600160a01b0383166103ba5760405162461bcd60e51b8152602060048201526024808201527f45524332303a20617070726f76652066726f6d20746865207a65726f206164646044820152637265737360e01b6064820152608401610309565b6001600160a01b03821661041b5760405162461bcd60e51b815260206004820152602260248201527f45524332303a20617070726f766520746f20746865207a65726f206164647265604482015261737360f01b6064820152608401610309565b6001600160a01b0383811660008181526001602090815260408083209487168084529482529182902085905590518481527f8c5be1e5ebec7d5bd14f71427d1e84f3dd0314c0f7b2291e5b200ac8c7c3b925910160405180910390a3505050565b6000610488848461032d565b905060001981146104f057818110156104e35760405162461bcd60e51b815260206004820152601d60248201527f45524332303a20696e73756666696369656e7420616c6c6f77616e63650000006044820152606401610309565b6104f08484848403610358565b50505050565b6001600160a01b03831661055a5760405162461bcd60e51b815260206004820152602560248201527f45524332303a207472616e736665722066726f6d20746865207a65726f206164604482015264647265737360d81b6064820152608401610309565b6001600160a01b0382166105bc5760405162461bcd60e51b815260206004820152602360248201527f45524332303a207472616e7366657220746f20746865207a65726f206164647260448201526265737360e81b6064820152608401610309565b6001600160a01b038316600090815260208190526040902054818110156106345760405162461bcd60e51b815260206004820152602660248201527f45524332303a207472616e7366657220616d6f756e7420657863656564732062604482015265616c616e636560d01b6064820152608401610309565b6001600160a01b0380851660009081526020819052604080822085850390559185168152908120805484929061066b90849061082a565b92505081905550826001600160a01b0316846001600160a01b03167fddf252ad1be2c89b69c2b068fc378daa952ba7f163c4a11628f55a4df523b3ef846040516106b791815260200190565b60405180910390a36104f0565b600060208083528351808285015260005b818110156106f1578581018301518582016040015282016106d5565b81811115610703576000604083870101525b50601f01601f1916929092016040019392505050565b80356001600160a01b038116811461073057600080fd5b919050565b6000806040838503121561074857600080fd5b61075183610719565b946020939093013593505050565b60008060006060848603121561077457600080fd5b61077d84610719565b925061078b60208501610719565b9150604084013590509250925092565b6000602082840312156107ad57600080fd5b6107b682610719565b9392505050565b600080604083850312156107d057600080fd5b6107d983610719565b91506107e760208401610719565b90509250929050565b600181811c9082168061080457607f821691505b60208210810361082457634e487b7160e01b600052602260045260246000fd5b50919050565b6000821982111561084b57634e487b7160e01b600052601160045260246000fd5b50019056fea2646970667358221220ee0c65e52faa0d3e987ed1c0417894143258d4d1b79cdb84a9d77fc536f9712664736f6c634300080e0033a2646970667358221220fbf30db9a4618708baadb5252f8ab443934d71291fbfb470d1d2ccf4a924f94764736f6c634300080e0033",
  "linkReferences": {},
  "deployedLinkReferences": {}
}