{
  "_format": "hh-sol-artifact-1",
  "contractName": "Pool",
  "sourceName": "contracts/Pool.sol",
  "abi": [
    {
      "inputs": [
        {
          "internalType": "contract DeedNFT",
          "name": "_nftCtc",
          "type": "address"
        },
        {
          "internalType": "contract IERC20",
          "name": "_stableToken",
          "type": "address"
        },
        {
          "internalType": "uint8",
          "name": "_minPoolRisk",
          "type": "uint8"
        },
        {
          "internalType": "uint8",
          "name": "_maxPoolRisk",
          "type": "uint8"
        },
        {
          "internalType": "uint8",
          "name": "_entranceFeePerc",
          "type": "uint8"
        },
        {
          "internalType": "uint8",
          "name": "_inspectorPerCity",
          "type": "uint8"
        },
        {
          "internalType": "contract Staking",
          "name": "_stakeCtc",
          "type": "address"
        }
      ],
      "stateMutability": "nonpayable",
      "type": "constructor"
    },
    {
      "anonymous": false,
      "inputs": [],
      "name": "ClaimForHouseOwnersEnded",
      "type": "event"
    },
    {
      "anonymous": false,
      "inputs": [],
      "name": "InsurancePeriodEnded",
      "type": "event"
    },
    {
      "anonymous": false,
      "inputs": [
        {
          "indexed": false,
          "internalType": "address",
          "name": "insurer",
          "type": "address"
        },
        {
          "indexed": false,
          "internalType": "uint8",
          "name": "percentage",
          "type": "uint8"
        },
        {
          "indexed": false,
          "internalType": "uint256",
          "name": "amount",
          "type": "uint256"
        }
      ],
      "name": "InvestedInPool",
      "type": "event"
    },
    {
      "anonymous": false,
      "inputs": [
        {
          "indexed": true,
          "internalType": "address",
          "name": "previousOwner",
          "type": "address"
        },
        {
          "indexed": true,
          "internalType": "address",
          "name": "newOwner",
          "type": "address"
        }
      ],
      "name": "OwnershipTransferred",
      "type": "event"
    },
    {
      "anonymous": false,
      "inputs": [
        {
          "indexed": false,
          "internalType": "string",
          "name": "name",
          "type": "string"
        },
        {
          "indexed": false,
          "internalType": "address",
          "name": "poolToken",
          "type": "address"
        }
      ],
      "name": "PoolRegistrationEnded",
      "type": "event"
    },
    {
      "anonymous": false,
      "inputs": [
        {
          "indexed": false,
          "internalType": "uint256",
          "name": "tokenId",
          "type": "uint256"
        }
      ],
      "name": "RequestOpenedForVoting",
      "type": "event"
    },
    {
      "anonymous": false,
      "inputs": [
        {
          "indexed": false,
          "internalType": "uint256",
          "name": "tokenId",
          "type": "uint256"
        },
        {
          "indexed": false,
          "internalType": "uint8",
          "name": "grants",
          "type": "uint8"
        },
        {
          "indexed": false,
          "internalType": "uint8",
          "name": "denies",
          "type": "uint8"
        }
      ],
      "name": "RequestVotingEnded",
      "type": "event"
    },
    {
      "inputs": [
        {
          "internalType": "uint256",
          "name": "zipCode",
          "type": "uint256"
        },
        {
          "internalType": "address",
          "name": "inspector",
          "type": "address"
        }
      ],
      "name": "addInspector",
      "outputs": [],
      "stateMutability": "nonpayable",
      "type": "function"
    },
    {
      "inputs": [],
      "name": "amountAtTheEnd",
      "outputs": [
        {
          "internalType": "uint256",
          "name": "",
          "type": "uint256"
        }
      ],
      "stateMutability": "view",
      "type": "function"
    },
    {
      "inputs": [],
      "name": "amountLeftToInsurers",
      "outputs": [
        {
          "internalType": "uint256",
          "name": "",
          "type": "uint256"
        }
      ],
      "stateMutability": "view",
      "type": "function"
    },
    {
      "inputs": [
        {
          "internalType": "uint8",
          "name": "percentage",
          "type": "uint8"
        }
      ],
      "name": "buyPoolTokens",
      "outputs": [],
      "stateMutability": "nonpayable",
      "type": "function"
    },
    {
      "inputs": [
        {
          "internalType": "uint256",
          "name": "tokenId",
          "type": "uint256"
        }
      ],
      "name": "calcEntranceFee",
      "outputs": [
        {
          "internalType": "uint256",
          "name": "",
          "type": "uint256"
        }
      ],
      "stateMutability": "view",
      "type": "function"
    },
    {
      "inputs": [],
      "name": "canBuyTokens",
      "outputs": [
        {
          "internalType": "bool",
          "name": "",
          "type": "bool"
        }
      ],
      "stateMutability": "view",
      "type": "function"
    },
    {
      "inputs": [],
      "name": "canClaim",
      "outputs": [
        {
          "internalType": "bool",
          "name": "",
          "type": "bool"
        }
      ],
      "stateMutability": "view",
      "type": "function"
    },
    {
      "inputs": [],
      "name": "canInsurerClaim",
      "outputs": [
        {
          "internalType": "bool",
          "name": "",
          "type": "bool"
        }
      ],
      "stateMutability": "view",
      "type": "function"
    },
    {
      "inputs": [
        {
          "internalType": "uint256",
          "name": "tokenId",
          "type": "uint256"
        }
      ],
      "name": "claimFundsForHouseOwner",
      "outputs": [],
      "stateMutability": "nonpayable",
      "type": "function"
    },
    {
      "inputs": [],
      "name": "claimFundsForInsurer",
      "outputs": [],
      "stateMutability": "nonpayable",
      "type": "function"
    },
    {
      "inputs": [
        {
          "internalType": "uint256",
          "name": "",
          "type": "uint256"
        }
      ],
      "name": "claimRequests",
      "outputs": [
        {
          "internalType": "uint256",
          "name": "tokenId",
          "type": "uint256"
        },
        {
          "internalType": "enum Pool.RequestStatus",
          "name": "status",
          "type": "uint8"
        },
        {
          "internalType": "uint8",
          "name": "grantVotes",
          "type": "uint8"
        },
        {
          "internalType": "uint8",
          "name": "denyVotes",
          "type": "uint8"
        }
      ],
      "stateMutability": "view",
      "type": "function"
    },
    {
      "inputs": [],
      "name": "endClaimPeriod",
      "outputs": [],
      "stateMutability": "nonpayable",
      "type": "function"
    },
    {
      "inputs": [],
      "name": "endInsurancePeriod",
      "outputs": [],
      "stateMutability": "nonpayable",
      "type": "function"
    },
    {
      "inputs": [],
      "name": "endPoolRegistrationPeriod",
      "outputs": [],
      "stateMutability": "nonpayable",
      "type": "function"
    },
    {
      "inputs": [
        {
          "internalType": "uint256",
          "name": "tokenId",
          "type": "uint256"
        }
      ],
      "name": "enterPool",
      "outputs": [],
      "stateMutability": "nonpayable",
      "type": "function"
    },
    {
      "inputs": [],
      "name": "entranceFeePerc",
      "outputs": [
        {
          "internalType": "uint8",
          "name": "",
          "type": "uint8"
        }
      ],
      "stateMutability": "view",
      "type": "function"
    },
    {
      "inputs": [],
      "name": "getPoolTokenAddress",
      "outputs": [
        {
          "internalType": "address",
          "name": "",
          "type": "address"
        }
      ],
      "stateMutability": "view",
      "type": "function"
    },
    {
      "inputs": [
        {
          "internalType": "uint256",
          "name": "",
          "type": "uint256"
        }
      ],
      "name": "housesInPool",
      "outputs": [
        {
          "internalType": "bool",
          "name": "",
          "type": "bool"
        }
      ],
      "stateMutability": "view",
      "type": "function"
    },
    {
      "inputs": [],
      "name": "inspectorPerCity",
      "outputs": [
        {
          "internalType": "uint8",
          "name": "",
          "type": "uint8"
        }
      ],
      "stateMutability": "view",
      "type": "function"
    },
    {
      "inputs": [],
      "name": "isInsurancePeriodOver",
      "outputs": [
        {
          "internalType": "bool",
          "name": "",
          "type": "bool"
        }
      ],
      "stateMutability": "view",
      "type": "function"
    },
    {
      "inputs": [
        {
          "internalType": "uint256",
          "name": "tokenId",
          "type": "uint256"
        }
      ],
      "name": "makeClaimRequest",
      "outputs": [],
      "stateMutability": "nonpayable",
      "type": "function"
    },
    {
      "inputs": [],
      "name": "maxPoolRisk",
      "outputs": [
        {
          "internalType": "uint8",
          "name": "",
          "type": "uint8"
        }
      ],
      "stateMutability": "view",
      "type": "function"
    },
    {
      "inputs": [
        {
          "internalType": "uint256",
          "name": "a",
          "type": "uint256"
        },
        {
          "internalType": "uint256",
          "name": "b",
          "type": "uint256"
        }
      ],
      "name": "min",
      "outputs": [
        {
          "internalType": "uint256",
          "name": "",
          "type": "uint256"
        }
      ],
      "stateMutability": "pure",
      "type": "function"
    },
    {
      "inputs": [],
      "name": "minPoolRisk",
      "outputs": [
        {
          "internalType": "uint8",
          "name": "",
          "type": "uint8"
        }
      ],
      "stateMutability": "view",
      "type": "function"
    },
    {
      "inputs": [],
      "name": "owner",
      "outputs": [
        {
          "internalType": "address",
          "name": "",
          "type": "address"
        }
      ],
      "stateMutability": "view",
      "type": "function"
    },
    {
      "inputs": [],
      "name": "remainingHousesGranted",
      "outputs": [
        {
          "internalType": "uint256",
          "name": "",
          "type": "uint256"
        }
      ],
      "stateMutability": "view",
      "type": "function"
    },
    {
      "inputs": [],
      "name": "renounceOwnership",
      "outputs": [],
      "stateMutability": "nonpayable",
      "type": "function"
    },
    {
      "inputs": [],
      "name": "soldPercentage",
      "outputs": [
        {
          "internalType": "uint8",
          "name": "",
          "type": "uint8"
        }
      ],
      "stateMutability": "view",
      "type": "function"
    },
    {
      "inputs": [],
      "name": "startTime",
      "outputs": [
        {
          "internalType": "uint256",
          "name": "",
          "type": "uint256"
        }
      ],
      "stateMutability": "view",
      "type": "function"
    },
    {
      "inputs": [],
      "name": "tokenSaleStart",
      "outputs": [
        {
          "internalType": "uint256",
          "name": "",
          "type": "uint256"
        }
      ],
      "stateMutability": "view",
      "type": "function"
    },
    {
      "inputs": [],
      "name": "totalAmountRegistered",
      "outputs": [
        {
          "internalType": "uint256",
          "name": "",
          "type": "uint256"
        }
      ],
      "stateMutability": "view",
      "type": "function"
    },
    {
      "inputs": [],
      "name": "totalPoolBalance",
      "outputs": [
        {
          "internalType": "uint256",
          "name": "",
          "type": "uint256"
        }
      ],
      "stateMutability": "view",
      "type": "function"
    },
    {
      "inputs": [],
      "name": "totalPriceHouseGranted",
      "outputs": [
        {
          "internalType": "uint256",
          "name": "",
          "type": "uint256"
        }
      ],
      "stateMutability": "view",
      "type": "function"
    },
    {
      "inputs": [],
      "name": "totalSoldPoolBalance",
      "outputs": [
        {
          "internalType": "uint256",
          "name": "",
          "type": "uint256"
        }
      ],
      "stateMutability": "view",
      "type": "function"
    },
    {
      "inputs": [
        {
          "internalType": "address",
          "name": "newOwner",
          "type": "address"
        }
      ],
      "name": "transferOwnership",
      "outputs": [],
      "stateMutability": "nonpayable",
      "type": "function"
    },
    {
      "inputs": [
        {
          "internalType": "uint256",
          "name": "tokenId",
          "type": "uint256"
        },
        {
          "internalType": "bool",
          "name": "vote",
          "type": "bool"
        }
      ],
      "name": "voteForClaimRequest",
      "outputs": [],
      "stateMutability": "nonpayable",
      "type": "function"
    }
  ],
  "bytecode": "0x60806040523480156200001157600080fd5b506040516200396d3803806200396d83398101604081905262000034916200015f565b6200003f33620000df565b600180546001600160a01b03199081166001600160a01b03998a161790915560038054821697891697909717909655600480544260055561ffff60a01b1916600160a01b60ff9788160260ff60a81b191617600160a81b958716959095029490941761ffff60b01b1916600160b01b9386169390930260ff60b81b191692909217600160b81b9190941602929092179092169216919091179055620001fd565b600080546001600160a01b038381166001600160a01b0319831681178455604051919092169283917f8be0079c531659141344cd1fd0a4f28419497f9722a3daafe3b4186f6b6457e09190a35050565b6001600160a01b03811681146200014557600080fd5b50565b805160ff811681146200015a57600080fd5b919050565b600080600080600080600060e0888a0312156200017b57600080fd5b875162000188816200012f565b60208901519097506200019b816200012f565b9550620001ab6040890162000148565b9450620001bb6060890162000148565b9350620001cb6080890162000148565b9250620001db60a0890162000148565b915060c0880151620001ed816200012f565b8091505092959891949750929550565b613760806200020d6000396000f3fe60806040523480156200001157600080fd5b5060043610620002055760003560e01c80637aca3f57116200011b578063b123252511620000aa578063b12325251462000407578063b4b28eeb1462000411578063b83313cc1462000426578063bc400728146200043b578063d385014d1462000445578063de1229121462000497578063f2fde38b14620004a1578063f36f2cc814620004b8578063f40a730614620004c657600080fd5b80637aca3f5714620003345780637ae2b5c7146200033e5780637bf8e6b614620003555780637fe2fbc0146200036c5780638197300514620003925780638a0c655e14620003a95780638beff37014620003d15780638c1b49f614620003e65780638da5cb5b14620003fd57600080fd5b80635026d63e11620001985780635026d63e14620002c057806357c9ea4314620002ca5780635e630c4614620002d45780635f951eab14620002de5780636dc7a62714620002f5578063705c23191462000308578063715018a6146200031257806378710f72146200031c57806378e97925146200032a57600080fd5b8063098a37f7146200020a5780630bcb8de614620002275780630d914035146200024c57806315bb4b4e1462000258578063165aaf5e146200026f578063194d28a6146200027957806326b94c6e1462000295578063403911a614620002ac5780634e0eb44714620002b6575b600080fd5b62000214600e5481565b6040519081526020015b60405180910390f35b6007546200023b9062010000900460ff1681565b60405190151581526020016200021e565b62000256620004dd565b005b620002566200026936600462002547565b62000737565b6200021460085481565b6002546001600160a01b03165b6040516200021e91906200257a565b62000256620002a63660046200258e565b620008ba565b6200021460065481565b6200025662000ac8565b62000214600c5481565b62000214600d5481565b6200025662000cf6565b62000256620002ef3660046200258e565b62000e13565b6007546200023b90610100900460ff1681565b620002566200123c565b620002566200137d565b6007546200023b9060ff1681565b6200021460055481565b62000214600f5481565b620002146200034f366004620025a8565b620013bf565b6200025662000366366004620025db565b620013da565b6200023b6200037d3660046200258e565b60126020526000908152604090205460ff1681565b62000214620003a33660046200258e565b62001638565b600454620003be90600160b01b900460ff1681565b60405160ff90911681526020016200021e565b600454620003be90600160b81b900460ff1681565b62000256620003f73660046200260a565b6200174a565b6200028662001ed4565b6200021460095481565b600454620003be90600160a01b900460ff1681565b600454620003be90600160a81b900460ff1681565b62000214600a5481565b62000485620004563660046200258e565b6010602052600090815260409020805460019091015460ff808216916101008104821691620100009091041684565b6040516200021e949392919062002648565b6200023b62001ee3565b62000256620004b23660046200268d565b62001eff565b600b54620003be9060ff1681565b62000256620004d73660046200258e565b62001fa8565b60075462010000900460ff16620005375760405162461bcd60e51b815260206004820152601960248201527824b739bab932b9399031b0b713ba1031b630b4b6903cb2ba1760391b60448201526064015b60405180910390fd5b6002546040516370a0823160e01b81526000916001600160a01b0316906370a08231906200056a9033906004016200257a565b602060405180830381865afa15801562000588573d6000803e3d6000fd5b505050506040513d601f19601f82011682018060405250810190620005ae9190620026ad565b905060008160ff1611620006115760405162461bcd60e51b815260206004820152602360248201527f596f7520646f6e2774206f776e20616e79207368617265206f662074686520706044820152621bdbdb60ea1b60648201526084016200052e565b600060648260ff16600f54620006289190620026dd565b62000634919062002715565b6002546040516323b872dd60e01b815233600482015230602482015260ff851660448201529192506001600160a01b0316906323b872dd906064016020604051808303816000875af11580156200068f573d6000803e3d6000fd5b505050506040513d601f19601f82011682018060405250810190620006b591906200272c565b506003546040516323b872dd60e01b81526001600160a01b03909116906323b872dd90620006ec903090339086906004016200274c565b6020604051808303816000875af11580156200070c573d6000803e3d6000fd5b505050506040513d601f19601f820116820180604052508101906200073291906200272c565b505050565b336200074262001ed4565b6001600160a01b0316146200076b5760405162461bcd60e51b81526004016200052e9062002770565b60008281526011602052604090206004548154600160b81b90910460ff1611620007e45760405162461bcd60e51b8152602060048201526024808201527f496e73706563746f72206c696d6974207265616368656420666f7220746865206044820152636369747960e01b60648201526084016200052e565b80546000905b808260ff1610156200088457836001600160a01b0316838360ff1681548110620008185762000818620027a5565b6000918252602090912001546001600160a01b031603620008715760405162461bcd60e51b815260206004820152601260248201527120b63932b0b23c9034b739b832b1ba37b91760711b60448201526064016200052e565b6200087c82620027bb565b9150620007ea565b50508054600181018255600091825260209091200180546001600160a01b0319166001600160a01b039290921691909117905550565b60008181526012602052604090205460ff16620009115760405162461bcd60e51b8152602060048201526014602482015273121bdd5cd9481a5cc81b9bdd081a5b881c1bdbdb60621b60448201526064016200052e565b600081815260106020526040902054156200096f5760405162461bcd60e51b815260206004820152601a60248201527f416c72656164792068617320636c61696d20726571756573742100000000000060448201526064016200052e565b600154604051632f397ebb60e11b8152600481018390526000916001600160a01b031690635e72fd7690602401602060405180830381865afa158015620009ba573d6000803e3d6000fd5b505050506040513d601f19601f82011682018060405250810190620009e09190620027dd565b90506001600160a01b038116331462000a0d5760405162461bcd60e51b81526004016200052e90620027fd565b62278d006005544262000a21919062002840565b101562000a715760405162461bcd60e51b815260206004820181905260248201527f496e737572616e636520706572696f6420686173206e6f74207374617274656460448201526064016200052e565b60008281526010602090815260409182902084815560018101805460ff1916905591518481527f85e2490ea44cfc337b45cf9782aa1dba3d6921ce4228539837fd2bcaeb49ac9e91015b60405180910390a1505050565b3362000ad362001ed4565b6001600160a01b03161462000afc5760405162461bcd60e51b81526004016200052e9062002770565b630208c0806006544262000b11919062002840565b101562000b325760405162461bcd60e51b81526004016200052e906200285a565b6007805462ffff001916620100001790556003546040516370a0823160e01b81526001600160a01b039091169063a9059cbb90339060649084906370a082319062000b829030906004016200257a565b602060405180830381865afa15801562000ba0573d6000803e3d6000fd5b505050506040513d601f19601f8201168201806040525081019062000bc69190620026ad565b62000bd3906001620026dd565b62000bdf919062002715565b6040516001600160e01b031960e085901b1681526001600160a01b03909216600483015260248201526044016020604051808303816000875af115801562000c2b573d6000803e3d6000fd5b505050506040513d601f19601f8201168201806040525081019062000c5191906200272c565b506003546040516370a0823160e01b81526001600160a01b03909116906370a082319062000c849030906004016200257a565b602060405180830381865afa15801562000ca2573d6000803e3d6000fd5b505050506040513d601f19601f8201168201806040525081019062000cc89190620026ad565b600f556040517f1d5c20ef17bd2270e0e043c2a0c45a2d09c7ee687612ca65ff8ebb7981c7519690600090a1565b3362000d0162001ed4565b6001600160a01b03161462000d2a5760405162461bcd60e51b81526004016200052e9062002770565b6301e133806006544262000d3f919062002840565b101562000d605760405162461bcd60e51b81526004016200052e906200285a565b6007805461ffff19166101001790556003546040516370a0823160e01b81526001600160a01b03909116906370a082319062000da19030906004016200257a565b602060405180830381865afa15801562000dbf573d6000803e3d6000fd5b505050506040513d601f19601f8201168201806040525081019062000de59190620026ad565b600e556040517f9e738ba48316d171f3e10a1f4e79e2d93a5d734a3dde8817e79294b2ed850ce590600090a1565b62278d006005544262000e27919062002840565b111562000e775760405162461bcd60e51b815260206004820152601a60248201527f496e737572616e636520706572696f642068617320656e64656400000000000060448201526064016200052e565b600154604051632f397ebb60e11b8152600481018390526001600160a01b0390911690635e72fd7690602401602060405180830381865afa15801562000ec1573d6000803e3d6000fd5b505050506040513d601f19601f8201168201806040525081019062000ee79190620027dd565b6001600160a01b0316336001600160a01b03161462000f1a5760405162461bcd60e51b81526004016200052e90620027fd565b60015460405163e2fb4e7760e01b8152600481018390526000916001600160a01b03169063e2fb4e7790602401602060405180830381865afa15801562000f65573d6000803e3d6000fd5b505050506040513d601f19601f8201168201806040525081019062000f8b9190620028a1565b60015460405163f572003760e01b81526004810185905291925060009160119183916001600160a01b039091169063f572003790602401602060405180830381865afa15801562000fe0573d6000803e3d6000fd5b505050506040513d601f19601f82011682018060405250810190620010069190620026ad565b81526020810191909152604001600020549050600360ff82161015620010675760405162461bcd60e51b81526020600482015260156024820152744e6f7420656e6f75676820696e73706563746f727360581b60448201526064016200052e565b60045460ff600160a01b90910481169083161080159062001098575060045460ff600160a81b909104811690831611155b620010f25760405162461bcd60e51b815260206004820152602360248201527f486f757365207269736b206f7574206f6620706f6f6c277320626f756e64617260448201526269657360e81b60648201526084016200052e565b6000620010ff8462001638565b6003546040516323b872dd60e01b81529192506001600160a01b0316906323b872dd9062001136903390309086906004016200274c565b6020604051808303816000875af115801562001156573d6000803e3d6000fd5b505050506040513d601f19601f820116820180604052508101906200117c91906200272c565b5080600c6000828254620011919190620028c1565b9091555050600154604051630e75722360e41b8152600481018690526001600160a01b039091169063e757223090602401602060405180830381865afa158015620011e0573d6000803e3d6000fd5b505050506040513d601f19601f82011682018060405250810190620012069190620026ad565b60086000828254620012199190620028c1565b90915550505060009283525050601260205260409020805460ff19166001179055565b62278d006005544262001250919062002840565b1015620012a05760405162461bcd60e51b815260206004820152601d60248201527f506f6f6c207265676973747279206861736e7420656e6465642079657400000060448201526064016200052e565b6007805460ff1916600117905542600655600554600090620012c2906200234a565b604051602001620012d491906200290f565b60405160208183030381529060405290508081604051620012f59062002523565b620013029291906200296c565b604051809103906000f0801580156200131f573d6000803e3d6000fd5b50600280546001600160a01b0319166001600160a01b039290921691821790556040517f43c1304e6d8e952440da044ca17573c4036de9f5ea39ac9cf179fd9f4390478f91620013729184919062002995565b60405180910390a150565b336200138862001ed4565b6001600160a01b031614620013b15760405162461bcd60e51b81526004016200052e9062002770565b620013bd600062002463565b565b600081831115620013d15781620013d3565b825b9392505050565b60075460ff166200142e5760405162461bcd60e51b815260206004820152601b60248201527f43616e6e6f742062757920706f6f6c20746f6b656e732079657421000000000060448201526064016200052e565b600b54606490620014439060ff1683620029c1565b60ff1611156200148c5760405162461bcd60e51b8152602060048201526013602482015272546f6f206d7563682070657263656e7461676560681b60448201526064016200052e565b600062001498620024b3565b905060006127108360ff1683600c54620014b39190620026dd565b620014bf9190620026dd565b620014cb919062002715565b6003546040516323b872dd60e01b81529192506001600160a01b0316906323b872dd9062001502903390309086906004016200274c565b6020604051808303816000875af115801562001522573d6000803e3d6000fd5b505050506040513d601f19601f820116820180604052508101906200154891906200272c565b5060025460405163a9059cbb60e01b815233600482015260ff851660248201526001600160a01b039091169063a9059cbb906044016020604051808303816000875af11580156200159d573d6000803e3d6000fd5b505050506040513d601f19601f82011682018060405250810190620015c391906200272c565b50600b8054849190600090620015de90849060ff16620029c1565b82546101009290920a60ff81810219909316918316021790915560408051338152918616602083015281018390527fbf459c5cf4bed2a282eeaa1c3adcbd6c4f60172b8817396681101c2d0fc386dd915060600162000abb565b60015460405163e2fb4e7760e01b81526004810183905260009182916001600160a01b039091169063e2fb4e7790602401602060405180830381865afa15801562001687573d6000803e3d6000fd5b505050506040513d601f19601f82011682018060405250810190620016ad9190620028a1565b600154604051630e75722360e41b8152600481018690529192506000916001600160a01b039091169063e757223090602401602060405180830381865afa158015620016fd573d6000803e3d6000fd5b505050506040513d601f19601f82011682018060405250810190620017239190620026ad565b90506064620017368260ff8516620026dd565b62001742919062002715565b949350505050565b60015460405163295d33a960e21b8152600481018490526000916001600160a01b03169063a574cea49060240160c060405180830381865afa15801562001795573d6000803e3d6000fd5b505050506040513d601f19601f82011682018060405250810190620017bb9190620029ff565b606001516000818152601160209081526040808320805482518185028101850190935280835294955092939092918301828280156200182457602002820191906000526020600020905b81546001600160a01b0316815260019091019060200180831162001805575b50505050509050600080600090505b82518160ff1610156200189857336001600160a01b0316838260ff1681518110620018625762001862620027a5565b60200260200101516001600160a01b03160362001883576001915062001898565b806200188f81620027bb565b91505062001833565b5080620018fe5760405162461bcd60e51b815260206004820152602d60248201527f596f7520617265206e6f7420616e20696e73706563746f72206f66207468652060448201526c73656c6563746564206369747960981b60648201526084016200052e565b60008581526010602052604081208054909103620019745760405162461bcd60e51b815260206004820152602c60248201527f43686f73656e20686f75736520646f65736e2774206861766520616e7920636c60448201526b61696d20726571756573747360a01b60648201526084016200052e565b8415620019fb57600181015433906002830190610100900460ff1660038110620019a257620019a2620027a5565b0180546001600160a01b0319166001600160a01b039290921691909117905560018181018054610100900460ff1691620019dc83620027bb565b91906101000a81548160ff021916908360ff1602179055505062001a79565b60018101543390600583019062010000900460ff166003811062001a235762001a23620027a5565b0180546001600160a01b0319166001600160a01b039290921691909117905560018101805462010000900460ff1690600262001a5f83620027bb565b91906101000a81548160ff021916908360ff160217905550505b600454600182015460ff600160b81b90920482169162001aa99162010000810482169161010090910416620029c1565b60ff160362001ecc57600181015460ff620100008204811661010090920416111562001cf1576001818101805460ff191682179055548154604051630e75722360e41b815260048101919091526001600160a01b039091169063e757223090602401602060405180830381865afa15801562001b29573d6000803e3d6000fd5b505050506040513d601f19601f8201168201806040525081019062001b4f9190620026ad565b6009600082825462001b629190620028c1565b909155505060048054600283015460405163079bff8760e31b81526001600160a01b0392831693633cdffc389362001b9d931691016200257a565b600060405180830381600087803b15801562001bb857600080fd5b505af115801562001bcd573d6000803e3d6000fd5b505060048054600385015460405163079bff8760e31b81526001600160a01b039283169550633cdffc38945062001c0a939190921691016200257a565b600060405180830381600087803b15801562001c2557600080fd5b505af115801562001c3a573d6000803e3d6000fd5b5050505060018181015462010000900460ff16900362001cd4576004546001600160a01b03166338a84ded6005830160005b01546040516001600160e01b031960e084901b16815262001c9a916001600160a01b0316906004016200257a565b600060405180830381600087803b15801562001cb557600080fd5b505af115801562001cca573d6000803e3d6000fd5b5050505062001e74565b6004546001600160a01b0316633cdffc3860028084019062001c6c565b60018101805460ff1916600217905560048054600583015460405163079bff8760e31b81526001600160a01b0392831693633cdffc389362001d36931691016200257a565b600060405180830381600087803b15801562001d5157600080fd5b505af115801562001d66573d6000803e3d6000fd5b505060048054600685015460405163079bff8760e31b81526001600160a01b039283169550633cdffc38945062001da3939190921691016200257a565b600060405180830381600087803b15801562001dbe57600080fd5b505af115801562001dd3573d6000803e3d6000fd5b50505050600181810154610100900460ff16900362001e09576004546001600160a01b03166338a84ded60028301600062001c6c565b60048054600783015460405163079bff8760e31b81526001600160a01b0392831693633cdffc389362001e3f931691016200257a565b600060405180830381600087803b15801562001e5a57600080fd5b505af115801562001e6f573d6000803e3d6000fd5b505050505b805460018201546040805192835260ff61010083048116602085015262010000909204909116908201527f5fdfeae6df51d6a0312cd1179989448e84e81a9ea70083643af71f3edfeaad4e9060600160405180910390a15b505050505050565b6000546001600160a01b031690565b600062278d006005544262001ef9919062002840565b11905090565b3362001f0a62001ed4565b6001600160a01b03161462001f335760405162461bcd60e51b81526004016200052e9062002770565b6001600160a01b03811662001f9a5760405162461bcd60e51b815260206004820152602660248201527f4f776e61626c653a206e6577206f776e657220697320746865207a65726f206160448201526564647265737360d01b60648201526084016200052e565b62001fa58162002463565b50565b600754610100900460ff16620020125760405162461bcd60e51b815260206004820152602860248201527f43616e277420636c61696d207965742e20496e737572616e6365206861736e276044820152673a1032b73232b21760c11b60648201526084016200052e565b600154604051632f397ebb60e11b8152600481018390526001600160a01b0390911690635e72fd7690602401602060405180830381865afa1580156200205c573d6000803e3d6000fd5b505050506040513d601f19601f82011682018060405250810190620020829190620027dd565b6001600160a01b0316336001600160a01b031614620020ef5760405162461bcd60e51b815260206004820152602260248201527f596f7520617265206e6f7420746865206f776e6572206f662074686520686f75604482015261736560f01b60648201526084016200052e565b600360008281526010602052604090206001015460ff1660038111156200211a576200211a62002632565b03620021655760405162461bcd60e51b81526020600482015260196024820152782cb7bab91030b9329030b63932b0b23c9031b630b4b6b2b21760391b60448201526064016200052e565b600160008281526010602052604090206001015460ff16600381111562002190576200219062002632565b14620021e95760405162461bcd60e51b815260206004820152602160248201527f596f75722072657175657374206861736e2774206265656e206772616e7465646044820152601760f91b60648201526084016200052e565b600954600e54600154604051630e75722360e41b815260048101859052600093620022f393909290916001600160a01b039091169063e757223090602401602060405180830381865afa15801562002245573d6000803e3d6000fd5b505050506040513d601f19601f820116820180604052508101906200226b9190620026ad565b620022779190620026dd565b62002283919062002715565b600154604051630e75722360e41b8152600481018690526001600160a01b039091169063e757223090602401602060405180830381865afa158015620022cd573d6000803e3d6000fd5b505050506040513d601f19601f820116820180604052508101906200034f9190620026ad565b60008381526010602052604090819020600101805460ff1916600390811790915554905163a9059cbb60e01b8152336004820152602481018390529192506001600160a01b03169063a9059cbb90604401620006ec565b606081600003620023725750506040805180820190915260018152600360fc1b602082015290565b8160005b8115620023a25780620023898162002a92565b91506200239a9050600a8362002715565b915062002376565b60008167ffffffffffffffff811115620023c057620023c0620029e9565b6040519080825280601f01601f191660200182016040528015620023eb576020820181803683370190505b5090505b841562001742576200240360018362002840565b915062002412600a8662002aae565b6200241f906030620028c1565b60f81b818381518110620024375762002437620027a5565b60200101906001600160f81b031916908160001a9053506200245b600a8662002715565b9450620023ef565b600080546001600160a01b038381166001600160a01b0319831681178455604051919092169283917f8be0079c531659141344cd1fd0a4f28419497f9722a3daafe3b4186f6b6457e09190a35050565b6004546000908190620024d290600160a81b900460ff16606462002ac5565b60ff169050600062278d0060055442620024ed919062002840565b620024f9919062002715565b905060006200250a826005620026dd565b905060006200251a8285620028c1565b95945050505050565b610c3f8062002aec83390190565b6001600160a01b038116811462001fa557600080fd5b600080604083850312156200255b57600080fd5b8235915060208301356200256f8162002531565b809150509250929050565b6001600160a01b0391909116815260200190565b600060208284031215620025a157600080fd5b5035919050565b60008060408385031215620025bc57600080fd5b50508035926020909101359150565b60ff8116811462001fa557600080fd5b600060208284031215620025ee57600080fd5b8135620013d381620025cb565b801515811462001fa557600080fd5b600080604083850312156200261e57600080fd5b8235915060208301356200256f81620025fb565b634e487b7160e01b600052602160045260246000fd5b84815260808101600485106200266e57634e487b7160e01b600052602160045260246000fd5b602082019490945260ff92831660408201529116606090910152919050565b600060208284031215620026a057600080fd5b8135620013d38162002531565b600060208284031215620026c057600080fd5b5051919050565b634e487b7160e01b600052601160045260246000fd5b6000816000190483118215151615620026fa57620026fa620026c7565b500290565b634e487b7160e01b600052601260045260246000fd5b600082620027275762002727620026ff565b500490565b6000602082840312156200273f57600080fd5b8151620013d381620025fb565b6001600160a01b039384168152919092166020820152604081019190915260600190565b6020808252818101527f4f776e61626c653a2063616c6c6572206973206e6f7420746865206f776e6572604082015260600190565b634e487b7160e01b600052603260045260246000fd5b600060ff821660ff8103620027d457620027d4620026c7565b60010192915050565b600060208284031215620027f057600080fd5b8151620013d38162002531565b60208082526023908201527f596f7520617265206e6f7420746865206f776e6572206f66207468697320686f60408201526275736560e81b606082015260800190565b600082821015620028555762002855620026c7565b500390565b6020808252818101527f496e737572616e636520706572696f64206861736e7420656e64656420796574604082015260600190565b80516200289c81620025cb565b919050565b600060208284031215620028b457600080fd5b8151620013d381620025cb565b60008219821115620028d757620028d7620026c7565b500190565b60005b83811015620028f9578181015183820152602001620028df565b8381111562002909576000848401525b50505050565b64506f6f6c2d60d81b81526000825162002931816005850160208701620028dc565b9190910160050192915050565b6000815180845262002958816020860160208601620028dc565b601f01601f19169290920160200192915050565b6040815260006200298160408301856200293e565b82810360208401526200251a81856200293e565b604081526000620029aa60408301856200293e565b905060018060a01b03831660208301529392505050565b600060ff821660ff84168060ff03821115620029e157620029e1620026c7565b019392505050565b634e487b7160e01b600052604160045260246000fd5b600060c0828403121562002a1257600080fd5b60405160c0810181811067ffffffffffffffff8211171562002a4457634e487b7160e01b600052604160045260246000fd5b8060405250825181526020830151602082015262002a65604084016200288f565b6040820152606083015160608201526080830151608082015260a083015160a08201528091505092915050565b60006001820162002aa75762002aa7620026c7565b5060010190565b60008262002ac05762002ac0620026ff565b500690565b600060ff821660ff84168082101562002ae25762002ae2620026c7565b9003939250505056fe60806040523480156200001157600080fd5b5060405162000c3f38038062000c3f8339810160408190526200003491620002dc565b8151829082906200004d90600390602085019062000169565b5080516200006390600490602084019062000169565b505050620000793360646200008160201b60201c565b5050620003a9565b6001600160a01b038216620000dc5760405162461bcd60e51b815260206004820152601f60248201527f45524332303a206d696e7420746f20746865207a65726f206164647265737300604482015260640160405180910390fd5b8060026000828254620000f0919062000346565b90915550506001600160a01b038216600090815260208190526040812080548392906200011f90849062000346565b90915550506040518181526001600160a01b038316906000907fddf252ad1be2c89b69c2b068fc378daa952ba7f163c4a11628f55a4df523b3ef9060200160405180910390a35050565b82805462000177906200036d565b90600052602060002090601f0160209004810192826200019b5760008555620001e6565b82601f10620001b657805160ff1916838001178555620001e6565b82800160010185558215620001e6579182015b82811115620001e6578251825591602001919060010190620001c9565b50620001f4929150620001f8565b5090565b5b80821115620001f45760008155600101620001f9565b634e487b7160e01b600052604160045260246000fd5b600082601f8301126200023757600080fd5b81516001600160401b03808211156200025457620002546200020f565b604051601f8301601f19908116603f011681019082821181831017156200027f576200027f6200020f565b816040528381526020925086838588010111156200029c57600080fd5b600091505b83821015620002c05785820183015181830184015290820190620002a1565b83821115620002d25760008385830101525b9695505050505050565b60008060408385031215620002f057600080fd5b82516001600160401b03808211156200030857600080fd5b620003168683870162000225565b935060208501519150808211156200032d57600080fd5b506200033c8582860162000225565b9150509250929050565b600082198211156200036857634e487b7160e01b600052601160045260246000fd5b500190565b600181811c908216806200038257607f821691505b602082108103620003a357634e487b7160e01b600052602260045260246000fd5b50919050565b61088680620003b96000396000f3fe608060405234801561001057600080fd5b50600436106100a95760003560e01c80633950935111610071578063395093511461012357806370a082311461013657806395d89b411461015f578063a457c2d714610167578063a9059cbb1461017a578063dd62ed3e1461018d57600080fd5b806306fdde03146100ae578063095ea7b3146100cc57806318160ddd146100ef57806323b872dd14610101578063313ce56714610114575b600080fd5b6100b66101a0565b6040516100c391906106c4565b60405180910390f35b6100df6100da366004610735565b610232565b60405190151581526020016100c3565b6002545b6040519081526020016100c3565b6100df61010f36600461075f565b61024a565b604051601281526020016100c3565b6100df610131366004610735565b61026e565b6100f361014436600461079b565b6001600160a01b031660009081526020819052604090205490565b6100b6610290565b6100df610175366004610735565b61029f565b6100df610188366004610735565b61031f565b6100f361019b3660046107bd565b61032d565b6060600380546101af906107f0565b80601f01602080910402602001604051908101604052809291908181526020018280546101db906107f0565b80156102285780601f106101fd57610100808354040283529160200191610228565b820191906000526020600020905b81548152906001019060200180831161020b57829003601f168201915b5050505050905090565b600033610240818585610358565b5060019392505050565b60003361025885828561047c565b6102638585856104f6565b506001949350505050565b600033610240818585610281838361032d565b61028b919061082a565b610358565b6060600480546101af906107f0565b600033816102ad828661032d565b9050838110156103125760405162461bcd60e51b815260206004820152602560248201527f45524332303a2064656372656173656420616c6c6f77616e63652062656c6f77604482015264207a65726f60d81b60648201526084015b60405180910390fd5b6102638286868403610358565b6000336102408185856104f6565b6001600160a01b03918216600090815260016020908152604080832093909416825291909152205490565b6001600160a01b0383166103ba5760405162461bcd60e51b8152602060048201526024808201527f45524332303a20617070726f76652066726f6d20746865207a65726f206164646044820152637265737360e01b6064820152608401610309565b6001600160a01b03821661041b5760405162461bcd60e51b815260206004820152602260248201527f45524332303a20617070726f766520746f20746865207a65726f206164647265604482015261737360f01b6064820152608401610309565b6001600160a01b0383811660008181526001602090815260408083209487168084529482529182902085905590518481527f8c5be1e5ebec7d5bd14f71427d1e84f3dd0314c0f7b2291e5b200ac8c7c3b925910160405180910390a3505050565b6000610488848461032d565b905060001981146104f057818110156104e35760405162461bcd60e51b815260206004820152601d60248201527f45524332303a20696e73756666696369656e7420616c6c6f77616e63650000006044820152606401610309565b6104f08484848403610358565b50505050565b6001600160a01b03831661055a5760405162461bcd60e51b815260206004820152602560248201527f45524332303a207472616e736665722066726f6d20746865207a65726f206164604482015264647265737360d81b6064820152608401610309565b6001600160a01b0382166105bc5760405162461bcd60e51b815260206004820152602360248201527f45524332303a207472616e7366657220746f20746865207a65726f206164647260448201526265737360e81b6064820152608401610309565b6001600160a01b038316600090815260208190526040902054818110156106345760405162461bcd60e51b815260206004820152602660248201527f45524332303a207472616e7366657220616d6f756e7420657863656564732062604482015265616c616e636560d01b6064820152608401610309565b6001600160a01b0380851660009081526020819052604080822085850390559185168152908120805484929061066b90849061082a565b92505081905550826001600160a01b0316846001600160a01b03167fddf252ad1be2c89b69c2b068fc378daa952ba7f163c4a11628f55a4df523b3ef846040516106b791815260200190565b60405180910390a36104f0565b600060208083528351808285015260005b818110156106f1578581018301518582016040015282016106d5565b81811115610703576000604083870101525b50601f01601f1916929092016040019392505050565b80356001600160a01b038116811461073057600080fd5b919050565b6000806040838503121561074857600080fd5b61075183610719565b946020939093013593505050565b60008060006060848603121561077457600080fd5b61077d84610719565b925061078b60208501610719565b9150604084013590509250925092565b6000602082840312156107ad57600080fd5b6107b682610719565b9392505050565b600080604083850312156107d057600080fd5b6107d983610719565b91506107e760208401610719565b90509250929050565b600181811c9082168061080457607f821691505b60208210810361082457634e487b7160e01b600052602260045260246000fd5b50919050565b6000821982111561084b57634e487b7160e01b600052601160045260246000fd5b50019056fea2646970667358221220ee0c65e52faa0d3e987ed1c0417894143258d4d1b79cdb84a9d77fc536f9712664736f6c634300080e0033a2646970667358221220ccc9ce4f34dbb345e9c97dcc5b9173b797cc0b425b317f3e23e4bc13a445bc0664736f6c634300080e0033",
  "linkReferences": {},
  "deployedLinkReferences": {}
}