{
  "_format": "hh-sol-artifact-1",
  "contractName": "Pool",
  "sourceName": "contracts/Pool.sol",
  "abi": [
    {
      "inputs": [
        {
          "internalType": "contract DeedNFT",
          "name": "_nftCtc",
          "type": "address"
        },
        {
          "internalType": "contract IERC20",
          "name": "_stableToken",
          "type": "address"
        },
        {
          "internalType": "uint8",
          "name": "_minPoolRisk",
          "type": "uint8"
        },
        {
          "internalType": "uint8",
          "name": "_maxPoolRisk",
          "type": "uint8"
        },
        {
          "internalType": "uint8",
          "name": "_entranceFeePerc",
          "type": "uint8"
        },
        {
          "internalType": "uint8",
          "name": "_inspectorPerCity",
          "type": "uint8"
        },
        {
          "internalType": "contract Staking",
          "name": "_stakeCtc",
          "type": "address"
        },
        {
          "internalType": "contract APIConsumer",
          "name": "_consumer",
          "type": "address"
        }
      ],
      "stateMutability": "nonpayable",
      "type": "constructor"
    },
    {
      "anonymous": false,
      "inputs": [],
      "name": "ClaimForHouseOwnersEnded",
      "type": "event"
    },
    {
      "anonymous": false,
      "inputs": [],
      "name": "InsurancePeriodEnded",
      "type": "event"
    },
    {
      "anonymous": false,
      "inputs": [
        {
          "indexed": false,
          "internalType": "address",
          "name": "insurer",
          "type": "address"
        },
        {
          "indexed": false,
          "internalType": "uint8",
          "name": "percentage",
          "type": "uint8"
        },
        {
          "indexed": false,
          "internalType": "uint256",
          "name": "amount",
          "type": "uint256"
        }
      ],
      "name": "InvestedInPool",
      "type": "event"
    },
    {
      "anonymous": false,
      "inputs": [
        {
          "indexed": true,
          "internalType": "address",
          "name": "previousOwner",
          "type": "address"
        },
        {
          "indexed": true,
          "internalType": "address",
          "name": "newOwner",
          "type": "address"
        }
      ],
      "name": "OwnershipTransferred",
      "type": "event"
    },
    {
      "anonymous": false,
      "inputs": [
        {
          "indexed": false,
          "internalType": "string",
          "name": "name",
          "type": "string"
        },
        {
          "indexed": false,
          "internalType": "address",
          "name": "poolToken",
          "type": "address"
        }
      ],
      "name": "PoolRegistrationEnded",
      "type": "event"
    },
    {
      "anonymous": false,
      "inputs": [
        {
          "indexed": false,
          "internalType": "uint256",
          "name": "tokenId",
          "type": "uint256"
        }
      ],
      "name": "RequestOpenedForVoting",
      "type": "event"
    },
    {
      "anonymous": false,
      "inputs": [
        {
          "indexed": false,
          "internalType": "uint256",
          "name": "tokenId",
          "type": "uint256"
        },
        {
          "indexed": false,
          "internalType": "uint8",
          "name": "grants",
          "type": "uint8"
        },
        {
          "indexed": false,
          "internalType": "uint8",
          "name": "denies",
          "type": "uint8"
        }
      ],
      "name": "RequestVotingEnded",
      "type": "event"
    },
    {
      "inputs": [
        {
          "internalType": "uint256",
          "name": "zipCode",
          "type": "uint256"
        },
        {
          "internalType": "address",
          "name": "inspector",
          "type": "address"
        }
      ],
      "name": "addInspector",
      "outputs": [],
      "stateMutability": "nonpayable",
      "type": "function"
    },
    {
      "inputs": [],
      "name": "amountAtTheEnd",
      "outputs": [
        {
          "internalType": "uint256",
          "name": "",
          "type": "uint256"
        }
      ],
      "stateMutability": "view",
      "type": "function"
    },
    {
      "inputs": [],
      "name": "amountLeftToInsurers",
      "outputs": [
        {
          "internalType": "uint256",
          "name": "",
          "type": "uint256"
        }
      ],
      "stateMutability": "view",
      "type": "function"
    },
    {
      "inputs": [
        {
          "internalType": "uint8",
          "name": "percentage",
          "type": "uint8"
        }
      ],
      "name": "buyPoolTokens",
      "outputs": [],
      "stateMutability": "nonpayable",
      "type": "function"
    },
    {
      "inputs": [
        {
          "internalType": "uint256",
          "name": "tokenId",
          "type": "uint256"
        }
      ],
      "name": "calcEntranceFee",
      "outputs": [
        {
          "internalType": "uint256",
          "name": "",
          "type": "uint256"
        }
      ],
      "stateMutability": "view",
      "type": "function"
    },
    {
      "inputs": [],
      "name": "canBuyTokens",
      "outputs": [
        {
          "internalType": "bool",
          "name": "",
          "type": "bool"
        }
      ],
      "stateMutability": "view",
      "type": "function"
    },
    {
      "inputs": [],
      "name": "canClaim",
      "outputs": [
        {
          "internalType": "bool",
          "name": "",
          "type": "bool"
        }
      ],
      "stateMutability": "view",
      "type": "function"
    },
    {
      "inputs": [],
      "name": "canInsurerClaim",
      "outputs": [
        {
          "internalType": "bool",
          "name": "",
          "type": "bool"
        }
      ],
      "stateMutability": "view",
      "type": "function"
    },
    {
      "inputs": [
        {
          "internalType": "uint256",
          "name": "tokenId",
          "type": "uint256"
        }
      ],
      "name": "claimFundsForHouseOwner",
      "outputs": [],
      "stateMutability": "nonpayable",
      "type": "function"
    },
    {
      "inputs": [],
      "name": "claimFundsForInsurer",
      "outputs": [],
      "stateMutability": "nonpayable",
      "type": "function"
    },
    {
      "inputs": [
        {
          "internalType": "uint256",
          "name": "",
          "type": "uint256"
        }
      ],
      "name": "claimRequests",
      "outputs": [
        {
          "internalType": "uint256",
          "name": "tokenId",
          "type": "uint256"
        },
        {
          "internalType": "enum Pool.RequestStatus",
          "name": "status",
          "type": "uint8"
        },
        {
          "internalType": "uint8",
          "name": "grantVotes",
          "type": "uint8"
        },
        {
          "internalType": "uint8",
          "name": "denyVotes",
          "type": "uint8"
        }
      ],
      "stateMutability": "view",
      "type": "function"
    },
    {
      "inputs": [],
      "name": "endClaimPeriod",
      "outputs": [],
      "stateMutability": "nonpayable",
      "type": "function"
    },
    {
      "inputs": [],
      "name": "endInsurancePeriod",
      "outputs": [],
      "stateMutability": "nonpayable",
      "type": "function"
    },
    {
      "inputs": [],
      "name": "endPoolRegistrationPeriod",
      "outputs": [],
      "stateMutability": "nonpayable",
      "type": "function"
    },
    {
      "inputs": [
        {
          "internalType": "uint256",
          "name": "tokenId",
          "type": "uint256"
        }
      ],
      "name": "enterPool",
      "outputs": [],
      "stateMutability": "nonpayable",
      "type": "function"
    },
    {
      "inputs": [],
      "name": "entranceFeePerc",
      "outputs": [
        {
          "internalType": "uint8",
          "name": "",
          "type": "uint8"
        }
      ],
      "stateMutability": "view",
      "type": "function"
    },
    {
      "inputs": [],
      "name": "getPoolTokenAddress",
      "outputs": [
        {
          "internalType": "address",
          "name": "",
          "type": "address"
        }
      ],
      "stateMutability": "view",
      "type": "function"
    },
    {
      "inputs": [
        {
          "internalType": "uint256",
          "name": "",
          "type": "uint256"
        }
      ],
      "name": "housesInPool",
      "outputs": [
        {
          "internalType": "bool",
          "name": "",
          "type": "bool"
        }
      ],
      "stateMutability": "view",
      "type": "function"
    },
    {
      "inputs": [],
      "name": "inspectorPerCity",
      "outputs": [
        {
          "internalType": "uint8",
          "name": "",
          "type": "uint8"
        }
      ],
      "stateMutability": "view",
      "type": "function"
    },
    {
      "inputs": [],
      "name": "isInsurancePeriodOver",
      "outputs": [
        {
          "internalType": "bool",
          "name": "",
          "type": "bool"
        }
      ],
      "stateMutability": "view",
      "type": "function"
    },
    {
      "inputs": [
        {
          "internalType": "uint256",
          "name": "tokenId",
          "type": "uint256"
        }
      ],
      "name": "makeClaimRequest",
      "outputs": [],
      "stateMutability": "nonpayable",
      "type": "function"
    },
    {
      "inputs": [],
      "name": "maxPoolRisk",
      "outputs": [
        {
          "internalType": "uint8",
          "name": "",
          "type": "uint8"
        }
      ],
      "stateMutability": "view",
      "type": "function"
    },
    {
      "inputs": [
        {
          "internalType": "uint256",
          "name": "a",
          "type": "uint256"
        },
        {
          "internalType": "uint256",
          "name": "b",
          "type": "uint256"
        }
      ],
      "name": "min",
      "outputs": [
        {
          "internalType": "uint256",
          "name": "",
          "type": "uint256"
        }
      ],
      "stateMutability": "pure",
      "type": "function"
    },
    {
      "inputs": [],
      "name": "minPoolRisk",
      "outputs": [
        {
          "internalType": "uint8",
          "name": "",
          "type": "uint8"
        }
      ],
      "stateMutability": "view",
      "type": "function"
    },
    {
      "inputs": [],
      "name": "owner",
      "outputs": [
        {
          "internalType": "address",
          "name": "",
          "type": "address"
        }
      ],
      "stateMutability": "view",
      "type": "function"
    },
    {
      "inputs": [
        {
          "internalType": "uint256",
          "name": "tokenId",
          "type": "uint256"
        }
      ],
      "name": "preRequestCheckEarthQuake",
      "outputs": [],
      "stateMutability": "nonpayable",
      "type": "function"
    },
    {
      "inputs": [],
      "name": "remainingHousesGranted",
      "outputs": [
        {
          "internalType": "uint256",
          "name": "",
          "type": "uint256"
        }
      ],
      "stateMutability": "view",
      "type": "function"
    },
    {
      "inputs": [],
      "name": "renounceOwnership",
      "outputs": [],
      "stateMutability": "nonpayable",
      "type": "function"
    },
    {
      "inputs": [],
      "name": "soldPercentage",
      "outputs": [
        {
          "internalType": "uint8",
          "name": "",
          "type": "uint8"
        }
      ],
      "stateMutability": "view",
      "type": "function"
    },
    {
      "inputs": [],
      "name": "startTime",
      "outputs": [
        {
          "internalType": "uint256",
          "name": "",
          "type": "uint256"
        }
      ],
      "stateMutability": "view",
      "type": "function"
    },
    {
      "inputs": [
        {
          "internalType": "uint256",
          "name": "",
          "type": "uint256"
        }
      ],
      "name": "tokenIdsToRequestIds",
      "outputs": [
        {
          "internalType": "bytes32",
          "name": "",
          "type": "bytes32"
        }
      ],
      "stateMutability": "view",
      "type": "function"
    },
    {
      "inputs": [],
      "name": "tokenSaleStart",
      "outputs": [
        {
          "internalType": "uint256",
          "name": "",
          "type": "uint256"
        }
      ],
      "stateMutability": "view",
      "type": "function"
    },
    {
      "inputs": [],
      "name": "totalAmountRegistered",
      "outputs": [
        {
          "internalType": "uint256",
          "name": "",
          "type": "uint256"
        }
      ],
      "stateMutability": "view",
      "type": "function"
    },
    {
      "inputs": [],
      "name": "totalPoolBalance",
      "outputs": [
        {
          "internalType": "uint256",
          "name": "",
          "type": "uint256"
        }
      ],
      "stateMutability": "view",
      "type": "function"
    },
    {
      "inputs": [],
      "name": "totalPriceHouseGranted",
      "outputs": [
        {
          "internalType": "uint256",
          "name": "",
          "type": "uint256"
        }
      ],
      "stateMutability": "view",
      "type": "function"
    },
    {
      "inputs": [],
      "name": "totalSoldPoolBalance",
      "outputs": [
        {
          "internalType": "uint256",
          "name": "",
          "type": "uint256"
        }
      ],
      "stateMutability": "view",
      "type": "function"
    },
    {
      "inputs": [
        {
          "internalType": "address",
          "name": "newOwner",
          "type": "address"
        }
      ],
      "name": "transferOwnership",
      "outputs": [],
      "stateMutability": "nonpayable",
      "type": "function"
    },
    {
      "inputs": [
        {
          "internalType": "uint256",
          "name": "tokenId",
          "type": "uint256"
        },
        {
          "internalType": "bool",
          "name": "vote",
          "type": "bool"
        }
      ],
      "name": "voteForClaimRequest",
      "outputs": [],
      "stateMutability": "nonpayable",
      "type": "function"
    }
  ],
  "bytecode": "0x60806040523480156200001157600080fd5b5060405162003eaa38038062003eaa833981016040819052620000349162000171565b6200003f33620000f1565b600180546001600160a01b03199081166001600160a01b039a8b1617909155600380548216988a1698909817909755600480544260055561ffff60a01b1916600160a01b60ff9889160260ff60a81b191617600160a81b968816969096029590951761ffff60b01b1916600160b01b9487169490940260ff60b81b191693909317600160b81b9290951691909102939093178416928516929092179055600b8054909216921691909117905562000225565b600080546001600160a01b038381166001600160a01b0319831681178455604051919092169283917f8be0079c531659141344cd1fd0a4f28419497f9722a3daafe3b4186f6b6457e09190a35050565b6001600160a01b03811681146200015757600080fd5b50565b805160ff811681146200016c57600080fd5b919050565b600080600080600080600080610100898b0312156200018f57600080fd5b88516200019c8162000141565b60208a0151909850620001af8162000141565b9650620001bf60408a016200015a565b9550620001cf60608a016200015a565b9450620001df60808a016200015a565b9350620001ef60a08a016200015a565b925060c0890151620002018162000141565b60e08a0151909250620002148162000141565b809150509295985092959890939650565b613c7580620002356000396000f3fe60806040523480156200001157600080fd5b50600436106200023f5760003560e01c806378e9792511620001385780638da5cb5b11620000c7578063d385014d1162000086578063d385014d14620004b9578063de122912146200050b578063f2fde38b1462000515578063f36f2cc8146200052c578063f40a7306146200054157600080fd5b80638da5cb5b1462000471578063b1232525146200047b578063b4b28eeb1462000485578063b83313cc146200049a578063bc40072814620004af57600080fd5b806378e97925146200039e5780637aca3f5714620003a85780637ae2b5c714620003b25780637bf8e6b614620003c95780637fe2fbc014620003e05780638197300514620004065780638a0c655e146200041d5780638beff37014620004455780638c1b49f6146200045a57600080fd5b8063403911a611620001d25780635f951eab11620001915780635f951eab14620003525780636dc7a6271462000369578063705c2319146200037c578063715018a6146200038657806378710f72146200039057600080fd5b8063403911a614620003205780634e0eb447146200032a5780635026d63e146200033457806357c9ea43146200033e5780635e630c46146200034857600080fd5b8063098a37f714620002445780630bcb8de614620002615780630d91403514620002865780631341fbf8146200029257806315bb4b4e14620002a9578063165aaf5e14620002c0578063194d28a614620002ca57806326b94c6e14620002e657806335633aeb14620002fd575b600080fd5b6200024e600e5481565b6040519081526020015b60405180910390f35b600754620002759062010000900460ff1681565b604051901515815260200162000258565b6200029062000558565b005b62000290620002a336600462002a0f565b620007b2565b62000290620002ba36600462002a3f565b62000b14565b6200024e60085481565b6002546001600160a01b03165b60405162000258919062002a72565b62000290620002f736600462002a0f565b62000c97565b6200024e6200030e36600462002a0f565b60136020526000908152604090205481565b6200024e60065481565b6200029062000f87565b6200024e600c5481565b6200024e600d5481565b62000290620011b5565b620002906200036336600462002a0f565b620012d2565b6007546200027590610100900460ff1681565b62000290620016fb565b620002906200183c565b600754620002759060ff1681565b6200024e60055481565b6200024e600f5481565b6200024e620003c336600462002a86565b6200187e565b62000290620003da36600462002ab9565b62001899565b62000275620003f136600462002a0f565b60126020526000908152604090205460ff1681565b6200024e6200041736600462002a0f565b62001b0b565b6004546200043290600160b01b900460ff1681565b60405160ff909116815260200162000258565b6004546200043290600160b81b900460ff1681565b620002906200046b36600462002ae8565b62001c1d565b620002d7620023a7565b6200024e60095481565b6004546200043290600160a01b900460ff1681565b6004546200043290600160a81b900460ff1681565b6200024e600a5481565b620004f9620004ca36600462002a0f565b6010602052600090815260409020805460019091015460ff808216916101008104821691620100009091041684565b60405162000258949392919062002b26565b62000275620023b6565b620002906200052636600462002b6b565b620023dd565b600b546200043290600160a01b900460ff1681565b620002906200055236600462002a0f565b62002486565b60075462010000900460ff16620005b25760405162461bcd60e51b815260206004820152601960248201527824b739bab932b9399031b0b713ba1031b630b4b6903cb2ba1760391b60448201526064015b60405180910390fd5b6002546040516370a0823160e01b81526000916001600160a01b0316906370a0823190620005e590339060040162002a72565b602060405180830381865afa15801562000603573d6000803e3d6000fd5b505050506040513d601f19601f8201168201806040525081019062000629919062002b8b565b905060008160ff16116200068c5760405162461bcd60e51b815260206004820152602360248201527f596f7520646f6e2774206f776e20616e79207368617265206f662074686520706044820152621bdbdb60ea1b6064820152608401620005a9565b600060648260ff16600f54620006a3919062002bbb565b620006af919062002bf3565b6002546040516323b872dd60e01b815233600482015230602482015260ff851660448201529192506001600160a01b0316906323b872dd906064016020604051808303816000875af11580156200070a573d6000803e3d6000fd5b505050506040513d601f19601f8201168201806040525081019062000730919062002c0a565b506003546040516323b872dd60e01b81526001600160a01b03909116906323b872dd90620007679030903390869060040162002c2a565b6020604051808303816000875af115801562000787573d6000803e3d6000fd5b505050506040513d601f19601f82011682018060405250810190620007ad919062002c0a565b505050565b60008181526012602052604090205460ff16620008095760405162461bcd60e51b8152602060048201526014602482015273121bdd5cd9481a5cc81b9bdd081a5b881c1bdbdb60621b6044820152606401620005a9565b60008181526010602052604090205415620008385760405162461bcd60e51b8152600401620005a99062002c4e565b600154604051632f397ebb60e11b81526004810183905233916001600160a01b031690635e72fd7690602401602060405180830381865afa15801562000882573d6000803e3d6000fd5b505050506040513d601f19601f82011682018060405250810190620008a8919062002c85565b6001600160a01b031614620008d15760405162461bcd60e51b8152600401620005a99062002ca5565b60075460ff16620009255760405162461bcd60e51b815260206004820181905260248201527f496e737572616e636520706572696f6420686173206e6f7420737461727465646044820152606401620005a9565b60008181526013602052604090205415620009835760405162461bcd60e51b815260206004820152601f60248201527f596f75206861766520616c7265616479206d61646520612072657175657374006044820152606401620005a9565b6001546040516395c14c6560e01b8152600481018390526000916001600160a01b0316906395c14c6590602401602060405180830381865afa158015620009ce573d6000803e3d6000fd5b505050506040513d601f19601f82011682018060405250810190620009f4919062002b8b565b6001546040516358c14a0960e11b8152600481018590529192506000916001600160a01b039091169063b182941290602401602060405180830381865afa15801562000a44573d6000803e3d6000fd5b505050506040513d601f19601f8201168201806040525081019062000a6a919062002b8b565b600b549091506000906001600160a01b0316634c96536162000a8c8562002828565b62000a978562002828565b6040518363ffffffff1660e01b815260040162000ab692919062002d49565b6020604051808303816000875af115801562000ad6573d6000803e3d6000fd5b505050506040513d601f19601f8201168201806040525081019062000afc919062002b8b565b60009485526013602052604090942093909355505050565b3362000b1f620023a7565b6001600160a01b03161462000b485760405162461bcd60e51b8152600401620005a99062002d72565b60008281526011602052604090206004548154600160b81b90910460ff161162000bc15760405162461bcd60e51b8152602060048201526024808201527f496e73706563746f72206c696d6974207265616368656420666f7220746865206044820152636369747960e01b6064820152608401620005a9565b80546000905b808260ff16101562000c6157836001600160a01b0316838360ff168154811062000bf55762000bf562002da7565b6000918252602090912001546001600160a01b03160362000c4e5760405162461bcd60e51b815260206004820152601260248201527120b63932b0b23c9034b739b832b1ba37b91760711b6044820152606401620005a9565b62000c598262002dbd565b915062000bc7565b50508054600181018255600091825260209091200180546001600160a01b0319166001600160a01b039290921691909117905550565b600154604051632f397ebb60e11b81526004810183905233916001600160a01b031690635e72fd7690602401602060405180830381865afa15801562000ce1573d6000803e3d6000fd5b505050506040513d601f19601f8201168201806040525081019062000d07919062002c85565b6001600160a01b03161462000d305760405162461bcd60e51b8152600401620005a99062002ca5565b6000818152601060205260409020541562000d5f5760405162461bcd60e51b8152600401620005a99062002c4e565b6000818152601360205260408120549081900362000df15760405162461bcd60e51b815260206004820152604260248201527f70726552657175657374436865636b45617274685175616b65206861736e277460448201527f206265656e2063616c6c65642070726f7065726c7920666f7220746f6b656e49606482015261321760f11b608482015260a401620005a9565b600b54604051635245774960e11b8152600481018390526000916001600160a01b03169063a48aee9290602401602060405180830381865afa15801562000e3c573d6000803e3d6000fd5b505050506040513d601f19601f8201168201806040525081019062000e62919062002b8b565b90508060000362000ec15760405162461bcd60e51b815260206004820152602260248201527f4469646e277420726563696576652065617274687175616b6520696e666f2079604482015261195d60f21b6064820152608401620005a9565b8060020362000f225760405162461bcd60e51b815260206004820152602660248201527f4e6f2065617274687175616b6520696e2061626f757473206f6620796f7572206044820152653437bab9b29760d11b6064820152608401620005a9565b8060011462000f3057600080fd5b60008381526010602090815260409182902085815560018101805460ff1916905591518581527f85e2490ea44cfc337b45cf9782aa1dba3d6921ce4228539837fd2bcaeb49ac9e910160405180910390a150505050565b3362000f92620023a7565b6001600160a01b03161462000fbb5760405162461bcd60e51b8152600401620005a99062002d72565b630208c0806006544262000fd0919062002ddf565b101562000ff15760405162461bcd60e51b8152600401620005a99062002df9565b6007805462ffff001916620100001790556003546040516370a0823160e01b81526001600160a01b039091169063a9059cbb90339060649084906370a08231906200104190309060040162002a72565b602060405180830381865afa1580156200105f573d6000803e3d6000fd5b505050506040513d601f19601f8201168201806040525081019062001085919062002b8b565b6200109290600162002bbb565b6200109e919062002bf3565b6040516001600160e01b031960e085901b1681526001600160a01b03909216600483015260248201526044016020604051808303816000875af1158015620010ea573d6000803e3d6000fd5b505050506040513d601f19601f8201168201806040525081019062001110919062002c0a565b506003546040516370a0823160e01b81526001600160a01b03909116906370a08231906200114390309060040162002a72565b602060405180830381865afa15801562001161573d6000803e3d6000fd5b505050506040513d601f19601f8201168201806040525081019062001187919062002b8b565b600f556040517f1d5c20ef17bd2270e0e043c2a0c45a2d09c7ee687612ca65ff8ebb7981c7519690600090a1565b33620011c0620023a7565b6001600160a01b031614620011e95760405162461bcd60e51b8152600401620005a99062002d72565b6301e1338060065442620011fe919062002ddf565b10156200121f5760405162461bcd60e51b8152600401620005a99062002df9565b6007805461ffff19166101001790556003546040516370a0823160e01b81526001600160a01b03909116906370a08231906200126090309060040162002a72565b602060405180830381865afa1580156200127e573d6000803e3d6000fd5b505050506040513d601f19601f82011682018060405250810190620012a4919062002b8b565b600e556040517f9e738ba48316d171f3e10a1f4e79e2d93a5d734a3dde8817e79294b2ed850ce590600090a1565b62278d0060055442620012e6919062002ddf565b1115620013365760405162461bcd60e51b815260206004820152601a60248201527f496e737572616e636520706572696f642068617320656e6465640000000000006044820152606401620005a9565b600154604051632f397ebb60e11b8152600481018390526001600160a01b0390911690635e72fd7690602401602060405180830381865afa15801562001380573d6000803e3d6000fd5b505050506040513d601f19601f82011682018060405250810190620013a6919062002c85565b6001600160a01b0316336001600160a01b031614620013d95760405162461bcd60e51b8152600401620005a99062002ca5565b60015460405163e2fb4e7760e01b8152600481018390526000916001600160a01b03169063e2fb4e7790602401602060405180830381865afa15801562001424573d6000803e3d6000fd5b505050506040513d601f19601f820116820180604052508101906200144a919062002e40565b60015460405163f572003760e01b81526004810185905291925060009160119183916001600160a01b039091169063f572003790602401602060405180830381865afa1580156200149f573d6000803e3d6000fd5b505050506040513d601f19601f82011682018060405250810190620014c5919062002b8b565b81526020810191909152604001600020549050600360ff82161015620015265760405162461bcd60e51b81526020600482015260156024820152744e6f7420656e6f75676820696e73706563746f727360581b6044820152606401620005a9565b60045460ff600160a01b90910481169083161080159062001557575060045460ff600160a81b909104811690831611155b620015b15760405162461bcd60e51b815260206004820152602360248201527f486f757365207269736b206f7574206f6620706f6f6c277320626f756e64617260448201526269657360e81b6064820152608401620005a9565b6000620015be8462001b0b565b6003546040516323b872dd60e01b81529192506001600160a01b0316906323b872dd90620015f59033903090869060040162002c2a565b6020604051808303816000875af115801562001615573d6000803e3d6000fd5b505050506040513d601f19601f820116820180604052508101906200163b919062002c0a565b5080600c600082825462001650919062002e60565b9091555050600154604051630e75722360e41b8152600481018690526001600160a01b039091169063e757223090602401602060405180830381865afa1580156200169f573d6000803e3d6000fd5b505050506040513d601f19601f82011682018060405250810190620016c5919062002b8b565b60086000828254620016d8919062002e60565b90915550505060009283525050601260205260409020805460ff19166001179055565b62278d00600554426200170f919062002ddf565b10156200175f5760405162461bcd60e51b815260206004820152601d60248201527f506f6f6c207265676973747279206861736e7420656e646564207965740000006044820152606401620005a9565b6007805460ff1916600117905542600655600554600090620017819062002828565b60405160200162001793919062002e7b565b60405160208183030381529060405290508081604051620017b49062002a01565b620017c192919062002d49565b604051809103906000f080158015620017de573d6000803e3d6000fd5b50600280546001600160a01b0319166001600160a01b039290921691821790556040517f43c1304e6d8e952440da044ca17573c4036de9f5ea39ac9cf179fd9f4390478f91620018319184919062002eaa565b60405180910390a150565b3362001847620023a7565b6001600160a01b031614620018705760405162461bcd60e51b8152600401620005a99062002d72565b6200187c600062002941565b565b60008183111562001890578162001892565b825b9392505050565b60075460ff16620018ed5760405162461bcd60e51b815260206004820152601b60248201527f43616e6e6f742062757920706f6f6c20746f6b656e73207965742100000000006044820152606401620005a9565b600b546064906200190990600160a01b900460ff168362002ed6565b60ff161115620019525760405162461bcd60e51b8152602060048201526013602482015272546f6f206d7563682070657263656e7461676560681b6044820152606401620005a9565b60006200195e62002991565b905060006127108360ff1683600c5462001979919062002bbb565b62001985919062002bbb565b62001991919062002bf3565b6003546040516323b872dd60e01b81529192506001600160a01b0316906323b872dd90620019c89033903090869060040162002c2a565b6020604051808303816000875af1158015620019e8573d6000803e3d6000fd5b505050506040513d601f19601f8201168201806040525081019062001a0e919062002c0a565b5060025460405163a9059cbb60e01b815233600482015260ff851660248201526001600160a01b039091169063a9059cbb906044016020604051808303816000875af115801562001a63573d6000803e3d6000fd5b505050506040513d601f19601f8201168201806040525081019062001a89919062002c0a565b5082600b60148282829054906101000a900460ff1662001aaa919062002ed6565b82546101009290920a60ff81810219909316918316021790915560408051338152918616602083015281018390527fbf459c5cf4bed2a282eeaa1c3adcbd6c4f60172b8817396681101c2d0fc386dd915060600160405180910390a1505050565b60015460405163e2fb4e7760e01b81526004810183905260009182916001600160a01b039091169063e2fb4e7790602401602060405180830381865afa15801562001b5a573d6000803e3d6000fd5b505050506040513d601f19601f8201168201806040525081019062001b80919062002e40565b600154604051630e75722360e41b8152600481018690529192506000916001600160a01b039091169063e757223090602401602060405180830381865afa15801562001bd0573d6000803e3d6000fd5b505050506040513d601f19601f8201168201806040525081019062001bf6919062002b8b565b9050606462001c098260ff851662002bbb565b62001c15919062002bf3565b949350505050565b60015460405163295d33a960e21b8152600481018490526000916001600160a01b03169063a574cea49060240160c060405180830381865afa15801562001c68573d6000803e3d6000fd5b505050506040513d601f19601f8201168201806040525081019062001c8e919062002f14565b6060015160008181526011602090815260408083208054825181850281018501909352808352949550929390929183018282801562001cf757602002820191906000526020600020905b81546001600160a01b0316815260019091019060200180831162001cd8575b50505050509050600080600090505b82518160ff16101562001d6b57336001600160a01b0316838260ff168151811062001d355762001d3562002da7565b60200260200101516001600160a01b03160362001d56576001915062001d6b565b8062001d628162002dbd565b91505062001d06565b508062001dd15760405162461bcd60e51b815260206004820152602d60248201527f596f7520617265206e6f7420616e20696e73706563746f72206f66207468652060448201526c73656c6563746564206369747960981b6064820152608401620005a9565b6000858152601060205260408120805490910362001e475760405162461bcd60e51b815260206004820152602c60248201527f43686f73656e20686f75736520646f65736e2774206861766520616e7920636c60448201526b61696d20726571756573747360a01b6064820152608401620005a9565b841562001ece57600181015433906002830190610100900460ff166003811062001e755762001e7562002da7565b0180546001600160a01b0319166001600160a01b039290921691909117905560018181018054610100900460ff169162001eaf8362002dbd565b91906101000a81548160ff021916908360ff1602179055505062001f4c565b60018101543390600583019062010000900460ff166003811062001ef65762001ef662002da7565b0180546001600160a01b0319166001600160a01b039290921691909117905560018101805462010000900460ff1690600262001f328362002dbd565b91906101000a81548160ff021916908360ff160217905550505b600454600182015460ff600160b81b90920482169162001f7c916201000081048216916101009091041662002ed6565b60ff16036200239f57600181015460ff6201000082048116610100909204161115620021c4576001818101805460ff191682179055548154604051630e75722360e41b815260048101919091526001600160a01b039091169063e757223090602401602060405180830381865afa15801562001ffc573d6000803e3d6000fd5b505050506040513d601f19601f8201168201806040525081019062002022919062002b8b565b6009600082825462002035919062002e60565b909155505060048054600283015460405163079bff8760e31b81526001600160a01b0392831693633cdffc3893620020709316910162002a72565b600060405180830381600087803b1580156200208b57600080fd5b505af1158015620020a0573d6000803e3d6000fd5b505060048054600385015460405163079bff8760e31b81526001600160a01b039283169550633cdffc389450620020dd9391909216910162002a72565b600060405180830381600087803b158015620020f857600080fd5b505af11580156200210d573d6000803e3d6000fd5b5050505060018181015462010000900460ff169003620021a7576004546001600160a01b03166338a84ded6005830160005b01546040516001600160e01b031960e084901b1681526200216d916001600160a01b03169060040162002a72565b600060405180830381600087803b1580156200218857600080fd5b505af11580156200219d573d6000803e3d6000fd5b5050505062002347565b6004546001600160a01b0316633cdffc386002808401906200213f565b60018101805460ff1916600217905560048054600583015460405163079bff8760e31b81526001600160a01b0392831693633cdffc3893620022099316910162002a72565b600060405180830381600087803b1580156200222457600080fd5b505af115801562002239573d6000803e3d6000fd5b505060048054600685015460405163079bff8760e31b81526001600160a01b039283169550633cdffc389450620022769391909216910162002a72565b600060405180830381600087803b1580156200229157600080fd5b505af1158015620022a6573d6000803e3d6000fd5b50505050600181810154610100900460ff169003620022dc576004546001600160a01b03166338a84ded6002830160006200213f565b60048054600783015460405163079bff8760e31b81526001600160a01b0392831693633cdffc3893620023129316910162002a72565b600060405180830381600087803b1580156200232d57600080fd5b505af115801562002342573d6000803e3d6000fd5b505050505b805460018201546040805192835260ff61010083048116602085015262010000909204909116908201527f5fdfeae6df51d6a0312cd1179989448e84e81a9ea70083643af71f3edfeaad4e9060600160405180910390a15b505050505050565b6000546001600160a01b031690565b600754600090610100900460ff1680620023d8575060075462010000900460ff165b905090565b33620023e8620023a7565b6001600160a01b031614620024115760405162461bcd60e51b8152600401620005a99062002d72565b6001600160a01b038116620024785760405162461bcd60e51b815260206004820152602660248201527f4f776e61626c653a206e6577206f776e657220697320746865207a65726f206160448201526564647265737360d01b6064820152608401620005a9565b620024838162002941565b50565b600754610100900460ff16620024f05760405162461bcd60e51b815260206004820152602860248201527f43616e277420636c61696d207965742e20496e737572616e6365206861736e276044820152673a1032b73232b21760c11b6064820152608401620005a9565b600154604051632f397ebb60e11b8152600481018390526001600160a01b0390911690635e72fd7690602401602060405180830381865afa1580156200253a573d6000803e3d6000fd5b505050506040513d601f19601f8201168201806040525081019062002560919062002c85565b6001600160a01b0316336001600160a01b031614620025cd5760405162461bcd60e51b815260206004820152602260248201527f596f7520617265206e6f7420746865206f776e6572206f662074686520686f75604482015261736560f01b6064820152608401620005a9565b600360008281526010602052604090206001015460ff166003811115620025f857620025f862002b10565b03620026435760405162461bcd60e51b81526020600482015260196024820152782cb7bab91030b9329030b63932b0b23c9031b630b4b6b2b21760391b6044820152606401620005a9565b600160008281526010602052604090206001015460ff1660038111156200266e576200266e62002b10565b14620026c75760405162461bcd60e51b815260206004820152602160248201527f596f75722072657175657374206861736e2774206265656e206772616e7465646044820152601760f91b6064820152608401620005a9565b600954600e54600154604051630e75722360e41b815260048101859052600093620027d193909290916001600160a01b039091169063e757223090602401602060405180830381865afa15801562002723573d6000803e3d6000fd5b505050506040513d601f19601f8201168201806040525081019062002749919062002b8b565b62002755919062002bbb565b62002761919062002bf3565b600154604051630e75722360e41b8152600481018690526001600160a01b039091169063e757223090602401602060405180830381865afa158015620027ab573d6000803e3d6000fd5b505050506040513d601f19601f82011682018060405250810190620003c3919062002b8b565b60008381526010602052604090819020600101805460ff1916600390811790915554905163a9059cbb60e01b8152336004820152602481018390529192506001600160a01b03169063a9059cbb9060440162000767565b606081600003620028505750506040805180820190915260018152600360fc1b602082015290565b8160005b8115620028805780620028678162002fa7565b9150620028789050600a8362002bf3565b915062002854565b60008167ffffffffffffffff8111156200289e576200289e62002efe565b6040519080825280601f01601f191660200182016040528015620028c9576020820181803683370190505b5090505b841562001c1557620028e160018362002ddf565b9150620028f0600a8662002fc3565b620028fd90603062002e60565b60f81b81838151811062002915576200291562002da7565b60200101906001600160f81b031916908160001a90535062002939600a8662002bf3565b9450620028cd565b600080546001600160a01b038381166001600160a01b0319831681178455604051919092169283917f8be0079c531659141344cd1fd0a4f28419497f9722a3daafe3b4186f6b6457e09190a35050565b6004546000908190620029b090600160a81b900460ff16606462002fda565b60ff169050600062278d0060055442620029cb919062002ddf565b620029d7919062002bf3565b90506000620029e882600562002bbb565b90506000620029f8828562002e60565b95945050505050565b610c3f806200300183390190565b60006020828403121562002a2257600080fd5b5035919050565b6001600160a01b03811681146200248357600080fd5b6000806040838503121562002a5357600080fd5b82359150602083013562002a678162002a29565b809150509250929050565b6001600160a01b0391909116815260200190565b6000806040838503121562002a9a57600080fd5b50508035926020909101359150565b60ff811681146200248357600080fd5b60006020828403121562002acc57600080fd5b8135620018928162002aa9565b80151581146200248357600080fd5b6000806040838503121562002afc57600080fd5b82359150602083013562002a678162002ad9565b634e487b7160e01b600052602160045260246000fd5b848152608081016004851062002b4c57634e487b7160e01b600052602160045260246000fd5b602082019490945260ff92831660408201529116606090910152919050565b60006020828403121562002b7e57600080fd5b8135620018928162002a29565b60006020828403121562002b9e57600080fd5b5051919050565b634e487b7160e01b600052601160045260246000fd5b600081600019048311821515161562002bd85762002bd862002ba5565b500290565b634e487b7160e01b600052601260045260246000fd5b60008262002c055762002c0562002bdd565b500490565b60006020828403121562002c1d57600080fd5b8151620018928162002ad9565b6001600160a01b039384168152919092166020820152604081019190915260600190565b6020808252601a908201527f416c72656164792068617320636c61696d207265717565737421000000000000604082015260600190565b60006020828403121562002c9857600080fd5b8151620018928162002a29565b60208082526023908201527f596f7520617265206e6f7420746865206f776e6572206f66207468697320686f60408201526275736560e81b606082015260800190565b60005b8381101562002d0557818101518382015260200162002ceb565b8381111562002d15576000848401525b50505050565b6000815180845262002d3581602086016020860162002ce8565b601f01601f19169290920160200192915050565b60408152600062002d5e604083018562002d1b565b8281036020840152620029f8818562002d1b565b6020808252818101527f4f776e61626c653a2063616c6c6572206973206e6f7420746865206f776e6572604082015260600190565b634e487b7160e01b600052603260045260246000fd5b600060ff821660ff810362002dd65762002dd662002ba5565b60010192915050565b60008282101562002df45762002df462002ba5565b500390565b6020808252818101527f496e737572616e636520706572696f64206861736e7420656e64656420796574604082015260600190565b805162002e3b8162002aa9565b919050565b60006020828403121562002e5357600080fd5b8151620018928162002aa9565b6000821982111562002e765762002e7662002ba5565b500190565b64506f6f6c2d60d81b81526000825162002e9d81600585016020870162002ce8565b9190910160050192915050565b60408152600062002ebf604083018562002d1b565b905060018060a01b03831660208301529392505050565b600060ff821660ff84168060ff0382111562002ef65762002ef662002ba5565b019392505050565b634e487b7160e01b600052604160045260246000fd5b600060c0828403121562002f2757600080fd5b60405160c0810181811067ffffffffffffffff8211171562002f5957634e487b7160e01b600052604160045260246000fd5b8060405250825181526020830151602082015262002f7a6040840162002e2e565b6040820152606083015160608201526080830151608082015260a083015160a08201528091505092915050565b60006001820162002fbc5762002fbc62002ba5565b5060010190565b60008262002fd55762002fd562002bdd565b500690565b600060ff821660ff84168082101562002ff75762002ff762002ba5565b9003939250505056fe60806040523480156200001157600080fd5b5060405162000c3f38038062000c3f8339810160408190526200003491620002dc565b8151829082906200004d90600390602085019062000169565b5080516200006390600490602084019062000169565b505050620000793360646200008160201b60201c565b5050620003a9565b6001600160a01b038216620000dc5760405162461bcd60e51b815260206004820152601f60248201527f45524332303a206d696e7420746f20746865207a65726f206164647265737300604482015260640160405180910390fd5b8060026000828254620000f0919062000346565b90915550506001600160a01b038216600090815260208190526040812080548392906200011f90849062000346565b90915550506040518181526001600160a01b038316906000907fddf252ad1be2c89b69c2b068fc378daa952ba7f163c4a11628f55a4df523b3ef9060200160405180910390a35050565b82805462000177906200036d565b90600052602060002090601f0160209004810192826200019b5760008555620001e6565b82601f10620001b657805160ff1916838001178555620001e6565b82800160010185558215620001e6579182015b82811115620001e6578251825591602001919060010190620001c9565b50620001f4929150620001f8565b5090565b5b80821115620001f45760008155600101620001f9565b634e487b7160e01b600052604160045260246000fd5b600082601f8301126200023757600080fd5b81516001600160401b03808211156200025457620002546200020f565b604051601f8301601f19908116603f011681019082821181831017156200027f576200027f6200020f565b816040528381526020925086838588010111156200029c57600080fd5b600091505b83821015620002c05785820183015181830184015290820190620002a1565b83821115620002d25760008385830101525b9695505050505050565b60008060408385031215620002f057600080fd5b82516001600160401b03808211156200030857600080fd5b620003168683870162000225565b935060208501519150808211156200032d57600080fd5b506200033c8582860162000225565b9150509250929050565b600082198211156200036857634e487b7160e01b600052601160045260246000fd5b500190565b600181811c908216806200038257607f821691505b602082108103620003a357634e487b7160e01b600052602260045260246000fd5b50919050565b61088680620003b96000396000f3fe608060405234801561001057600080fd5b50600436106100a95760003560e01c80633950935111610071578063395093511461012357806370a082311461013657806395d89b411461015f578063a457c2d714610167578063a9059cbb1461017a578063dd62ed3e1461018d57600080fd5b806306fdde03146100ae578063095ea7b3146100cc57806318160ddd146100ef57806323b872dd14610101578063313ce56714610114575b600080fd5b6100b66101a0565b6040516100c391906106c4565b60405180910390f35b6100df6100da366004610735565b610232565b60405190151581526020016100c3565b6002545b6040519081526020016100c3565b6100df61010f36600461075f565b61024a565b604051601281526020016100c3565b6100df610131366004610735565b61026e565b6100f361014436600461079b565b6001600160a01b031660009081526020819052604090205490565b6100b6610290565b6100df610175366004610735565b61029f565b6100df610188366004610735565b61031f565b6100f361019b3660046107bd565b61032d565b6060600380546101af906107f0565b80601f01602080910402602001604051908101604052809291908181526020018280546101db906107f0565b80156102285780601f106101fd57610100808354040283529160200191610228565b820191906000526020600020905b81548152906001019060200180831161020b57829003601f168201915b5050505050905090565b600033610240818585610358565b5060019392505050565b60003361025885828561047c565b6102638585856104f6565b506001949350505050565b600033610240818585610281838361032d565b61028b919061082a565b610358565b6060600480546101af906107f0565b600033816102ad828661032d565b9050838110156103125760405162461bcd60e51b815260206004820152602560248201527f45524332303a2064656372656173656420616c6c6f77616e63652062656c6f77604482015264207a65726f60d81b60648201526084015b60405180910390fd5b6102638286868403610358565b6000336102408185856104f6565b6001600160a01b03918216600090815260016020908152604080832093909416825291909152205490565b6001600160a01b0383166103ba5760405162461bcd60e51b8152602060048201526024808201527f45524332303a20617070726f76652066726f6d20746865207a65726f206164646044820152637265737360e01b6064820152608401610309565b6001600160a01b03821661041b5760405162461bcd60e51b815260206004820152602260248201527f45524332303a20617070726f766520746f20746865207a65726f206164647265604482015261737360f01b6064820152608401610309565b6001600160a01b0383811660008181526001602090815260408083209487168084529482529182902085905590518481527f8c5be1e5ebec7d5bd14f71427d1e84f3dd0314c0f7b2291e5b200ac8c7c3b925910160405180910390a3505050565b6000610488848461032d565b905060001981146104f057818110156104e35760405162461bcd60e51b815260206004820152601d60248201527f45524332303a20696e73756666696369656e7420616c6c6f77616e63650000006044820152606401610309565b6104f08484848403610358565b50505050565b6001600160a01b03831661055a5760405162461bcd60e51b815260206004820152602560248201527f45524332303a207472616e736665722066726f6d20746865207a65726f206164604482015264647265737360d81b6064820152608401610309565b6001600160a01b0382166105bc5760405162461bcd60e51b815260206004820152602360248201527f45524332303a207472616e7366657220746f20746865207a65726f206164647260448201526265737360e81b6064820152608401610309565b6001600160a01b038316600090815260208190526040902054818110156106345760405162461bcd60e51b815260206004820152602660248201527f45524332303a207472616e7366657220616d6f756e7420657863656564732062604482015265616c616e636560d01b6064820152608401610309565b6001600160a01b0380851660009081526020819052604080822085850390559185168152908120805484929061066b90849061082a565b92505081905550826001600160a01b0316846001600160a01b03167fddf252ad1be2c89b69c2b068fc378daa952ba7f163c4a11628f55a4df523b3ef846040516106b791815260200190565b60405180910390a36104f0565b600060208083528351808285015260005b818110156106f1578581018301518582016040015282016106d5565b81811115610703576000604083870101525b50601f01601f1916929092016040019392505050565b80356001600160a01b038116811461073057600080fd5b919050565b6000806040838503121561074857600080fd5b61075183610719565b946020939093013593505050565b60008060006060848603121561077457600080fd5b61077d84610719565b925061078b60208501610719565b9150604084013590509250925092565b6000602082840312156107ad57600080fd5b6107b682610719565b9392505050565b600080604083850312156107d057600080fd5b6107d983610719565b91506107e760208401610719565b90509250929050565b600181811c9082168061080457607f821691505b60208210810361082457634e487b7160e01b600052602260045260246000fd5b50919050565b6000821982111561084b57634e487b7160e01b600052601160045260246000fd5b50019056fea2646970667358221220ee0c65e52faa0d3e987ed1c0417894143258d4d1b79cdb84a9d77fc536f9712664736f6c634300080e0033a2646970667358221220096ef2e6100fd5e5aaa8905a1702e4fc44a50d23fb0372a8e878d49c542e60a164736f6c634300080e0033",
  "linkReferences": {},
  "deployedLinkReferences": {}
}