{
  "_format": "hh-sol-artifact-1",
  "contractName": "Staking",
  "sourceName": "contracts/Stake.sol",
  "abi": [
    {
      "inputs": [
        {
          "internalType": "address",
          "name": "token_",
          "type": "address"
        }
      ],
      "stateMutability": "nonpayable",
      "type": "constructor"
    },
    {
      "anonymous": false,
      "inputs": [
        {
          "indexed": true,
          "internalType": "address",
          "name": "previousOwner",
          "type": "address"
        },
        {
          "indexed": true,
          "internalType": "address",
          "name": "newOwner",
          "type": "address"
        }
      ],
      "name": "OwnershipTransferred",
      "type": "event"
    },
    {
      "inputs": [],
      "name": "STAKE_AMOUNT",
      "outputs": [
        {
          "internalType": "uint256",
          "name": "",
          "type": "uint256"
        }
      ],
      "stateMutability": "view",
      "type": "function"
    },
    {
      "inputs": [
        {
          "internalType": "address",
          "name": "pool",
          "type": "address"
        }
      ],
      "name": "addPool",
      "outputs": [],
      "stateMutability": "nonpayable",
      "type": "function"
    },
    {
      "inputs": [],
      "name": "owner",
      "outputs": [
        {
          "internalType": "address",
          "name": "",
          "type": "address"
        }
      ],
      "stateMutability": "view",
      "type": "function"
    },
    {
      "inputs": [],
      "name": "renounceOwnership",
      "outputs": [],
      "stateMutability": "nonpayable",
      "type": "function"
    },
    {
      "inputs": [
        {
          "internalType": "address",
          "name": "inspector",
          "type": "address"
        }
      ],
      "name": "rewardInspector",
      "outputs": [],
      "stateMutability": "nonpayable",
      "type": "function"
    },
    {
      "inputs": [
        {
          "internalType": "address",
          "name": "inspector",
          "type": "address"
        }
      ],
      "name": "slashInspector",
      "outputs": [],
      "stateMutability": "nonpayable",
      "type": "function"
    },
    {
      "inputs": [
        {
          "internalType": "uint256",
          "name": "amount",
          "type": "uint256"
        }
      ],
      "name": "stake",
      "outputs": [],
      "stateMutability": "nonpayable",
      "type": "function"
    },
    {
      "inputs": [
        {
          "internalType": "address",
          "name": "",
          "type": "address"
        }
      ],
      "name": "stakeDetails",
      "outputs": [
        {
          "internalType": "uint256",
          "name": "amountStaked",
          "type": "uint256"
        },
        {
          "internalType": "uint256",
          "name": "amountRewarded",
          "type": "uint256"
        },
        {
          "internalType": "uint256",
          "name": "amountSlashed",
          "type": "uint256"
        },
        {
          "internalType": "uint256",
          "name": "stakedAt",
          "type": "uint256"
        }
      ],
      "stateMutability": "view",
      "type": "function"
    },
    {
      "inputs": [],
      "name": "token",
      "outputs": [
        {
          "internalType": "contract IERC20",
          "name": "",
          "type": "address"
        }
      ],
      "stateMutability": "view",
      "type": "function"
    },
    {
      "inputs": [
        {
          "internalType": "address",
          "name": "newOwner",
          "type": "address"
        }
      ],
      "name": "transferOwnership",
      "outputs": [],
      "stateMutability": "nonpayable",
      "type": "function"
    },
    {
      "inputs": [],
      "name": "withdraw",
      "outputs": [],
      "stateMutability": "nonpayable",
      "type": "function"
    },
    {
      "inputs": [],
      "name": "withdrawRewards",
      "outputs": [],
      "stateMutability": "nonpayable",
      "type": "function"
    }
  ],
  "bytecode": "0x608060405268056bc75e2d6310000060045534801561001d57600080fd5b50604051610baf380380610baf83398101604081905261003c916100ba565b6100453361006a565b600180546001600160a01b0319166001600160a01b03929092169190911790556100ea565b600080546001600160a01b038381166001600160a01b0319831681178455604051919092169283917f8be0079c531659141344cd1fd0a4f28419497f9722a3daafe3b4186f6b6457e09190a35050565b6000602082840312156100cc57600080fd5b81516001600160a01b03811681146100e357600080fd5b9392505050565b610ab6806100f96000396000f3fe608060405234801561001057600080fd5b50600436106100b45760003560e01c8063c7b8981c11610071578063c7b8981c1461012e578063d914cd4b14610136578063f2fde38b14610149578063fa2a9da91461015c578063faf5625f146101b3578063fc0c546a146101ca57600080fd5b806338a84ded146100b95780633ccfd60b146100ce5780633cdffc38146100d6578063715018a6146100e95780638da5cb5b146100f1578063a694fc3a1461011b575b600080fd5b6100cc6100c736600461091e565b6101dd565b005b6100cc610338565b6100cc6100e436600461091e565b6104a9565b6100cc610568565b6000546001600160a01b03165b6040516001600160a01b0390911681526020015b60405180910390f35b6100cc61012936600461094e565b61059e565b6100cc610739565b6100cc61014436600461091e565b6107e5565b6100cc61015736600461091e565b610833565b61019361016a36600461091e565b600360208190526000918252604090912080546001820154600283015492909301549092919084565b604080519485526020850193909352918301526060820152608001610112565b6101bc60045481565b604051908152602001610112565b6001546100fe906001600160a01b031681565b3360009081526002602052604090205460ff166102385760405162461bcd60e51b815260206004820152601460248201527309edcd8f240e0deded8e640c6c2dc40e6d8c2e6d60631b60448201526064015b60405180910390fd5b6001600160a01b03811660009081526003602052604090205461026d5760405162461bcd60e51b815260040161022f90610967565b6001600160a01b0381166000908152600360205260409020805460029091015461029f90670de0b6b3a7640000610999565b11156102fd5760405162461bcd60e51b815260206004820152602760248201527f496e73706563746f7220686173206e6f7420656e6f756768207374616b6520746044820152660de40e6d8c2e6d60cb1b606482015260840161022f565b6001600160a01b03811660009081526003602052604081206002018054670de0b6b3a76400009290610330908490610999565b909155505050565b33600090815260036020818152604092839020835160808101855281548082526001830154938201939093526002820154948101949094529091015460608301526103955760405162461bcd60e51b815260040161022f906109bf565b4281606001516301e133806103aa9190610999565b106103f75760405162461bcd60e51b815260206004820181905260248201527f596f752063616e207769746864726177206f6e6c792079656172206166746572604482015260640161022f565b3360008181526003602081815260408320838155600180820185905560028201859055920192909255549083015183516001600160a01b03909216926323b872dd92309261044491610999565b6040518463ffffffff1660e01b8152600401610462939291906109ec565b6020604051808303816000875af1158015610481573d6000803e3d6000fd5b505050506040513d601f19601f820116820180604052508101906104a59190610a10565b5050565b3360009081526002602052604090205460ff166105005760405162461bcd60e51b815260206004820152601560248201527413db9b1e481c1bdbdb1cc818d85b881c995dd85c99605a1b604482015260640161022f565b6001600160a01b0381166000908152600360205260409020546105355760405162461bcd60e51b815260040161022f90610967565b6001600160a01b03811660009081526003602052604081206001018054670de0b6b3a76400009290610330908490610999565b6000546001600160a01b031633146105925760405162461bcd60e51b815260040161022f90610a32565b61059c60006108ce565b565b6004548110156105ad57600080fd5b6001546040516370a0823160e01b81523360048201526001600160a01b03909116906370a0823190602401602060405180830381865afa1580156105f5573d6000803e3d6000fd5b505050506040513d601f19601f820116820180604052508101906106199190610a67565b81111561062557600080fd5b33600090815260036020526040902054156106775760405162461bcd60e51b8152602060048201526012602482015271165bdd48185b1c9958591e481cdd185ad95960721b604482015260640161022f565b6001546040516323b872dd60e01b81526001600160a01b03909116906323b872dd906106ab903390309086906004016109ec565b6020604051808303816000875af11580156106ca573d6000803e3d6000fd5b505050506040513d601f19601f820116820180604052508101906106ee9190610a10565b50604080516080810182529182526000602080840182815284840183815242606087019081523385526003938490529490932094518555516001850155905160028401559051910155565b33600090815260036020818152604092839020835160808101855281548082526001830154938201939093526002820154948101949094529091015460608301526107965760405162461bcd60e51b815260040161022f906109bf565b33600081815260036020908152604080832060019081019390935591549084015191516323b872dd60e01b81526001600160a01b03909116926323b872dd9261046292309291906004016109ec565b6000546001600160a01b0316331461080f5760405162461bcd60e51b815260040161022f90610a32565b6001600160a01b03166000908152600260205260409020805460ff19166001179055565b6000546001600160a01b0316331461085d5760405162461bcd60e51b815260040161022f90610a32565b6001600160a01b0381166108c25760405162461bcd60e51b815260206004820152602660248201527f4f776e61626c653a206e6577206f776e657220697320746865207a65726f206160448201526564647265737360d01b606482015260840161022f565b6108cb816108ce565b50565b600080546001600160a01b038381166001600160a01b0319831681178455604051919092169283917f8be0079c531659141344cd1fd0a4f28419497f9722a3daafe3b4186f6b6457e09190a35050565b60006020828403121561093057600080fd5b81356001600160a01b038116811461094757600080fd5b9392505050565b60006020828403121561096057600080fd5b5035919050565b602080825260189082015277125b9cdc1958dd1bdc881a185cc81b9bdd081cdd185ad95960421b604082015260600190565b600082198211156109ba57634e487b7160e01b600052601160045260246000fd5b500190565b602080825260139082015272165bdd481a185d99481b9bdd081cdd185ad959606a1b604082015260600190565b6001600160a01b039384168152919092166020820152604081019190915260600190565b600060208284031215610a2257600080fd5b8151801515811461094757600080fd5b6020808252818101527f4f776e61626c653a2063616c6c6572206973206e6f7420746865206f776e6572604082015260600190565b600060208284031215610a7957600080fd5b505191905056fea264697066735822122002fc110fefdaca5d96d28f133b6dda288d5e428220a4272d4005a04b23791c1a64736f6c634300080e0033",
  "linkReferences": {},
  "deployedLinkReferences": {}
}