{
  "_format": "hh-sol-artifact-1",
  "contractName": "DeedNFT",
  "sourceName": "contracts/DeedNFT.sol",
  "abi": [
    {
      "inputs": [],
      "stateMutability": "nonpayable",
      "type": "constructor"
    },
    {
      "anonymous": false,
      "inputs": [
        {
          "indexed": true,
          "internalType": "address",
          "name": "owner",
          "type": "address"
        },
        {
          "indexed": true,
          "internalType": "address",
          "name": "approved",
          "type": "address"
        },
        {
          "indexed": true,
          "internalType": "uint256",
          "name": "tokenId",
          "type": "uint256"
        }
      ],
      "name": "Approval",
      "type": "event"
    },
    {
      "anonymous": false,
      "inputs": [
        {
          "indexed": true,
          "internalType": "address",
          "name": "owner",
          "type": "address"
        },
        {
          "indexed": true,
          "internalType": "address",
          "name": "operator",
          "type": "address"
        },
        {
          "indexed": false,
          "internalType": "bool",
          "name": "approved",
          "type": "bool"
        }
      ],
      "name": "ApprovalForAll",
      "type": "event"
    },
    {
      "anonymous": false,
      "inputs": [
        {
          "indexed": true,
          "internalType": "address",
          "name": "owner",
          "type": "address"
        },
        {
          "indexed": true,
          "internalType": "uint256",
          "name": "tokenId",
          "type": "uint256"
        },
        {
          "indexed": false,
          "internalType": "uint256",
          "name": "houseId",
          "type": "uint256"
        }
      ],
      "name": "MintDeed",
      "type": "event"
    },
    {
      "anonymous": false,
      "inputs": [
        {
          "indexed": true,
          "internalType": "bytes32",
          "name": "role",
          "type": "bytes32"
        },
        {
          "indexed": true,
          "internalType": "bytes32",
          "name": "previousAdminRole",
          "type": "bytes32"
        },
        {
          "indexed": true,
          "internalType": "bytes32",
          "name": "newAdminRole",
          "type": "bytes32"
        }
      ],
      "name": "RoleAdminChanged",
      "type": "event"
    },
    {
      "anonymous": false,
      "inputs": [
        {
          "indexed": true,
          "internalType": "bytes32",
          "name": "role",
          "type": "bytes32"
        },
        {
          "indexed": true,
          "internalType": "address",
          "name": "account",
          "type": "address"
        },
        {
          "indexed": true,
          "internalType": "address",
          "name": "sender",
          "type": "address"
        }
      ],
      "name": "RoleGranted",
      "type": "event"
    },
    {
      "anonymous": false,
      "inputs": [
        {
          "indexed": true,
          "internalType": "bytes32",
          "name": "role",
          "type": "bytes32"
        },
        {
          "indexed": true,
          "internalType": "address",
          "name": "account",
          "type": "address"
        },
        {
          "indexed": true,
          "internalType": "address",
          "name": "sender",
          "type": "address"
        }
      ],
      "name": "RoleRevoked",
      "type": "event"
    },
    {
      "anonymous": false,
      "inputs": [
        {
          "indexed": true,
          "internalType": "address",
          "name": "from",
          "type": "address"
        },
        {
          "indexed": true,
          "internalType": "address",
          "name": "to",
          "type": "address"
        },
        {
          "indexed": true,
          "internalType": "uint256",
          "name": "tokenId",
          "type": "uint256"
        }
      ],
      "name": "Transfer",
      "type": "event"
    },
    {
      "anonymous": false,
      "inputs": [
        {
          "indexed": true,
          "internalType": "address",
          "name": "from",
          "type": "address"
        },
        {
          "indexed": true,
          "internalType": "address",
          "name": "to",
          "type": "address"
        },
        {
          "indexed": true,
          "internalType": "uint256",
          "name": "tokenId",
          "type": "uint256"
        }
      ],
      "name": "TransferDeed",
      "type": "event"
    },
    {
      "inputs": [],
      "name": "ADMIN_ROLE",
      "outputs": [
        {
          "internalType": "bytes32",
          "name": "",
          "type": "bytes32"
        }
      ],
      "stateMutability": "view",
      "type": "function"
    },
    {
      "inputs": [],
      "name": "DEFAULT_ADMIN_ROLE",
      "outputs": [
        {
          "internalType": "bytes32",
          "name": "",
          "type": "bytes32"
        }
      ],
      "stateMutability": "view",
      "type": "function"
    },
    {
      "inputs": [],
      "name": "MINTER_ROLE",
      "outputs": [
        {
          "internalType": "bytes32",
          "name": "",
          "type": "bytes32"
        }
      ],
      "stateMutability": "view",
      "type": "function"
    },
    {
      "inputs": [],
      "name": "TRANSFER_ROLE",
      "outputs": [
        {
          "internalType": "bytes32",
          "name": "",
          "type": "bytes32"
        }
      ],
      "stateMutability": "view",
      "type": "function"
    },
    {
      "inputs": [
        {
          "internalType": "address",
          "name": "to",
          "type": "address"
        },
        {
          "internalType": "uint256",
          "name": "tokenId",
          "type": "uint256"
        }
      ],
      "name": "approve",
      "outputs": [],
      "stateMutability": "nonpayable",
      "type": "function"
    },
    {
      "inputs": [
        {
          "internalType": "address",
          "name": "owner",
          "type": "address"
        }
      ],
      "name": "balanceOf",
      "outputs": [
        {
          "internalType": "uint256",
          "name": "",
          "type": "uint256"
        }
      ],
      "stateMutability": "view",
      "type": "function"
    },
    {
      "inputs": [
        {
          "internalType": "uint256",
          "name": "tokenId",
          "type": "uint256"
        }
      ],
      "name": "getApproved",
      "outputs": [
        {
          "internalType": "address",
          "name": "",
          "type": "address"
        }
      ],
      "stateMutability": "view",
      "type": "function"
    },
    {
      "inputs": [
        {
          "internalType": "uint256",
          "name": "tokenId_",
          "type": "uint256"
        }
      ],
      "name": "getMetadata",
      "outputs": [
        {
          "components": [
            {
              "internalType": "uint256",
              "name": "houseId",
              "type": "uint256"
            },
            {
              "internalType": "uint256",
              "name": "marketValue",
              "type": "uint256"
            },
            {
              "internalType": "uint8",
              "name": "riskScore",
              "type": "uint8"
            },
            {
              "internalType": "uint256",
              "name": "zipCode",
              "type": "uint256"
            },
            {
              "internalType": "int256",
              "name": "latitude",
              "type": "int256"
            },
            {
              "internalType": "int256",
              "name": "longitude",
              "type": "int256"
            }
          ],
          "internalType": "struct DeedNFT.Metadata",
          "name": "",
          "type": "tuple"
        }
      ],
      "stateMutability": "view",
      "type": "function"
    },
    {
      "inputs": [
        {
          "internalType": "uint256",
          "name": "tokenId",
          "type": "uint256"
        }
      ],
      "name": "getPrice",
      "outputs": [
        {
          "internalType": "uint256",
          "name": "",
          "type": "uint256"
        }
      ],
      "stateMutability": "view",
      "type": "function"
    },
    {
      "inputs": [
        {
          "internalType": "uint256",
          "name": "tokenId",
          "type": "uint256"
        }
      ],
      "name": "getRisk",
      "outputs": [
        {
          "internalType": "uint8",
          "name": "",
          "type": "uint8"
        }
      ],
      "stateMutability": "view",
      "type": "function"
    },
    {
      "inputs": [
        {
          "internalType": "bytes32",
          "name": "role",
          "type": "bytes32"
        }
      ],
      "name": "getRoleAdmin",
      "outputs": [
        {
          "internalType": "bytes32",
          "name": "",
          "type": "bytes32"
        }
      ],
      "stateMutability": "view",
      "type": "function"
    },
    {
      "inputs": [
        {
          "internalType": "uint256",
          "name": "tokenId",
          "type": "uint256"
        }
      ],
      "name": "getZipcode",
      "outputs": [
        {
          "internalType": "uint256",
          "name": "",
          "type": "uint256"
        }
      ],
      "stateMutability": "view",
      "type": "function"
    },
    {
      "inputs": [
        {
          "internalType": "bytes32",
          "name": "role",
          "type": "bytes32"
        },
        {
          "internalType": "address",
          "name": "account",
          "type": "address"
        }
      ],
      "name": "grantRole",
      "outputs": [],
      "stateMutability": "nonpayable",
      "type": "function"
    },
    {
      "inputs": [
        {
          "internalType": "bytes32",
          "name": "role",
          "type": "bytes32"
        },
        {
          "internalType": "address",
          "name": "account",
          "type": "address"
        }
      ],
      "name": "hasRole",
      "outputs": [
        {
          "internalType": "bool",
          "name": "",
          "type": "bool"
        }
      ],
      "stateMutability": "view",
      "type": "function"
    },
    {
      "inputs": [
        {
          "internalType": "uint256",
          "name": "",
          "type": "uint256"
        }
      ],
      "name": "houseIdToTokenId",
      "outputs": [
        {
          "internalType": "uint256",
          "name": "",
          "type": "uint256"
        }
      ],
      "stateMutability": "view",
      "type": "function"
    },
    {
      "inputs": [
        {
          "internalType": "address",
          "name": "owner",
          "type": "address"
        },
        {
          "internalType": "address",
          "name": "operator",
          "type": "address"
        }
      ],
      "name": "isApprovedForAll",
      "outputs": [
        {
          "internalType": "bool",
          "name": "",
          "type": "bool"
        }
      ],
      "stateMutability": "view",
      "type": "function"
    },
    {
      "inputs": [
        {
          "internalType": "uint256",
          "name": "",
          "type": "uint256"
        }
      ],
      "name": "metadata",
      "outputs": [
        {
          "internalType": "uint256",
          "name": "houseId",
          "type": "uint256"
        },
        {
          "internalType": "uint256",
          "name": "marketValue",
          "type": "uint256"
        },
        {
          "internalType": "uint8",
          "name": "riskScore",
          "type": "uint8"
        },
        {
          "internalType": "uint256",
          "name": "zipCode",
          "type": "uint256"
        },
        {
          "internalType": "int256",
          "name": "latitude",
          "type": "int256"
        },
        {
          "internalType": "int256",
          "name": "longitude",
          "type": "int256"
        }
      ],
      "stateMutability": "view",
      "type": "function"
    },
    {
      "inputs": [],
      "name": "name",
      "outputs": [
        {
          "internalType": "string",
          "name": "",
          "type": "string"
        }
      ],
      "stateMutability": "view",
      "type": "function"
    },
    {
      "inputs": [
        {
          "internalType": "uint256",
          "name": "tokenId",
          "type": "uint256"
        }
      ],
      "name": "ownerOf",
      "outputs": [
        {
          "internalType": "address",
          "name": "",
          "type": "address"
        }
      ],
      "stateMutability": "view",
      "type": "function"
    },
    {
      "inputs": [
        {
          "internalType": "uint256",
          "name": "tokenId",
          "type": "uint256"
        }
      ],
      "name": "ownerOfHouse",
      "outputs": [
        {
          "internalType": "address",
          "name": "",
          "type": "address"
        }
      ],
      "stateMutability": "view",
      "type": "function"
    },
    {
      "inputs": [
        {
          "internalType": "bytes32",
          "name": "hash",
          "type": "bytes32"
        },
        {
          "internalType": "bytes",
          "name": "sig",
          "type": "bytes"
        }
      ],
      "name": "recover",
      "outputs": [
        {
          "internalType": "address",
          "name": "",
          "type": "address"
        }
      ],
      "stateMutability": "pure",
      "type": "function"
    },
    {
      "inputs": [
        {
          "internalType": "bytes32",
          "name": "role",
          "type": "bytes32"
        },
        {
          "internalType": "address",
          "name": "account",
          "type": "address"
        }
      ],
      "name": "renounceRole",
      "outputs": [],
      "stateMutability": "nonpayable",
      "type": "function"
    },
    {
      "inputs": [
        {
          "internalType": "bytes32",
          "name": "role",
          "type": "bytes32"
        },
        {
          "internalType": "address",
          "name": "account",
          "type": "address"
        }
      ],
      "name": "revokeRole",
      "outputs": [],
      "stateMutability": "nonpayable",
      "type": "function"
    },
    {
      "inputs": [
        {
          "internalType": "address",
          "name": "to",
          "type": "address"
        },
        {
          "internalType": "uint256",
          "name": "houseId",
          "type": "uint256"
        },
        {
          "internalType": "uint256",
          "name": "marketValue",
          "type": "uint256"
        },
        {
          "internalType": "uint8",
          "name": "riskScore",
          "type": "uint8"
        },
        {
          "internalType": "uint256",
          "name": "zipCode",
          "type": "uint256"
        },
        {
          "internalType": "int256",
          "name": "latitude",
          "type": "int256"
        },
        {
          "internalType": "int256",
          "name": "longitude",
          "type": "int256"
        }
      ],
      "name": "safeMint",
      "outputs": [],
      "stateMutability": "nonpayable",
      "type": "function"
    },
    {
      "inputs": [
        {
          "internalType": "address",
          "name": "from",
          "type": "address"
        },
        {
          "internalType": "address",
          "name": "to",
          "type": "address"
        },
        {
          "internalType": "uint256",
          "name": "tokenId",
          "type": "uint256"
        }
      ],
      "name": "safeTransferFrom",
      "outputs": [],
      "stateMutability": "nonpayable",
      "type": "function"
    },
    {
      "inputs": [
        {
          "internalType": "address",
          "name": "from",
          "type": "address"
        },
        {
          "internalType": "address",
          "name": "to",
          "type": "address"
        },
        {
          "internalType": "uint256",
          "name": "tokenId",
          "type": "uint256"
        },
        {
          "internalType": "bytes",
          "name": "_data",
          "type": "bytes"
        }
      ],
      "name": "safeTransferFrom",
      "outputs": [],
      "stateMutability": "nonpayable",
      "type": "function"
    },
    {
      "inputs": [
        {
          "internalType": "address",
          "name": "operator",
          "type": "address"
        },
        {
          "internalType": "bool",
          "name": "approved",
          "type": "bool"
        }
      ],
      "name": "setApprovalForAll",
      "outputs": [],
      "stateMutability": "nonpayable",
      "type": "function"
    },
    {
      "inputs": [
        {
          "internalType": "uint256",
          "name": "tokenId_",
          "type": "uint256"
        },
        {
          "internalType": "uint256",
          "name": "marketValue",
          "type": "uint256"
        },
        {
          "internalType": "uint8",
          "name": "riskScore",
          "type": "uint8"
        }
      ],
      "name": "setMetadata",
      "outputs": [],
      "stateMutability": "nonpayable",
      "type": "function"
    },
    {
      "inputs": [
        {
          "internalType": "bytes4",
          "name": "interfaceId",
          "type": "bytes4"
        }
      ],
      "name": "supportsInterface",
      "outputs": [
        {
          "internalType": "bool",
          "name": "",
          "type": "bool"
        }
      ],
      "stateMutability": "view",
      "type": "function"
    },
    {
      "inputs": [],
      "name": "symbol",
      "outputs": [
        {
          "internalType": "string",
          "name": "",
          "type": "string"
        }
      ],
      "stateMutability": "view",
      "type": "function"
    },
    {
      "inputs": [
        {
          "internalType": "uint256",
          "name": "index",
          "type": "uint256"
        }
      ],
      "name": "tokenByIndex",
      "outputs": [
        {
          "internalType": "uint256",
          "name": "",
          "type": "uint256"
        }
      ],
      "stateMutability": "view",
      "type": "function"
    },
    {
      "inputs": [
        {
          "internalType": "uint256",
          "name": "tokenId",
          "type": "uint256"
        }
      ],
      "name": "tokenIdByHouseId",
      "outputs": [
        {
          "internalType": "uint256",
          "name": "",
          "type": "uint256"
        }
      ],
      "stateMutability": "view",
      "type": "function"
    },
    {
      "inputs": [
        {
          "internalType": "address",
          "name": "addressToQuery",
          "type": "address"
        }
      ],
      "name": "tokenIdsByAddress",
      "outputs": [
        {
          "internalType": "uint256[]",
          "name": "",
          "type": "uint256[]"
        }
      ],
      "stateMutability": "view",
      "type": "function"
    },
    {
      "inputs": [
        {
          "internalType": "address",
          "name": "owner",
          "type": "address"
        },
        {
          "internalType": "uint256",
          "name": "index",
          "type": "uint256"
        }
      ],
      "name": "tokenOfOwnerByIndex",
      "outputs": [
        {
          "internalType": "uint256",
          "name": "",
          "type": "uint256"
        }
      ],
      "stateMutability": "view",
      "type": "function"
    },
    {
      "inputs": [
        {
          "internalType": "uint256",
          "name": "tokenId",
          "type": "uint256"
        }
      ],
      "name": "tokenURI",
      "outputs": [
        {
          "internalType": "string",
          "name": "",
          "type": "string"
        }
      ],
      "stateMutability": "view",
      "type": "function"
    },
    {
      "inputs": [],
      "name": "totalSupply",
      "outputs": [
        {
          "internalType": "uint256",
          "name": "",
          "type": "uint256"
        }
      ],
      "stateMutability": "view",
      "type": "function"
    },
    {
      "inputs": [
        {
          "internalType": "uint256",
          "name": "tokenId",
          "type": "uint256"
        },
        {
          "internalType": "address",
          "name": "from_",
          "type": "address"
        },
        {
          "internalType": "address",
          "name": "to_",
          "type": "address"
        },
        {
          "internalType": "bytes",
          "name": "sigOfSender",
          "type": "bytes"
        },
        {
          "internalType": "bytes",
          "name": "sigOfReceiver",
          "type": "bytes"
        }
      ],
      "name": "transferDeed",
      "outputs": [],
      "stateMutability": "nonpayable",
      "type": "function"
    },
    {
      "inputs": [
        {
          "internalType": "address",
          "name": "from",
          "type": "address"
        },
        {
          "internalType": "address",
          "name": "to",
          "type": "address"
        },
        {
          "internalType": "uint256",
          "name": "tokenId",
          "type": "uint256"
        }
      ],
      "name": "transferFrom",
      "outputs": [],
      "stateMutability": "nonpayable",
      "type": "function"
    }
  ],
  "bytecode": "0x60806040523480156200001157600080fd5b5060408051808201825260078152661119595913919560ca1b6020808301918252835180850190945260048452631113919560e21b9084015281519192916200005d91600091620001a8565b50805162000073906001906020840190620001a8565b506200008591506000905033620000fa565b620000b17f8502233096d909befbda0999bb8ea2f3a6be3c138b9fbf003752a4c8bce86f6c33620000fa565b620000dd7f9f2df0fed2c77648de5860a4cc508cd0818c85b8b8a1ab4ceeef8d981c8956a633620000fa565b620000f4600b6200019f60201b6200121e1760201c565b6200028a565b6000828152600a602090815260408083206001600160a01b038516845290915290205460ff166200019b576000828152600a602090815260408083206001600160a01b03851684529091529020805460ff191660011790556200015a3390565b6001600160a01b0316816001600160a01b0316837f2f8788117e7eff1d82e926ec794901d17c78024a50270940304540a733656f0d60405160405180910390a45b5050565b80546001019055565b828054620001b6906200024e565b90600052602060002090601f016020900481019282620001da576000855562000225565b82601f10620001f557805160ff191683800117855562000225565b8280016001018555821562000225579182015b828111156200022557825182559160200191906001019062000208565b506200023392915062000237565b5090565b5b8082111562000233576000815560010162000238565b600181811c908216806200026357607f821691505b6020821081036200028457634e487b7160e01b600052602260045260246000fd5b50919050565b612764806200029a6000396000f3fe608060405234801561001057600080fd5b50600436106102125760003560e01c806370a0823111610120578063c87b56dd116100b8578063e3684e391161007c578063e3684e391461057e578063e56ca8df146105fa578063e75722301461061a578063e985e9c51461063d578063f57200371461065057600080fd5b8063c87b56dd146104e6578063d20ccb2c146104f9578063d53913931461050c578063d547741f14610533578063e2fb4e771461054657600080fd5b806370a08231146103ee57806375b238fc1461040157806391d148541461042857806395d89b411461043b578063a217fddf14610443578063a22cb4651461044b578063a574cea41461045e578063b88d4fde146104c0578063b94ffff4146104d357600080fd5b8063248a9ca3116101ae5780634f6ccce7116101725780634f6ccce71461037557806352e716671461038857806359d81400146103a85780635e72fd76146103c85780636352211e146103db57600080fd5b8063248a9ca3146103065780632f2ff15d146103295780632f745c591461033c57806336568abe1461034f57806342842e0e1461036257600080fd5b806301ffc9a71461021757806306fdde031461023f578063081812fc14610254578063095ea7b31461027f5780630fd4457c1461029457806318160ddd146102a757806319045a25146102b9578063206b60f9146102cc57806323b872dd146102f3575b600080fd5b61022a610225366004611f9e565b610673565b60405190151581526020015b60405180910390f35b610247610684565b6040516102369190612013565b610267610262366004612026565b610716565b6040516001600160a01b039091168152602001610236565b61029261028d36600461205b565b6107a3565b005b6102926102a2366004612096565b6108b3565b6008545b604051908152602001610236565b6102676102c7366004612199565b6109c9565b6102ab7f8502233096d909befbda0999bb8ea2f3a6be3c138b9fbf003752a4c8bce86f6c81565b6102926103013660046121df565b610aa1565b6102ab610314366004612026565b6000908152600a602052604090206001015490565b61029261033736600461221b565b610ad2565b6102ab61034a36600461205b565b610af7565b61029261035d36600461221b565b610b8d565b6102926103703660046121df565b610c0b565b6102ab610383366004612026565b610c26565b61039b610396366004612247565b610cb9565b6040516102369190612262565b6102ab6103b6366004612026565b600d6020526000908152604090205481565b6102676103d6366004612026565b610d5a565b6102676103e9366004612026565b610d6d565b6102ab6103fc366004612247565b610de4565b6102ab7fa49807205ce4d355092ef5a8a18f56e8913cf4a201fbe287825b095693c2177581565b61022a61043636600461221b565b610e6b565b610247610e96565b6102ab600081565b6102926104593660046122a6565b610ea5565b61047161046c366004612026565b610eb0565b6040516102369190600060c082019050825182526020830151602083015260ff6040840151166040830152606083015160608301526080830151608083015260a083015160a083015292915050565b6102926104ce3660046122e2565b610f48565b6102926104e1366004612349565b610f80565b6102476104f4366004612026565b610fd8565b61029261050736600461237e565b6110af565b6102ab7f9f2df0fed2c77648de5860a4cc508cd0818c85b8b8a1ab4ceeef8d981c8956a681565b61029261054136600461221b565b6111cb565b61056c610554366004612026565b6000908152600c602052604090206002015460ff1690565b60405160ff9091168152602001610236565b6105c561058c366004612026565b600c602052600090815260409020805460018201546002830154600384015460048501546005909501549394929360ff90921692909186565b60408051968752602087019590955260ff909316938501939093526060840152608083019190915260a082015260c001610236565b6102ab610608366004612026565b6000908152600d602052604090205490565b6102ab610628366004612026565b6000908152600c602052604090206001015490565b61022a61064b36600461240c565b6111f0565b6102ab61065e366004612026565b6000908152600c602052604090206003015490565b600061067e82611227565b92915050565b60606000805461069390612436565b80601f01602080910402602001604051908101604052809291908181526020018280546106bf90612436565b801561070c5780601f106106e15761010080835404028352916020019161070c565b820191906000526020600020905b8154815290600101906020018083116106ef57829003601f168201915b5050505050905090565b60006107218261124c565b6107875760405162461bcd60e51b815260206004820152602c60248201527f4552433732313a20617070726f76656420717565727920666f72206e6f6e657860448201526b34b9ba32b73a103a37b5b2b760a11b60648201526084015b60405180910390fd5b506000908152600460205260409020546001600160a01b031690565b60006107ae82610d6d565b9050806001600160a01b0316836001600160a01b03160361081b5760405162461bcd60e51b815260206004820152602160248201527f4552433732313a20617070726f76616c20746f2063757272656e74206f776e656044820152603960f91b606482015260840161077e565b336001600160a01b0382161480610837575061083781336111f0565b6108a45760405162461bcd60e51b815260206004820152603860248201527f4552433732313a20617070726f76652063616c6c6572206973206e6f74206f776044820152771b995c881b9bdc88185c1c1c9bdd995908199bdc88185b1b60421b606482015260840161077e565b6108ae8383611269565b505050565b7f9f2df0fed2c77648de5860a4cc508cd0818c85b8b8a1ab4ceeef8d981c8956a66108dd816112d7565b60006108e8600b5490565b90506108f489826112e4565b6000888152600d60209081526040808320849055805160c0810182528b81528083018b815260ff808c16838501908152606084018c8152608085018c815260a086018c81528a8a52600c90985295909720935184559151600184015590516002830180549190921660ff199091161790559251600384015551600483015551600590910155610987600b80546001019055565b604051888152819033907f11762bd5307094b5ff69df55f5a80a349c53a63d33ae46d46ba5bb6d43a6e1189060200160405180910390a3505050505050505050565b60008060008084516041146109e4576000935050505061067e565b50505060208201516040830151606084015160001a601b811015610a1057610a0d601b82612486565b90505b8060ff16601b14158015610a2857508060ff16601c14155b15610a39576000935050505061067e565b60408051600081526020810180835288905260ff831691810191909152606081018490526080810183905260019060a0016020604051602081039080840390855afa158015610a8c573d6000803e3d6000fd5b5050604051601f190151979650505050505050565b610aab33826112fe565b610ac75760405162461bcd60e51b815260040161077e906124ab565b6108ae8383836113c8565b6000828152600a6020526040902060010154610aed816112d7565b6108ae838361156f565b6000610b0283610de4565b8210610b645760405162461bcd60e51b815260206004820152602b60248201527f455243373231456e756d657261626c653a206f776e657220696e646578206f7560448201526a74206f6620626f756e647360a81b606482015260840161077e565b506001600160a01b03919091166000908152600660209081526040808320938352929052205490565b6001600160a01b0381163314610bfd5760405162461bcd60e51b815260206004820152602f60248201527f416363657373436f6e74726f6c3a2063616e206f6e6c792072656e6f756e636560448201526e103937b632b9903337b91039b2b63360891b606482015260840161077e565b610c0782826115f5565b5050565b6108ae83838360405180602001604052806000815250610f48565b6000610c3160085490565b8210610c945760405162461bcd60e51b815260206004820152602c60248201527f455243373231456e756d657261626c653a20676c6f62616c20696e646578206f60448201526b7574206f6620626f756e647360a01b606482015260840161077e565b60088281548110610ca757610ca76124fc565b90600052602060002001549050919050565b60606000610cc683610de4565b90506000816001600160401b03811115610ce257610ce26120f7565b604051908082528060200260200182016040528015610d0b578160200160208202803683370190505b50905060005b82811015610d5257610d238582610af7565b828281518110610d3557610d356124fc565b602090810291909101015280610d4a81612512565b915050610d11565b509392505050565b600081610d6681610d6d565b9392505050565b6000818152600260205260408120546001600160a01b03168061067e5760405162461bcd60e51b815260206004820152602960248201527f4552433732313a206f776e657220717565727920666f72206e6f6e657869737460448201526832b73a103a37b5b2b760b91b606482015260840161077e565b60006001600160a01b038216610e4f5760405162461bcd60e51b815260206004820152602a60248201527f4552433732313a2062616c616e636520717565727920666f7220746865207a65604482015269726f206164647265737360b01b606482015260840161077e565b506001600160a01b031660009081526003602052604090205490565b6000918252600a602090815260408084206001600160a01b0393909316845291905290205460ff1690565b60606001805461069390612436565b610c0733838361165c565b610eec6040518060c001604052806000815260200160008152602001600060ff1681526020016000815260200160008152602001600081525090565b506000908152600c6020908152604091829020825160c08101845281548152600182015492810192909252600281015460ff1692820192909252600382015460608201526004820154608082015260059091015460a082015290565b610f5233836112fe565b610f6e5760405162461bcd60e51b815260040161077e906124ab565b610f7a84848484611726565b50505050565b7fa49807205ce4d355092ef5a8a18f56e8913cf4a201fbe287825b095693c21775610faa816112d7565b506000928352600c60205260409092206001810191909155600201805460ff191660ff909216919091179055565b6060610fe38261124c565b6110475760405162461bcd60e51b815260206004820152602f60248201527f4552433732314d657461646174613a2055524920717565727920666f72206e6f60448201526e3732bc34b9ba32b73a103a37b5b2b760891b606482015260840161077e565b600061105e60408051602081019091526000815290565b9050600081511161107e5760405180602001604052806000815250610d66565b8061108884611759565b60405160200161109992919061252b565b6040516020818303038152906040529392505050565b7f8502233096d909befbda0999bb8ea2f3a6be3c138b9fbf003752a4c8bce86f6c6110d9816112d7565b61110b866040516020016110ef91815260200190565b60405160208183030381529060405280519060200120846109c9565b6001600160a01b0316856001600160a01b03161461112857600080fd5b61115a8660405160200161113e91815260200190565b60405160208183030381529060405280519060200120836109c9565b6001600160a01b0316846001600160a01b03161461117757600080fd5b6111828585886113c8565b85846001600160a01b0316866001600160a01b03167f45ed27947b0ab4978c0a2ebe50152fa3dd6a5ccc619a17a1dd2649512db0399360405160405180910390a4505050505050565b6000828152600a60205260409020600101546111e6816112d7565b6108ae83836115f5565b6001600160a01b03918216600090815260056020908152604080832093909416825291909152205460ff1690565b80546001019055565b60006001600160e01b03198216637965db0b60e01b148061067e575061067e82611859565b6000908152600260205260409020546001600160a01b0316151590565b600081815260046020526040902080546001600160a01b0319166001600160a01b038416908117909155819061129e82610d6d565b6001600160a01b03167f8c5be1e5ebec7d5bd14f71427d1e84f3dd0314c0f7b2291e5b200ac8c7c3b92560405160405180910390a45050565b6112e1813361187e565b50565b610c078282604051806020016040528060008152506118e2565b60006113098261124c565b61136a5760405162461bcd60e51b815260206004820152602c60248201527f4552433732313a206f70657261746f7220717565727920666f72206e6f6e657860448201526b34b9ba32b73a103a37b5b2b760a11b606482015260840161077e565b600061137583610d6d565b9050806001600160a01b0316846001600160a01b0316148061139c575061139c81856111f0565b806113c05750836001600160a01b03166113b584610716565b6001600160a01b0316145b949350505050565b826001600160a01b03166113db82610d6d565b6001600160a01b03161461143f5760405162461bcd60e51b815260206004820152602560248201527f4552433732313a207472616e736665722066726f6d20696e636f72726563742060448201526437bbb732b960d91b606482015260840161077e565b6001600160a01b0382166114a15760405162461bcd60e51b8152602060048201526024808201527f4552433732313a207472616e7366657220746f20746865207a65726f206164646044820152637265737360e01b606482015260840161077e565b6114ac838383611915565b6114b7600082611269565b6001600160a01b03831660009081526003602052604081208054600192906114e090849061255a565b90915550506001600160a01b038216600090815260036020526040812080546001929061150e908490612571565b909155505060008181526002602052604080822080546001600160a01b0319166001600160a01b0386811691821790925591518493918716917fddf252ad1be2c89b69c2b068fc378daa952ba7f163c4a11628f55a4df523b3ef91a4505050565b6115798282610e6b565b610c07576000828152600a602090815260408083206001600160a01b03851684529091529020805460ff191660011790556115b13390565b6001600160a01b0316816001600160a01b0316837f2f8788117e7eff1d82e926ec794901d17c78024a50270940304540a733656f0d60405160405180910390a45050565b6115ff8282610e6b565b15610c07576000828152600a602090815260408083206001600160a01b0385168085529252808320805460ff1916905551339285917ff6391f5c32d9c69d2a47ea670b442974b53935d1edc7fd64eb21e047a839171b9190a45050565b816001600160a01b0316836001600160a01b0316036116b95760405162461bcd60e51b815260206004820152601960248201527822a9219b99189d1030b8383937bb32903a379031b0b63632b960391b604482015260640161077e565b6001600160a01b03838116600081815260056020908152604080832094871680845294825291829020805460ff191686151590811790915591519182527f17307eab39ab6107e8899845ad3d59bd9653f200f220920489ca2b5937696c31910160405180910390a3505050565b6117318484846113c8565b61173d848484846119cd565b610f7a5760405162461bcd60e51b815260040161077e90612589565b6060816000036117805750506040805180820190915260018152600360fc1b602082015290565b8160005b81156117aa578061179481612512565b91506117a39050600a836125f1565b9150611784565b6000816001600160401b038111156117c4576117c46120f7565b6040519080825280601f01601f1916602001820160405280156117ee576020820181803683370190505b5090505b84156113c05761180360018361255a565b9150611810600a86612605565b61181b906030612571565b60f81b818381518110611830576118306124fc565b60200101906001600160f81b031916908160001a905350611852600a866125f1565b94506117f2565b60006001600160e01b0319821663780e9d6360e01b148061067e575061067e82611ace565b6118888282610e6b565b610c07576118a0816001600160a01b03166014611b1e565b6118ab836020611b1e565b6040516020016118bc929190612619565b60408051601f198184030181529082905262461bcd60e51b825261077e91600401612013565b6118ec8383611cb9565b6118f960008484846119cd565b6108ae5760405162461bcd60e51b815260040161077e90612589565b6001600160a01b0383166119705761196b81600880546000838152600960205260408120829055600182018355919091527ff3f7a9fe364faab93b216da50a3214154f22a0a2b415b23a84c8169e8b636ee30155565b611993565b816001600160a01b0316836001600160a01b031614611993576119938382611df8565b6001600160a01b0382166119aa576108ae81611e95565b826001600160a01b0316826001600160a01b0316146108ae576108ae8282611f44565b60006001600160a01b0384163b15611ac357604051630a85bd0160e11b81526001600160a01b0385169063150b7a0290611a11903390899088908890600401612688565b6020604051808303816000875af1925050508015611a4c575060408051601f3d908101601f19168201909252611a49918101906126c5565b60015b611aa9573d808015611a7a576040519150601f19603f3d011682016040523d82523d6000602084013e611a7f565b606091505b508051600003611aa15760405162461bcd60e51b815260040161077e90612589565b805181602001fd5b6001600160e01b031916630a85bd0160e11b1490506113c0565b506001949350505050565b60006001600160e01b031982166380ac58cd60e01b1480611aff57506001600160e01b03198216635b5e139f60e01b145b8061067e57506301ffc9a760e01b6001600160e01b031983161461067e565b60606000611b2d8360026126e2565b611b38906002612571565b6001600160401b03811115611b4f57611b4f6120f7565b6040519080825280601f01601f191660200182016040528015611b79576020820181803683370190505b509050600360fc1b81600081518110611b9457611b946124fc565b60200101906001600160f81b031916908160001a905350600f60fb1b81600181518110611bc357611bc36124fc565b60200101906001600160f81b031916908160001a9053506000611be78460026126e2565b611bf2906001612571565b90505b6001811115611c6a576f181899199a1a9b1b9c1cb0b131b232b360811b85600f1660108110611c2657611c266124fc565b1a60f81b828281518110611c3c57611c3c6124fc565b60200101906001600160f81b031916908160001a90535060049490941c93611c6381612701565b9050611bf5565b508315610d665760405162461bcd60e51b815260206004820181905260248201527f537472696e67733a20686578206c656e67746820696e73756666696369656e74604482015260640161077e565b6001600160a01b038216611d0f5760405162461bcd60e51b815260206004820181905260248201527f4552433732313a206d696e7420746f20746865207a65726f2061646472657373604482015260640161077e565b611d188161124c565b15611d655760405162461bcd60e51b815260206004820152601c60248201527f4552433732313a20746f6b656e20616c7265616479206d696e74656400000000604482015260640161077e565b611d7160008383611915565b6001600160a01b0382166000908152600360205260408120805460019290611d9a908490612571565b909155505060008181526002602052604080822080546001600160a01b0319166001600160a01b03861690811790915590518392907fddf252ad1be2c89b69c2b068fc378daa952ba7f163c4a11628f55a4df523b3ef908290a45050565b60006001611e0584610de4565b611e0f919061255a565b600083815260076020526040902054909150808214611e62576001600160a01b03841660009081526006602090815260408083208584528252808320548484528184208190558352600790915290208190555b5060009182526007602090815260408084208490556001600160a01b039094168352600681528383209183525290812055565b600854600090611ea79060019061255a565b60008381526009602052604081205460088054939450909284908110611ecf57611ecf6124fc565b906000526020600020015490508060088381548110611ef057611ef06124fc565b6000918252602080832090910192909255828152600990915260408082208490558582528120556008805480611f2857611f28612718565b6001900381819060005260206000200160009055905550505050565b6000611f4f83610de4565b6001600160a01b039093166000908152600660209081526040808320868452825280832085905593825260079052919091209190915550565b6001600160e01b0319811681146112e157600080fd5b600060208284031215611fb057600080fd5b8135610d6681611f88565b60005b83811015611fd6578181015183820152602001611fbe565b83811115610f7a5750506000910152565b60008151808452611fff816020860160208601611fbb565b601f01601f19169290920160200192915050565b602081526000610d666020830184611fe7565b60006020828403121561203857600080fd5b5035919050565b80356001600160a01b038116811461205657600080fd5b919050565b6000806040838503121561206e57600080fd5b6120778361203f565b946020939093013593505050565b803560ff8116811461205657600080fd5b600080600080600080600060e0888a0312156120b157600080fd5b6120ba8861203f565b965060208801359550604088013594506120d660608901612085565b9699959850939660808101359560a0820135955060c0909101359350915050565b634e487b7160e01b600052604160045260246000fd5b600082601f83011261211e57600080fd5b81356001600160401b0380821115612138576121386120f7565b604051601f8301601f19908116603f01168101908282118183101715612160576121606120f7565b8160405283815286602085880101111561217957600080fd5b836020870160208301376000602085830101528094505050505092915050565b600080604083850312156121ac57600080fd5b8235915060208301356001600160401b038111156121c957600080fd5b6121d58582860161210d565b9150509250929050565b6000806000606084860312156121f457600080fd5b6121fd8461203f565b925061220b6020850161203f565b9150604084013590509250925092565b6000806040838503121561222e57600080fd5b8235915061223e6020840161203f565b90509250929050565b60006020828403121561225957600080fd5b610d668261203f565b6020808252825182820181905260009190848201906040850190845b8181101561229a5783518352928401929184019160010161227e565b50909695505050505050565b600080604083850312156122b957600080fd5b6122c28361203f565b9150602083013580151581146122d757600080fd5b809150509250929050565b600080600080608085870312156122f857600080fd5b6123018561203f565b935061230f6020860161203f565b92506040850135915060608501356001600160401b0381111561233157600080fd5b61233d8782880161210d565b91505092959194509250565b60008060006060848603121561235e57600080fd5b833592506020840135915061237560408501612085565b90509250925092565b600080600080600060a0868803121561239657600080fd5b853594506123a66020870161203f565b93506123b46040870161203f565b925060608601356001600160401b03808211156123d057600080fd5b6123dc89838a0161210d565b935060808801359150808211156123f257600080fd5b506123ff8882890161210d565b9150509295509295909350565b6000806040838503121561241f57600080fd5b6124288361203f565b915061223e6020840161203f565b600181811c9082168061244a57607f821691505b60208210810361246a57634e487b7160e01b600052602260045260246000fd5b50919050565b634e487b7160e01b600052601160045260246000fd5b600060ff821660ff84168060ff038211156124a3576124a3612470565b019392505050565b60208082526031908201527f4552433732313a207472616e736665722063616c6c6572206973206e6f74206f6040820152701ddb995c881b9bdc88185c1c1c9bdd9959607a1b606082015260800190565b634e487b7160e01b600052603260045260246000fd5b60006001820161252457612524612470565b5060010190565b6000835161253d818460208801611fbb565b835190830190612551818360208801611fbb565b01949350505050565b60008282101561256c5761256c612470565b500390565b6000821982111561258457612584612470565b500190565b60208082526032908201527f4552433732313a207472616e7366657220746f206e6f6e20455243373231526560408201527131b2b4bb32b91034b6b83632b6b2b73a32b960711b606082015260800190565b634e487b7160e01b600052601260045260246000fd5b600082612600576126006125db565b500490565b600082612614576126146125db565b500690565b76020b1b1b2b9b9a1b7b73a3937b61d1030b1b1b7bab73a1604d1b81526000835161264b816017850160208801611fbb565b7001034b99036b4b9b9b4b733903937b6329607d1b601791840191820152835161267c816028840160208801611fbb565b01602801949350505050565b6001600160a01b03858116825284166020820152604081018390526080606082018190526000906126bb90830184611fe7565b9695505050505050565b6000602082840312156126d757600080fd5b8151610d6681611f88565b60008160001904831182151516156126fc576126fc612470565b500290565b60008161271057612710612470565b506000190190565b634e487b7160e01b600052603160045260246000fdfea2646970667358221220377c4342a580ce7d37d2677411cdc208a57d27b2019df54600c0780ea586045764736f6c634300080e0033",
  "linkReferences": {},
  "deployedLinkReferences": {}
}